{"abi":[{"type":"constructor","inputs":[{"name":"_name","type":"string","internalType":"string"},{"name":"_symbol","type":"string","internalType":"string"},{"name":"_minter","type":"address","internalType":"address"},{"name":"_decimals","type":"uint8","internalType":"uint8"}],"stateMutability":"nonpayable"},{"type":"function","name":"allowance","inputs":[{"name":"owner","type":"address","internalType":"address"},{"name":"spender","type":"address","internalType":"address"}],"outputs":[{"name":"","type":"uint256","internalType":"uint256"}],"stateMutability":"view"},{"type":"function","name":"approve","inputs":[{"name":"spender","type":"address","internalType":"address"},{"name":"value","type":"uint256","internalType":"uint256"}],"outputs":[{"name":"","type":"bool","internalType":"bool"}],"stateMutability":"nonpayable"},{"type":"function","name":"balanceOf","inputs":[{"name":"account","type":"address","internalType":"address"}],"outputs":[{"name":"","type":"uint256","internalType":"uint256"}],"stateMutability":"view"},{"type":"function","name":"burn","inputs":[{"name":"_account","type":"address","internalType":"address"},{"name":"_amount","type":"uint256","internalType":"uint256"}],"outputs":[],"stateMutability":"nonpayable"},{"type":"function","name":"decimals","inputs":[],"outputs":[{"name":"","type":"uint8","internalType":"uint8"}],"stateMutability":"view"},{"type":"function","name":"mint","inputs":[{"name":"_account","type":"address","internalType":"address"},{"name":"_amount","type":"uint256","internalType":"uint256"}],"outputs":[],"stateMutability":"nonpayable"},{"type":"function","name":"minter","inputs":[],"outputs":[{"name":"","type":"address","internalType":"address"}],"stateMutability":"view"},{"type":"function","name":"name","inputs":[],"outputs":[{"name":"","type":"string","internalType":"string"}],"stateMutability":"view"},{"type":"function","name":"symbol","inputs":[],"outputs":[{"name":"","type":"string","internalType":"string"}],"stateMutability":"view"},{"type":"function","name":"totalSupply","inputs":[],"outputs":[{"name":"","type":"uint256","internalType":"uint256"}],"stateMutability":"view"},{"type":"function","name":"transfer","inputs":[{"name":"to","type":"address","internalType":"address"},{"name":"value","type":"uint256","internalType":"uint256"}],"outputs":[{"name":"","type":"bool","internalType":"bool"}],"stateMutability":"nonpayable"},{"type":"function","name":"transferFrom","inputs":[{"name":"from","type":"address","internalType":"address"},{"name":"to","type":"address","internalType":"address"},{"name":"value","type":"uint256","internalType":"uint256"}],"outputs":[{"name":"","type":"bool","internalType":"bool"}],"stateMutability":"nonpayable"},{"type":"event","name":"Approval","inputs":[{"name":"owner","type":"address","indexed":true,"internalType":"address"},{"name":"spender","type":"address","indexed":true,"internalType":"address"},{"name":"value","type":"uint256","indexed":false,"internalType":"uint256"}],"anonymous":false},{"type":"event","name":"Transfer","inputs":[{"name":"from","type":"address","indexed":true,"internalType":"address"},{"name":"to","type":"address","indexed":true,"internalType":"address"},{"name":"value","type":"uint256","indexed":false,"internalType":"uint256"}],"anonymous":false},{"type":"error","name":"ERC20InsufficientAllowance","inputs":[{"name":"spender","type":"address","internalType":"address"},{"name":"allowance","type":"uint256","internalType":"uint256"},{"name":"needed","type":"uint256","internalType":"uint256"}]},{"type":"error","name":"ERC20InsufficientBalance","inputs":[{"name":"sender","type":"address","internalType":"address"},{"name":"balance","type":"uint256","internalType":"uint256"},{"name":"needed","type":"uint256","internalType":"uint256"}]},{"type":"error","name":"ERC20InvalidApprover","inputs":[{"name":"approver","type":"address","internalType":"address"}]},{"type":"error","name":"ERC20InvalidReceiver","inputs":[{"name":"receiver","type":"address","internalType":"address"}]},{"type":"error","name":"ERC20InvalidSender","inputs":[{"name":"sender","type":"address","internalType":"address"}]},{"type":"error","name":"ERC20InvalidSpender","inputs":[{"name":"spender","type":"address","internalType":"address"}]}],"bytecode":{"object":"0x60c06040523480156200001157600080fd5b5060405162000c2a38038062000c2a83398101604081905262000034916200013b565b8383600362000044838262000272565b50600462000053828262000272565b5050506001600160a01b0390911660a05260ff16608052506200033e9050565b634e487b7160e01b600052604160045260246000fd5b600082601f8301126200009b57600080fd5b81516001600160401b0380821115620000b857620000b862000073565b604051601f8301601f19908116603f01168101908282118183101715620000e357620000e362000073565b81604052838152602092508660208588010111156200010157600080fd5b600091505b8382101562000125578582018301518183018401529082019062000106565b6000602085830101528094505050505092915050565b600080600080608085870312156200015257600080fd5b84516001600160401b03808211156200016a57600080fd5b620001788883890162000089565b955060208701519150808211156200018f57600080fd5b506200019e8782880162000089565b604087015190945090506001600160a01b0381168114620001be57600080fd5b606086015190925060ff81168114620001d657600080fd5b939692955090935050565b600181811c90821680620001f657607f821691505b6020821081036200021757634e487b7160e01b600052602260045260246000fd5b50919050565b601f8211156200026d576000816000526020600020601f850160051c81016020861015620002485750805b601f850160051c820191505b81811015620002695782815560010162000254565b5050505b505050565b81516001600160401b038111156200028e576200028e62000073565b620002a6816200029f8454620001e1565b846200021d565b602080601f831160018114620002de5760008415620002c55750858301515b600019600386901b1c1916600185901b17855562000269565b600085815260208120601f198616915b828110156200030f57888601518255948401946001909101908401620002ee565b50858210156200032e5787850151600019600388901b60f8161c191681555b5050505050600190811b01905550565b60805160a0516108b9620003716000396000818160dc0152818161030f01526103610152600061016501526108b96000f3fe608060405234801561001057600080fd5b50600436106100b45760003560e01c806340c10f191161007157806340c10f191461018f57806370a08231146101a457806395d89b41146101cd5780639dc29fac146101d5578063a9059cbb146101e8578063dd62ed3e146101fb57600080fd5b806306fdde03146100b957806307546172146100d7578063095ea7b31461011657806318160ddd1461013957806323b872dd1461014b578063313ce5671461015e575b600080fd5b6100c1610234565b6040516100ce9190610702565b60405180910390f35b6100fe7f000000000000000000000000000000000000000000000000000000000000000081565b6040516001600160a01b0390911681526020016100ce565b61012961012436600461076d565b6102c6565b60405190151581526020016100ce565b6002545b6040519081526020016100ce565b610129610159366004610797565b6102e0565b60405160ff7f00000000000000000000000000000000000000000000000000000000000000001681526020016100ce565b6101a261019d36600461076d565b610304565b005b61013d6101b23660046107d3565b6001600160a01b031660009081526020819052604090205490565b6100c1610347565b6101a26101e336600461076d565b610356565b6101296101f636600461076d565b610395565b61013d6102093660046107f5565b6001600160a01b03918216600090815260016020908152604080832093909416825291909152205490565b60606003805461024390610828565b80601f016020809104026020016040519081016040528092919081815260200182805461026f90610828565b80156102bc5780601f10610291576101008083540402835291602001916102bc565b820191906000526020600020905b81548152906001019060200180831161029f57829003601f168201915b5050505050905090565b6000336102d48185856103a3565b60019150505b92915050565b6000336102ee8582856103b5565b6102f9858585610438565b506001949350505050565b336001600160a01b037f0000000000000000000000000000000000000000000000000000000000000000161461033957600080fd5b6103438282610497565b5050565b60606004805461024390610828565b336001600160a01b037f0000000000000000000000000000000000000000000000000000000000000000161461038b57600080fd5b61034382826104cd565b6000336102d4818585610438565b6103b08383836001610503565b505050565b6001600160a01b038381166000908152600160209081526040808320938616835292905220546000198114610432578181101561042357604051637dc7a0d960e11b81526001600160a01b038416600482015260248101829052604481018390526064015b60405180910390fd5b61043284848484036000610503565b50505050565b6001600160a01b03831661046257604051634b637e8f60e11b81526000600482015260240161041a565b6001600160a01b03821661048c5760405163ec442f0560e01b81526000600482015260240161041a565b6103b08383836105d8565b6001600160a01b0382166104c15760405163ec442f0560e01b81526000600482015260240161041a565b610343600083836105d8565b6001600160a01b0382166104f757604051634b637e8f60e11b81526000600482015260240161041a565b610343826000836105d8565b6001600160a01b03841661052d5760405163e602df0560e01b81526000600482015260240161041a565b6001600160a01b03831661055757604051634a1406b160e11b81526000600482015260240161041a565b6001600160a01b038085166000908152600160209081526040808320938716835292905220829055801561043257826001600160a01b0316846001600160a01b03167f8c5be1e5ebec7d5bd14f71427d1e84f3dd0314c0f7b2291e5b200ac8c7c3b925846040516105ca91815260200190565b60405180910390a350505050565b6001600160a01b0383166106035780600260008282546105f89190610862565b909155506106759050565b6001600160a01b038316600090815260208190526040902054818110156106565760405163391434e360e21b81526001600160a01b0385166004820152602481018290526044810183905260640161041a565b6001600160a01b03841660009081526020819052604090209082900390555b6001600160a01b038216610691576002805482900390556106b0565b6001600160a01b03821660009081526020819052604090208054820190555b816001600160a01b0316836001600160a01b03167fddf252ad1be2c89b69c2b068fc378daa952ba7f163c4a11628f55a4df523b3ef836040516106f591815260200190565b60405180910390a3505050565b60006020808352835180602085015260005b8181101561073057858101830151858201604001528201610714565b506000604082860101526040601f19601f8301168501019250505092915050565b80356001600160a01b038116811461076857600080fd5b919050565b6000806040838503121561078057600080fd5b61078983610751565b946020939093013593505050565b6000806000606084860312156107ac57600080fd5b6107b584610751565b92506107c360208501610751565b9150604084013590509250925092565b6000602082840312156107e557600080fd5b6107ee82610751565b9392505050565b6000806040838503121561080857600080fd5b61081183610751565b915061081f60208401610751565b90509250929050565b600181811c9082168061083c57607f821691505b60208210810361085c57634e487b7160e01b600052602260045260246000fd5b50919050565b808201808211156102da57634e487b7160e01b600052601160045260246000fdfea2646970667358221220e1c9047bc798bc9a652de4f25e1c1fbaed59d3fc5157a604baafa46d056f29d664736f6c63430008180033","linkReferences":{}},"methodIdentifiers":{"allowance(address,address)":"dd62ed3e","approve(address,uint256)":"095ea7b3","balanceOf(address)":"70a08231","burn(address,uint256)":"9dc29fac","decimals()":"313ce567","mint(address,uint256)":"40c10f19","minter()":"07546172","name()":"06fdde03","symbol()":"95d89b41","totalSupply()":"18160ddd","transfer(address,uint256)":"a9059cbb","transferFrom(address,address,uint256)":"23b872dd"},"id":30}