{"abi":[{"type":"function","name":"__Controller_init","inputs":[{"name":"_protocolUnderlyingAsset","type":"address","internalType":"address"},{"name":"_protocolNumeraireAsset","type":"address","internalType":"address"},{"name":"_oracle","type":"address","internalType":"address"}],"outputs":[],"stateMutability":"nonpayable"},{"type":"function","name":"execute","inputs":[{"name":"_actions","type":"tuple[]","internalType":"struct VaultActionsLib.ActionArgs[]","components":[{"name":"actionType","type":"uint8","internalType":"enum VaultActionsLib.ActionType"},{"name":"owner","type":"address","internalType":"address"},{"name":"asset","type":"address","internalType":"address"},{"name":"amount","type":"uint256","internalType":"uint256"},{"name":"data","type":"bytes","internalType":"bytes"}]},{"name":"_numZeroRoots","type":"uint256","internalType":"uint256"}],"outputs":[],"stateMutability":"nonpayable"},{"type":"function","name":"execute","inputs":[{"name":"_actions","type":"tuple[]","internalType":"struct VaultActionsLib.ActionArgs[]","components":[{"name":"actionType","type":"uint8","internalType":"enum VaultActionsLib.ActionType"},{"name":"owner","type":"address","internalType":"address"},{"name":"asset","type":"address","internalType":"address"},{"name":"amount","type":"uint256","internalType":"uint256"},{"name":"data","type":"bytes","internalType":"bytes"}]},{"name":"_spanParams","type":"tuple","internalType":"struct ISpanMargin.VaultSpanParams","components":[{"name":"a","type":"int256","internalType":"int256"},{"name":"b","type":"int256","internalType":"int256"},{"name":"c","type":"int256","internalType":"int256"},{"name":"d","type":"int256","internalType":"int256"},{"name":"aDelta","type":"int256[3]","internalType":"int256[3]"},{"name":"bDelta","type":"int256[3]","internalType":"int256[3]"},{"name":"cDelta","type":"int256[3]","internalType":"int256[3]"},{"name":"dDelta","type":"int256[3]","internalType":"int256[3]"},{"name":"kinks","type":"int256[2]","internalType":"int256[2]"},{"name":"numKinks","type":"uint256","internalType":"uint256"}]},{"name":"_sqrtRoots","type":"bytes16[]","internalType":"bytes16[]"}],"outputs":[],"stateMutability":"nonpayable"},{"type":"function","name":"executeSpanSim","inputs":[{"name":"_actions","type":"tuple[]","internalType":"struct VaultActionsLib.ActionArgs[]","components":[{"name":"actionType","type":"uint8","internalType":"enum VaultActionsLib.ActionType"},{"name":"owner","type":"address","internalType":"address"},{"name":"asset","type":"address","internalType":"address"},{"name":"amount","type":"uint256","internalType":"uint256"},{"name":"data","type":"bytes","internalType":"bytes"}]}],"outputs":[],"stateMutability":"nonpayable"},{"type":"function","name":"feeOnFunding","inputs":[{"name":"","type":"address","internalType":"address"}],"outputs":[{"name":"","type":"uint256","internalType":"uint256"}],"stateMutability":"view"},{"type":"function","name":"feeOnLiquidation","inputs":[{"name":"","type":"address","internalType":"address"}],"outputs":[{"name":"","type":"uint256","internalType":"uint256"}],"stateMutability":"view"},{"type":"function","name":"feeOnShortPowerPerp","inputs":[{"name":"","type":"address","internalType":"address"}],"outputs":[{"name":"","type":"uint256","internalType":"uint256"}],"stateMutability":"view"},{"type":"function","name":"getCurrentNormalizationFactor","inputs":[{"name":"_perp","type":"address","internalType":"address"}],"outputs":[{"name":"","type":"uint256","internalType":"uint256"},{"name":"","type":"uint256","internalType":"uint256"}],"stateMutability":"view"},{"type":"function","name":"getFeeOnFunding","inputs":[{"name":"_owner","type":"address","internalType":"address"},{"name":"_perp","type":"address","internalType":"address"},{"name":"_expectedNormFactor","type":"uint256","internalType":"uint256"},{"name":"_perpAmount","type":"int256","internalType":"int256"}],"outputs":[{"name":"","type":"uint256","internalType":"uint256"},{"name":"","type":"uint256","internalType":"uint256"}],"stateMutability":"view"},{"type":"function","name":"getPerpLastUpdateTimestampByVault","inputs":[{"name":"_owner","type":"address","internalType":"address"},{"name":"_perp","type":"address","internalType":"address"}],"outputs":[{"name":"","type":"uint256","internalType":"uint256"}],"stateMutability":"view"},{"type":"function","name":"getPerpPriceInLiquidation","inputs":[{"name":"_perp","type":"address","internalType":"address"}],"outputs":[{"name":"","type":"uint256","internalType":"uint256"}],"stateMutability":"view"},{"type":"function","name":"getUnderlyingAssetPriceLookup","inputs":[{"name":"_timestamp","type":"uint256","internalType":"uint256"}],"outputs":[{"name":"","type":"uint256","internalType":"uint256"}],"stateMutability":"view"},{"type":"function","name":"init","inputs":[{"name":"_spanMargin","type":"address","internalType":"address"},{"name":"_safetyPool","type":"address","internalType":"address"},{"name":"_powerPerpFactory","type":"address","internalType":"address"},{"name":"_redemption","type":"address","internalType":"address"},{"name":"_vault","type":"address","internalType":"address"},{"name":"_shutdown","type":"address","internalType":"address"}],"outputs":[],"stateMutability":"nonpayable"},{"type":"function","name":"isShutdown","inputs":[],"outputs":[{"name":"","type":"bool","internalType":"bool"}],"stateMutability":"view"},{"type":"function","name":"liquidationPenaltyInFunding","inputs":[{"name":"","type":"address","internalType":"address"}],"outputs":[{"name":"","type":"int256","internalType":"int256"}],"stateMutability":"view"},{"type":"function","name":"liquidationPenaltyInVol","inputs":[{"name":"","type":"address","internalType":"address"}],"outputs":[{"name":"","type":"int256","internalType":"int256"}],"stateMutability":"view"},{"type":"function","name":"operators","inputs":[{"name":"","type":"address","internalType":"address"},{"name":"","type":"address","internalType":"address"}],"outputs":[{"name":"","type":"bool","internalType":"bool"}],"stateMutability":"view"},{"type":"function","name":"oracle","inputs":[],"outputs":[{"name":"","type":"address","internalType":"address"}],"stateMutability":"view"},{"type":"function","name":"owner","inputs":[],"outputs":[{"name":"","type":"address","internalType":"address"}],"stateMutability":"view"},{"type":"function","name":"powerPerpFactory","inputs":[],"outputs":[{"name":"","type":"address","internalType":"address"}],"stateMutability":"view"},{"type":"function","name":"protocolNumeraireAsset","inputs":[],"outputs":[{"name":"","type":"address","internalType":"address"}],"stateMutability":"view"},{"type":"function","name":"protocolUnderlyingAsset","inputs":[],"outputs":[{"name":"","type":"address","internalType":"address"}],"stateMutability":"view"},{"type":"function","name":"renounceOwnership","inputs":[],"outputs":[],"stateMutability":"nonpayable"},{"type":"function","name":"safetyPool","inputs":[],"outputs":[{"name":"","type":"address","internalType":"address"}],"stateMutability":"view"},{"type":"function","name":"setFeeOnFunding","inputs":[{"name":"_perp","type":"address","internalType":"address"},{"name":"_feeRate","type":"uint256","internalType":"uint256"}],"outputs":[],"stateMutability":"nonpayable"},{"type":"function","name":"setFeeOnLiquidation","inputs":[{"name":"_perp","type":"address","internalType":"address"},{"name":"_feeRate","type":"uint256","internalType":"uint256"}],"outputs":[],"stateMutability":"nonpayable"},{"type":"function","name":"setFeeOnShortPowerPerp","inputs":[{"name":"_perp","type":"address","internalType":"address"},{"name":"_feeRate","type":"uint256","internalType":"uint256"}],"outputs":[],"stateMutability":"nonpayable"},{"type":"function","name":"setIsShutdown","inputs":[],"outputs":[],"stateMutability":"nonpayable"},{"type":"function","name":"setLiquidationPenaltyInFunding","inputs":[{"name":"_perp","type":"address","internalType":"address"},{"name":"_funding","type":"uint256","internalType":"uint256"}],"outputs":[],"stateMutability":"nonpayable"},{"type":"function","name":"setLiquidationPenaltyInVol","inputs":[{"name":"_perp","type":"address","internalType":"address"},{"name":"_vol","type":"int256","internalType":"int256"}],"outputs":[],"stateMutability":"nonpayable"},{"type":"function","name":"shutdown","inputs":[],"outputs":[{"name":"","type":"address","internalType":"address"}],"stateMutability":"view"},{"type":"function","name":"simulateExecute","inputs":[{"name":"_actions","type":"tuple[]","internalType":"struct VaultActionsLib.ActionArgs[]","components":[{"name":"actionType","type":"uint8","internalType":"enum VaultActionsLib.ActionType"},{"name":"owner","type":"address","internalType":"address"},{"name":"asset","type":"address","internalType":"address"},{"name":"amount","type":"uint256","internalType":"uint256"},{"name":"data","type":"bytes","internalType":"bytes"}]}],"outputs":[{"name":"","type":"tuple","internalType":"struct ISpanMargin.VaultSpanParams","components":[{"name":"a","type":"int256","internalType":"int256"},{"name":"b","type":"int256","internalType":"int256"},{"name":"c","type":"int256","internalType":"int256"},{"name":"d","type":"int256","internalType":"int256"},{"name":"aDelta","type":"int256[3]","internalType":"int256[3]"},{"name":"bDelta","type":"int256[3]","internalType":"int256[3]"},{"name":"cDelta","type":"int256[3]","internalType":"int256[3]"},{"name":"dDelta","type":"int256[3]","internalType":"int256[3]"},{"name":"kinks","type":"int256[2]","internalType":"int256[2]"},{"name":"numKinks","type":"uint256","internalType":"uint256"}]}],"stateMutability":"nonpayable"},{"type":"function","name":"spanMargin","inputs":[],"outputs":[{"name":"","type":"address","internalType":"address"}],"stateMutability":"view"},{"type":"function","name":"transferOwnership","inputs":[{"name":"newOwner","type":"address","internalType":"address"}],"outputs":[],"stateMutability":"nonpayable"},{"type":"function","name":"updateOperator","inputs":[{"name":"_operator","type":"address","internalType":"address"},{"name":"_isActive","type":"bool","internalType":"bool"}],"outputs":[],"stateMutability":"nonpayable"},{"type":"function","name":"vault","inputs":[],"outputs":[{"name":"","type":"address","internalType":"address"}],"stateMutability":"view"},{"type":"event","name":"Call","inputs":[{"name":"callee","type":"address","indexed":false,"internalType":"address"},{"name":"owner","type":"address","indexed":false,"internalType":"address"},{"name":"caller","type":"address","indexed":false,"internalType":"address"},{"name":"data","type":"bytes","indexed":false,"internalType":"bytes"}],"anonymous":false},{"type":"event","name":"DepositCollateral","inputs":[{"name":"from","type":"address","indexed":true,"internalType":"address"},{"name":"asset","type":"address","indexed":true,"internalType":"address"},{"name":"amount","type":"uint256","indexed":false,"internalType":"uint256"}],"anonymous":false},{"type":"event","name":"DepositNonFungibleAsset","inputs":[{"name":"asset","type":"address","indexed":true,"internalType":"address"},{"name":"vaultOwner","type":"address","indexed":true,"internalType":"address"},{"name":"from","type":"address","indexed":true,"internalType":"address"},{"name":"tokenId","type":"uint256","indexed":false,"internalType":"uint256"}],"anonymous":false},{"type":"event","name":"Initialized","inputs":[{"name":"version","type":"uint64","indexed":false,"internalType":"uint64"}],"anonymous":false},{"type":"event","name":"Liquidate","inputs":[{"name":"liquidator","type":"address","indexed":true,"internalType":"address"},{"name":"vaultOwner","type":"address","indexed":true,"internalType":"address"},{"name":"debtAsset","type":"address","indexed":true,"internalType":"address"},{"name":"amountToRepay","type":"uint256","indexed":false,"internalType":"uint256"},{"name":"payoutAsset","type":"address","indexed":false,"internalType":"address"},{"name":"payoutAmount","type":"uint256","indexed":false,"internalType":"uint256"},{"name":"liquidationFee","type":"uint256","indexed":false,"internalType":"uint256"}],"anonymous":false},{"type":"event","name":"LongPowerPerp","inputs":[{"name":"from","type":"address","indexed":true,"internalType":"address"},{"name":"powerPerp","type":"address","indexed":true,"internalType":"address"},{"name":"amount","type":"uint256","indexed":false,"internalType":"uint256"}],"anonymous":false},{"type":"event","name":"OwnershipTransferred","inputs":[{"name":"previousOwner","type":"address","indexed":true,"internalType":"address"},{"name":"newOwner","type":"address","indexed":true,"internalType":"address"}],"anonymous":false},{"type":"event","name":"SetFeeOnFunding","inputs":[{"name":"powerperp","type":"address","indexed":false,"internalType":"address"},{"name":"oldFeeRate","type":"uint256","indexed":false,"internalType":"uint256"},{"name":"newFeeRate","type":"uint256","indexed":false,"internalType":"uint256"}],"anonymous":false},{"type":"event","name":"SetFeeOnLiquidation","inputs":[{"name":"powerperp","type":"address","indexed":false,"internalType":"address"},{"name":"oldFeeRate","type":"uint256","indexed":false,"internalType":"uint256"},{"name":"newFeeRate","type":"uint256","indexed":false,"internalType":"uint256"}],"anonymous":false},{"type":"event","name":"SetFeeOnShortPowerPerp","inputs":[{"name":"powerperp","type":"address","indexed":false,"internalType":"address"},{"name":"oldFeeRate","type":"uint256","indexed":false,"internalType":"uint256"},{"name":"newFeeRate","type":"uint256","indexed":false,"internalType":"uint256"}],"anonymous":false},{"type":"event","name":"SetLiquidationPenaltyInFunding","inputs":[{"name":"perp","type":"address","indexed":false,"internalType":"address"},{"name":"funding","type":"uint256","indexed":false,"internalType":"uint256"}],"anonymous":false},{"type":"event","name":"SetLiquidationPenaltyInVol","inputs":[{"name":"perp","type":"address","indexed":false,"internalType":"address"},{"name":"vol","type":"int256","indexed":false,"internalType":"int256"}],"anonymous":false},{"type":"event","name":"ShortPowerPerp","inputs":[{"name":"to","type":"address","indexed":true,"internalType":"address"},{"name":"powerPerp","type":"address","indexed":true,"internalType":"address"},{"name":"amount","type":"uint256","indexed":false,"internalType":"uint256"},{"name":"feeOnShortPowerPerp","type":"uint256","indexed":false,"internalType":"uint256"},{"name":"feeOnFunding","type":"uint256","indexed":false,"internalType":"uint256"}],"anonymous":false},{"type":"event","name":"UpdateOperator","inputs":[{"name":"owner","type":"address","indexed":true,"internalType":"address"},{"name":"operator","type":"address","indexed":true,"internalType":"address"},{"name":"isActive","type":"bool","indexed":false,"internalType":"bool"}],"anonymous":false},{"type":"event","name":"WithdrawCollateral","inputs":[{"name":"to","type":"address","indexed":true,"internalType":"address"},{"name":"asset","type":"address","indexed":true,"internalType":"address"},{"name":"amount","type":"uint256","indexed":false,"internalType":"uint256"}],"anonymous":false},{"type":"event","name":"WithdrawNonFungibleAsset","inputs":[{"name":"asset","type":"address","indexed":true,"internalType":"address"},{"name":"vaultOwner","type":"address","indexed":true,"internalType":"address"},{"name":"from","type":"address","indexed":true,"internalType":"address"},{"name":"tokenId","type":"uint256","indexed":false,"internalType":"uint256"}],"anonymous":false},{"type":"error","name":"ActionTypeMismatch","inputs":[]},{"type":"error","name":"AlreadyInitialized","inputs":[]},{"type":"error","name":"CanNotHaveDiffOwners","inputs":[]},{"type":"error","name":"CanNotLiquidateMoreThanHalfDebt","inputs":[]},{"type":"error","name":"CanNotLiquidateSafetyPoolVault","inputs":[]},{"type":"error","name":"CollateralNotSupported","inputs":[]},{"type":"error","name":"IncorrectAmountForCustomArgs","inputs":[]},{"type":"error","name":"InvalidAddress","inputs":[]},{"type":"error","name":"InvalidAmount","inputs":[]},{"type":"error","name":"InvalidBurnShortPerp","inputs":[]},{"type":"error","name":"InvalidCollateralAmount","inputs":[]},{"type":"error","name":"InvalidInitialization","inputs":[]},{"type":"error","name":"InvalidLiquidateShort","inputs":[]},{"type":"error","name":"InvalidLiquidationPenalty","inputs":[]},{"type":"error","name":"InvalidNftOp","inputs":[]},{"type":"error","name":"InvalidOwner","inputs":[]},{"type":"error","name":"InvalidWithdrawLongPerp","inputs":[]},{"type":"error","name":"NoAvailableSlot","inputs":[]},{"type":"error","name":"NonFungibleAssetNotSupported","inputs":[]},{"type":"error","name":"NotAuthorized","inputs":[]},{"type":"error","name":"NotInitializing","inputs":[]},{"type":"error","name":"NotRepayingDebtAsset","inputs":[]},{"type":"error","name":"OwnableInvalidOwner","inputs":[{"name":"owner","type":"address","internalType":"address"}]},{"type":"error","name":"OwnableUnauthorizedAccount","inputs":[{"name":"account","type":"address","internalType":"address"}]},{"type":"error","name":"PowerPerpNotSupported","inputs":[]},{"type":"error","name":"ProvidedSpanNotConservative","inputs":[]},{"type":"error","name":"ReentrancyGuardReentrantCall","inputs":[]},{"type":"error","name":"SafeCastOverflowedIntToUint","inputs":[{"name":"value","type":"int256","internalType":"int256"}]},{"type":"error","name":"SafeCastOverflowedUintToInt","inputs":[{"name":"value","type":"uint256","internalType":"uint256"}]},{"type":"error","name":"Shutdown","inputs":[]},{"type":"error","name":"SimulateSpanRevert","inputs":[]},{"type":"error","name":"VaultIsInsolvent","inputs":[]},{"type":"error","name":"VaultNotLiquidatable","inputs":[]},{"type":"error","name":"VaultNotSafe","inputs":[]},{"type":"error","name":"VaultReentrancy","inputs":[]}],"bytecode":{"object":"0x608060405234801561000f575f80fd5b5060015f55616b7b80620000225f395ff3fe608060405234801561000f575f80fd5b506004361061024f575f3560e01c80638da5cb5b1161013d578063c3b2532f116100b8578063eb3cac7811610088578063f2fde38b1161006e578063f2fde38b146105b8578063fbfa77cf146105cb578063fc0e74d1146105de575f80fd5b8063eb3cac7814610592578063ef5cd7a8146105a5575f80fd5b8063c3b2532f1461053a578063c9e250281461054d578063e6096c5a14610560578063e63f3cc614610573575f80fd5b80639f0bcef91161010d578063ae749a49116100f3578063ae749a49146104fc578063af30b56c14610515578063bf86d69014610528575f80fd5b80639f0bcef9146104a4578063ab808c57146104c4575f80fd5b80638da5cb5b1461042f578063913e2c791461045f57806399e133f9146104725780639d1d31ff14610485575f80fd5b806362a12320116101cd578063715018a61161019d5780637a2c8439116101835780637a2c8439146103de5780637dc0d1d0146103fd5780637e520a6d14610410575f80fd5b8063715018a6146103ce57806379acb1dc146103d6575f80fd5b806362a1232014610382578063630687cb146103955780636d44a3b2146103a857806370d1c22f146103bb575f80fd5b80632b44b99a116102225780633773930f116102085780633773930f146103325780635b50b37c146103475780635dc1e4e61461036f575f80fd5b80632b44b99a1461030c5780632d01edcd1461031f575f80fd5b8063123430db14610253578063128eccc0146102835780631d8866b6146102b05780632637588e146102cf575b5f80fd5b600854610266906001600160a01b031681565b6040516001600160a01b0390911681526020015b60405180910390f35b6102a2610291366004615b2c565b600f6020525f908152604090205481565b60405190815260200161027a565b6102a26102be366004615b2c565b600b6020525f908152604090205481565b6102fc6102dd366004615b47565b601060209081525f928352604080842090915290825290205460ff1681565b604051901515815260200161027a565b6102a261031a366004615b2c565b6105f1565b600754610266906001600160a01b031681565b610345610340366004615b7e565b61068c565b005b61035a610355366004615b2c565b6107a9565b6040805192835260208301919091520161027a565b61034561037d366004615bf0565b610839565b610345610390366004615b7e565b61089b565b61035a6103a3366004615c38565b610915565b6103456103b6366004615c88565b610931565b6103456103c9366004615cb4565b61099d565b610345610b65565b610345610b78565b6102a26103ec366004615cfc565b5f908152600a602052604090205490565b600354610266906001600160a01b031681565b6102a261041e366004615b2c565b600d6020525f908152604090205481565b7f9016d09d72d40fdae2fd8ceac6b6234c7706214fd39c1cd1e609a0528c199300546001600160a01b0316610266565b600454610266906001600160a01b031681565b610345610480366004615d13565b610bd1565b6102a2610493366004615b2c565b600e6020525f908152604090205481565b6104b76104b2366004615d91565b610d4b565b60405161027a9190615ea8565b6102a26104d2366004615b47565b6001600160a01b039182165f90815260096020908152604080832093909416825291909152205490565b600154610266906201000090046001600160a01b031681565b600254610266906001600160a01b031681565b6001546102fc90610100900460ff1681565b610345610548366004615b7e565b610e51565b61034561055b366004615d91565b610ecb565b61034561056e366004615b7e565b610ee9565b6102a2610581366004615b2c565b600c6020525f908152604090205481565b6103456105a0366004615b7e565b610f63565b6103456105b3366004615eb7565b611075565b6103456105c6366004615b2c565b6110c1565b600554610266906001600160a01b031681565b600654610266906001600160a01b031681565b6005546040517f3e327a560000000000000000000000000000000000000000000000000000000081526001600160a01b0383811660048301525f928392911690633e327a5690602401602060405180830381865afa158015610655573d5f803e3d5ffd5b505050506040513d601f19601f820116820180604052508101906106799190615f43565b9050610685838261111c565b9392505050565b61069461175a565b5f826001600160a01b0316634a4d59fa6040518163ffffffff1660e01b8152600401602060405180830381865afa1580156106d1573d5f803e3d5ffd5b505050506040513d601f19601f820116820180604052508101906106f59190615f43565b9050801580159061070e575080670de0b6b3a764000014155b15610745576040517f2a81057400000000000000000000000000000000000000000000000000000000815260040160405180910390fd5b61074e826117ce565b6001600160a01b0384165f818152600c60209081526040918290209390935580519182529181018490527fbf1dd7fd32f4a5f39a0ead0c9664c98987d0aa25ea5b5e2edb4294153d47f30b91015b60405180910390a1505050565b6007546040517f5b50b37c0000000000000000000000000000000000000000000000000000000081526001600160a01b0383811660048301525f928392911690635b50b37c906024016040805180830381865afa15801561080c573d5f803e3d5ffd5b505050506040513d601f19601f820116820180604052508101906108309190615f5a565b91509150915091565b6108416159db565b5f8267ffffffffffffffff81111561085b5761085b615f7c565b604051908082528060200260200182016040528015610884578160200160208202803683370190505b509050610894858584845f611830565b5050505050565b6108a361175a565b6001600160a01b0382165f818152600e60209081526040918290205482519384529083015281018290527fe5a9edee598e9d95a2836d82f812aad0674297223ac61875c85bf6578dd8ddfe9060600160405180910390a16001600160a01b039091165f908152600e6020526040902055565b5f8061092386868686611c78565b915091505b94509492505050565b335f8181526010602090815260408083206001600160a01b03871680855290835292819020805460ff191686151590811790915590519081529192917fdf727c4faf394ac9cd7b93443c2fe58e3a2ae7cd1d4a4bdb5deef341632bfcf391015b60405180910390a35050565b7ff0c57e16840df040f15088dc2f81fe391c3923bec73e23a9662efc9c229c6a00805468010000000000000000810460ff16159067ffffffffffffffff165f811580156109e75750825b90505f8267ffffffffffffffff166001148015610a035750303b155b905081158015610a11575080155b15610a48576040517ff92ee8a900000000000000000000000000000000000000000000000000000000815260040160405180910390fd5b84547fffffffffffffffffffffffffffffffffffffffffffffffff00000000000000001660011785558315610a9357845468ff00000000000000001916680100000000000000001785555b610a9c33611f08565b600180546001600160a01b03808b1662010000027fffffffffffffffffffff0000000000000000000000000000000000000000ffff909216919091179091556002805489831673ffffffffffffffffffffffffffffffffffffffff199182161790915560038054928916929091169190911790558315610b5b57845468ff000000000000000019168555604051600181527fc7f505b2f371ae2175ee4913f4499e1f2633a7b5936321eed1cdaeb6115181d29060200160405180910390a15b5050505050505050565b610b6d61175a565b610b765f611f19565b565b6006546001600160a01b03163314610ba35760405163ea8e4eb560e01b815260040160405180910390fd5b600180547fffffffffffffffffffffffffffffffffffffffffffffffffffffffffffff00ff16610100179055565b610bd961175a565b60015460ff1615610c16576040517f0dc149f000000000000000000000000000000000000000000000000000000000815260040160405180910390fd5b6001805460ff1916811790556007805473ffffffffffffffffffffffffffffffffffffffff199081166001600160a01b038981169190911790925560048054821688841617815560088054831688851690811790915560058054841687861690811790915560068054909416868616179093556040517ff4719d7b0000000000000000000000000000000000000000000000000000000081529387169184019190915260248301529063f4719d7b906044015f604051808303815f87803b158015610cdf575f80fd5b505af1158015610cf1573d5f803e3d5ffd5b50505050856001600160a01b031663bfa415166040518163ffffffff1660e01b81526004015f604051808303815f87803b158015610d2d575f80fd5b505af1158015610d3f573d5f803e3d5ffd5b50505050505050505050565b610d536159db565b610d5b6159db565b5f8484604051602401610d6f929190616040565b60408051601f198184030181529181526020820180517bffffffffffffffffffffffffffffffffffffffffffffffffffffffff167fc9e2502800000000000000000000000000000000000000000000000000000000179052519091505f9081903090610ddc908590616171565b5f60405180830381855af49150503d805f8114610e14576040519150601f19603f3d011682016040523d82523d5f602084013e610e19565b606091505b5091509150805161026014610e3057805181602001fd5b80806020019051810190610e4491906162c5565b9450505050505b92915050565b610e5961175a565b6001600160a01b0382165f818152600d60209081526040918290205482519384529083015281018290527f253f6f26e06f773ec1f9a5e7af24392d28f6e73a19838f1c47c1ea4d53ac8a939060600160405180910390a16001600160a01b039091165f908152600d6020526040902055565b610ed36159db565b6060610ee3848484846001611830565b50505050565b610ef161175a565b6001600160a01b0382165f818152600f60209081526040918290205482519384529083015281018290527f79957288b5eecf6a013fd5373b91cbd59593eb81321c8dbd6ab84408fa983fbc9060600160405180910390a16001600160a01b039091165f908152600f6020526040902055565b610f6b61175a565b5f826001600160a01b0316634a4d59fa6040518163ffffffff1660e01b8152600401602060405180830381865afa158015610fa8573d5f803e3d5ffd5b505050506040513d601f19601f82011682018060405250810190610fcc9190615f43565b905080671bc16d674ec8000014158015610fee5750806706f05b59d3b2000014155b15611025576040517f2a81057400000000000000000000000000000000000000000000000000000000815260040160405180910390fd5b6001600160a01b0383165f818152600b6020908152604091829020859055815192835282018490527fcc9690b81a2b723800a113f53434e40cd6f2cca5d050b580824cef12b0cf2621910161079c565b6108948585611089368790038701876163dc565b8585808060200260200160405190810160405280939291908181526020018383602002808284375f9201829052509250611830915050565b6110c961175a565b6001600160a01b038116611110576040517f1e4fbdf70000000000000000000000000000000000000000000000000000000081525f60048201526024015b60405180910390fd5b61111981611f19565b50565b5f805f846001600160a01b0316634a4d59fa6040518163ffffffff1660e01b8152600401602060405180830381865afa15801561115b573d5f803e3d5ffd5b505050506040513d601f19601f8201168201806040525081019061117f9190615f43565b6003546040517f66d7505b0000000000000000000000000000000000000000000000000000000081526001600160a01b0388811660048301526102d060248301529293505f92909116906366d7505b90604401602060405180830381865afa1580156111ed573d5f803e3d5ffd5b505050506040513d601f19601f820116820180604052508101906112119190615f43565b6003546001546040517f66d7505b0000000000000000000000000000000000000000000000000000000081526001600160a01b0362010000909204821660048201526102d060248201529293505f929116906366d7505b90604401602060405180830381865afa158015611287573d5f803e3d5ffd5b505050506040513d601f19601f820116820180604052508101906112ab9190615f43565b90505f876001600160a01b03166374d7c62b6040518163ffffffff1660e01b8152600401602060405180830381865afa1580156112ea573d5f803e3d5ffd5b505050506040513d601f19601f8201168201806040525081019061130e9190615f43565b9050831580611324575083670de0b6b3a7640000145b15611539575f73__$faf868423ddbcc634cdce9c386a9da8ad1$__63883b67af6113568a670de0b6b3a7640000611f96565b61136887670de0b6b3a7640000611f96565b61137a87670de0b6b3a7640000611f96565b611388876301e13380611f96565b61139a8b670de0b6b3a7640000611f96565b6040516001600160e01b031960e088901b168152600f95860b600482015293850b602485015291840b6044840152830b606483015290910b608482015260a401602060405180830381865af41580156113f5573d5f803e3d5ffd5b505050506040513d601f19601f820116820180604052508101906114199190615f43565b6001600160a01b038a165f908152600c60205260408120549192509061143f908361649d565b905073__$faf868423ddbcc634cdce9c386a9da8ad1$__63ce5fedff61146d8b670de0b6b3a7640000611f96565b61147f87670de0b6b3a7640000611f96565b61148d876301e13380611f96565b61149f86670de0b6b3a7640000611fdd565b6114b18c670de0b6b3a7640000611f96565b6040516001600160e01b031960e088901b168152600f95860b600482015293850b602485015291840b6044840152830b606483015290910b608482015260a401602060405180830381865af415801561150c573d5f803e3d5ffd5b505050506040513d601f19601f820116820180604052508101906115309190615f43565b96505050611745565b5f73__$faf868423ddbcc634cdce9c386a9da8ad1$__631c3b8f656115668a670de0b6b3a7640000611f96565b61157887670de0b6b3a7640000611f96565b61158a87670de0b6b3a7640000611f96565b611598876301e13380611f96565b6115aa8b670de0b6b3a7640000611f96565b6040516001600160e01b031960e088901b168152600f95860b600482015293850b602485015291840b6044840152830b606483015290910b608482015260a401602060405180830381865af4158015611605573d5f803e3d5ffd5b505050506040513d601f19601f820116820180604052508101906116299190615f43565b6001600160a01b038a165f908152600b60205260408120549192509061164f908361649d565b905073__$faf868423ddbcc634cdce9c386a9da8ad1$__633565822661167d8b670de0b6b3a7640000611f96565b61168f87670de0b6b3a7640000611f96565b61169d876301e13380611f96565b6116af86670de0b6b3a7640000611fdd565b6116c18c670de0b6b3a7640000611f96565b6040516001600160e01b031960e088901b168152600f95860b600482015293850b602485015291840b6044840152830b606483015290910b608482015260a401602060405180830381865af415801561171c573d5f803e3d5ffd5b505050506040513d601f19601f820116820180604052508101906117409190615f43565b965050505b61174e85612097565b98975050505050505050565b3361178c7f9016d09d72d40fdae2fd8ceac6b6234c7706214fd39c1cd1e609a0528c199300546001600160a01b031690565b6001600160a01b031614610b76576040517f118cdaa7000000000000000000000000000000000000000000000000000000008152336004820152602401611107565b5f7f7fffffffffffffffffffffffffffffffffffffffffffffffffffffffffffffff82111561182c576040517f24775e0600000000000000000000000000000000000000000000000000000000815260048101839052602401611107565b5090565b600154610100900460ff1680156118c757506005546040517f1b22bc410000000000000000000000000000000000000000000000000000000081523360048201526001600160a01b0390911690631b22bc4190602401602060405180830381865afa1580156118a1573d5f803e3d5ffd5b505050506040513d601f19601f820116820180604052508101906118c591906164bc565b155b156118fe576040517f4426aa1f00000000000000000000000000000000000000000000000000000000815260040160405180910390fd5b5f805f61190b88886120d5565b92509250925083156119c9576007546040517f811afa3b0000000000000000000000000000000000000000000000000000000081525f916001600160a01b03169063811afa3b9061196090859060040161659c565b61026060405180830381865afa15801561197c573d5f803e3d5ffd5b505050506040513d601f19601f820116820180604052508101906119a091906162c5565b6040516020016119b09190615ea8565b6040516020818303038152906040529050805181602001fd5b8115611bf7576119d76159db565b6007546040517f811afa3b0000000000000000000000000000000000000000000000000000000081525f916001600160a01b03169063811afa3b90611a2090869060040161659c565b61026060405180830381865afa158015611a3c573d5f803e3d5ffd5b505050506040513d601f19601f82011682018060405250810190611a6091906162c5565b905081604051602001611a739190615ea8565b6040516020818303038152906040528051906020012088604051602001611a9a9190615ea8565b6040516020818303038152906040528051906020012003611abd57809750611b03565b5f611ac88983612459565b905080611b01576040517f421e570500000000000000000000000000000000000000000000000000000000815260040160405180910390fd5b505b6007546040517f3907e3e00000000000000000000000000000000000000000000000000000000081525f9182916001600160a01b0390911690633907e3e090611b52908c908e906004016165ab565b6040805180830381865afa158015611b6c573d5f803e3d5ffd5b505050506040513d601f19601f82011682018060405250810190611b90919061661c565b9150915081611bcb576040517ff216349f00000000000000000000000000000000000000000000000000000000815260040160405180910390fd5b425f908152600a60205260408120549003611bf257425f908152600a602052604090208190555b505050505b6005546040517fa8eea6780000000000000000000000000000000000000000000000000000000081526001600160a01b039091169063a8eea67890611c429086908590600401616648565b5f604051808303815f87803b158015611c59575f80fd5b505af1158015611c6b573d5f803e3d5ffd5b50505050610b5b8361255c565b6001600160a01b0383165f908152600e60205260408120548190819081908186121580611ca3575080155b15611cb357509092509050610928565b6001600160a01b038981165f9081526009602090815260408083208c851680855292528083205460075491517f02a2e91400000000000000000000000000000000000000000000000000000000815260048101939093526024830181905292938493929116906302a2e91490604401602060405180830381865afa158015611d3d573d5f803e3d5ffd5b505050506040513d601f19601f82011682018060405250810190611d619190615f43565b5f918252600a6020526040918290205460035460015493516341976e0960e01b81526001600160a01b03620100009095048516600482015292955090935073__$7ecd13e275dd667debb3e0fe1bdf63d3d5$__92634c8b9208928692869216906341976e0990602401602060405180830381865afa158015611de5573d5f803e3d5ffd5b505050506040513d601f19601f82011682018060405250810190611e099190615f43565b8e6001600160a01b0316634a4d59fa6040518163ffffffff1660e01b8152600401602060405180830381865afa158015611e45573d5f803e3d5ffd5b505050506040513d601f19601f82011682018060405250810190611e699190615f43565b8e611e738f612566565b6040516001600160e01b031960e089901b1681526004810196909652602486019490945260448501929092526064840152608483015260a482015260c4810186905260e4016040805180830381865af4158015611ed2573d5f803e3d5ffd5b505050506040513d601f19601f82011682018060405250810190611ef69190615f5a565b96509650505050505094509492505050565b611f10612575565b611119816125dc565b7f9016d09d72d40fdae2fd8ceac6b6234c7706214fd39c1cd1e609a0528c199300805473ffffffffffffffffffffffffffffffffffffffff1981166001600160a01b03848116918217845560405192169182907f8be0079c531659141344cd1fd0a4f28419497f9722a3daafe3b4186f6b6457e0905f90a3505050565b5f815f03611fa2575f80fd5b5f611fad84846125e4565b90506f7fffffffffffffffffffffffffffffff6fffffffffffffffffffffffffffffffff82161115610685575f80fd5b5f815f03611fe9575f80fd5b5f80841215611ffc57835f039350600190505b5f83121561200c575f9290920391155b5f61201785856125e4565b90508115612058576f80000000000000000000000000000000816fffffffffffffffffffffffffffffffff16111561204d575f80fd5b5f039150610e4b9050565b6f7fffffffffffffffffffffffffffffff816fffffffffffffffffffffffffffffffff161115612086575f80fd5b9150610e4b9050565b505092915050565b5f8082121561182c576040517fa8ce443200000000000000000000000000000000000000000000000000000000815260048101839052602401611107565b5f806120df615a47565b5f806120e9615a47565b5f805b888110156122a8575f8a8a8381811061210757612107616666565b9050602002810190612119919061667a565b6121229061668e565b8051909150600681600781111561213b5761213b615fa3565b1461229157836121e657612152826020015161276f565b60208201516005546040517f0eb9af380000000000000000000000000000000000000000000000000000000081526001600160a01b038084166004830152929950911690630eb9af389060240161060060405180830381865afa1580156121bb573d5f803e3d5ffd5b505050506040513d601f19601f820116820180604052508101906121df9190616851565b9450600193505b81602001516001600160a01b0316876001600160a01b031614612235576040517ff15b9ebf00000000000000000000000000000000000000000000000000000000815260040160405180910390fd5b600481600781111561224957612249615fa3565b14806122665750600181600781111561226457612264615fa3565b145b806122825750600381600781111561228057612280615fa3565b145b1561228c57600195505b61229e565b61229e82602001516127b5565b50506001016120ec565b505f5b8881101561244a575f8a8a838181106122c6576122c6616666565b90506020028101906122d8919061667a565b6122e19061668e565b80519091505f8160078111156122f9576122f9615fa3565b03612315576123108561230b846127f0565b6129c4565b612440565b600181600781111561232957612329615fa3565b03612340576123108561233b84612b7d565b612c38565b600481600781111561235457612354615fa3565b0361236b576123108561236684612d79565b612d9c565b600581600781111561237f5761237f615fa3565b03612396576123108561239184613332565b613355565b60078160078111156123aa576123aa615fa3565b036123c0576123106123bb836138b5565b613962565b60028160078111156123d4576123d4615fa3565b036123eb57612310856123e684613a68565b613a8b565b60038160078111156123ff576123ff615fa3565b03612416576123108561241184613c66565b613c89565b600681600781111561242a5761242a615fa3565b036124405761244061243b83613df8565b613f08565b50506001016122ab565b50929891975095509350505050565b5f81610120015183610120015114158061247e57506101008281015151908401515114155b8061249a57506101008281015160209081015191850151015114155b156124a657505f610e4b565b8151835113806124bd575081602001518360200151135b806124cf575081604001518360400151135b806124e1575081606001518360600151135b156124ed57505f610e4b565b6124ff83608001518360800151614ad0565b8061251757506125178360a001518360a00151614ad0565b8061252f575061252f8360c001518360c00151614ad0565b8061254757506125478360e001518360e00151614ad0565b1561255357505f610e4b565b50600192915050565b611119815f614afd565b5f8082121561182c57505f0390565b7ff0c57e16840df040f15088dc2f81fe391c3923bec73e23a9662efc9c229c6a005468010000000000000000900460ff16610b76576040517fd7e6bcf800000000000000000000000000000000000000000000000000000000815260040160405180910390fd5b6110c9612575565b5f815f036125f0575f80fd5b5f77ffffffffffffffffffffffffffffffffffffffffffffffff841161262b5782604085901b816126235761262361692d565b049050612753565b60c084811c6401000000008110612644576020918201911c5b620100008110612656576010918201911c5b6101008110612667576008918201911c5b60108110612677576004918201911c5b60048110612687576002918201911c5b60028110612696576001820191505b60bf820360018603901c6001018260ff0387901b816126b7576126b761692d565b0492506fffffffffffffffffffffffffffffffff8311156126d6575f80fd5b608085901c83026fffffffffffffffffffffffffffffffff8616840260c088901c604089901b8281101561270b576001820391505b608084901b92900382811015612722576001820391505b829003608084901c8214612737576001612748565b8881816127465761274661692d565b045b870196505050505050505b6fffffffffffffffffffffffffffffffff811115610685575f80fd5b805c6001036127aa576040517f52d3b32100000000000000000000000000000000000000000000000000000000815260040160405180910390fd5b611119816001614afd565b805c600103611119576040517f52d3b32100000000000000000000000000000000000000000000000000000000815260040160405180910390fd5b604080516060810182525f80825260208201819052918101829052905b8251600781111561282057612820615fa3565b1461283e57604051630252f18b60e31b815260040160405180910390fd5b60208201516001600160a01b0316612869576040516349e27cff60e01b815260040160405180910390fd5b606082015160808301515115612987576060830151156128b5576040517ffcba420c00000000000000000000000000000000000000000000000000000000815260040160405180910390fd5b5f8084608001518060200190518101906128cf919061694d565b90925090505f8280156128e4576128e4615fa3565b0361298457604080860151602087015191517f70a082310000000000000000000000000000000000000000000000000000000081526001600160a01b0392831660048201528392909116906370a0823190602401602060405180830381865afa158015612953573d5f803e3d5ffd5b505050506040513d601f19601f820116820180604052508101906129779190615f43565b6129819190616969565b92505b50505b604051806060016040528084602001516001600160a01b0316815260200184604001516001600160a01b0316815260200182815250915050919050565b60075460208201516040517f7acff6b70000000000000000000000000000000000000000000000000000000081526001600160a01b0391821660048201525f929190911690637acff6b790602401602060405180830381865afa158015612a2d573d5f803e3d5ffd5b505050506040513d601f19601f82011682018060405250810190612a51919061697c565b6001600160a01b031603612a91576040517fb047cbb900000000000000000000000000000000000000000000000000000000815260040160405180910390fd5b60208101516040820151612aa6918491614b04565b600554602082015160408084015190517f2a84997e0000000000000000000000000000000000000000000000000000000081526001600160a01b0392831660048201523360248201526044810191909152911690632a84997e906064015f604051808303815f87803b158015612b1a575f80fd5b505af1158015612b2c573d5f803e3d5ffd5b5050505080602001516001600160a01b0316336001600160a01b03167fef12f18e2b6578b91b3c852c423ca8ee530f65f20f770e62a7ce8aa08e1ab777836040015160405161099191815260200190565b604080516060810182525f808252602082018190529181019190915260015b82516007811115612baf57612baf615fa3565b14612bcd57604051630252f18b60e31b815260040160405180910390fd5b60208201516001600160a01b0316612bf8576040516349e27cff60e01b815260040160405180910390fd5b604051806060016040528083602001516001600160a01b0316815260200183604001516001600160a01b0316815260200183606001518152509050919050565b805133906001600160a01b0381168214801590612c7a57506001600160a01b038082165f9081526010602090815260408083209386168352929052205460ff16155b15612c985760405163ea8e4eb560e01b815260040160405180910390fd5b60208301516040840151612cad918691614b93565b6005546020840151604080860151905163453cf4bd60e01b81526001600160a01b039283166004820152336024820152604481019190915291169063453cf4bd906064015f604051808303815f87803b158015612d08575f80fd5b505af1158015612d1a573d5f803e3d5ffd5b5050505082602001516001600160a01b0316336001600160a01b03167f1607da8e9144035d8537941425741e9e3569c81d34a7f8e0c5c44635dc7169218560400151604051612d6b91815260200190565b60405180910390a350505050565b604080516060810182525f80825260208201819052918101919091526004612b9c565b805133906001600160a01b0381168214801590612dde57506001600160a01b038082165f9081526010602090815260408083209386168352929052205460ff16155b15612dfc5760405163ea8e4eb560e01b815260040160405180910390fd5b60085460208401516040517f0fa6066e0000000000000000000000000000000000000000000000000000000081526001600160a01b039182166004820152911690630fa6066e90602401602060405180830381865afa158015612e61573d5f803e3d5ffd5b505050506040513d601f19601f82011682018060405250810190612e8591906164bc565b612ebb576040517fd24efe6500000000000000000000000000000000000000000000000000000000815260040160405180910390fd5b60055460208401516040516325bc54e960e11b81526001600160a01b0391821660048201525f929190911690634b78a9d2906024016020604051808303815f875af1158015612f0c573d5f803e3d5ffd5b505050506040513d601f19601f82011682018060405250810190612f309190615f43565b90505f612f4a856020015187614c3790919063ffffffff16565b6020015190505f805f612f67886020015189604001518688614d53565b9250925092505f80612f828a5f01518b602001518989611c78565b91509150808a604001818151612f989190616997565b90525060208a015160408b0151612fb0918d91614efa565b89516020808c0180516001600160a01b039384165f9081526009845260408082209590921681529390925290822042905551612fed908d90614c37565b6020015190505f811261306b5760055460208c015160405163453cf4bd60e01b81526001600160a01b0391821660048201523360248201526044810189905291169063453cf4bd906064015b5f604051808303815f87803b158015613050575f80fd5b505af1158015613062573d5f803e3d5ffd5b505050506131c2565b5f87131561313d5760055460208c015160405163453cf4bd60e01b81526001600160a01b039182166004820152336024820152604481018a905291169063453cf4bd906064015f604051808303815f87803b1580156130c8575f80fd5b505af11580156130da573d5f803e3d5ffd5b505060055460208e01516001600160a01b0390911692506372ed7cbe9150336131038b8b616969565b6040516001600160e01b031960e086901b1681526001600160a01b0393841660048201529290911660248301526044820152606401613039565b60055460208c01516040517f72ed7cbe0000000000000000000000000000000000000000000000000000000081526001600160a01b039182166004820152336024820152604481018990529116906372ed7cbe906064015f604051808303815f87803b1580156131ab575f80fd5b505af11580156131bd573d5f803e3d5ffd5b505050505b5f6131cd8386616997565b905080156132ce576004805460208e015160405163257bf7b160e01b81525f938101939093526001600160a01b0390811660248401526044830184905260016064840152169063257bf7b1906084015f604051808303815f87803b158015613233575f80fd5b505af1158015613245573d5f803e3d5ffd5b505050505f84876132569190616997565b600480548f516040516303630fb360e01b81529394506001600160a01b03909116926303630fb39261329f92918691016001600160a01b03929092168252602082015260400190565b5f604051808303815f87803b1580156132b6575f80fd5b505af11580156132c8573d5f803e3d5ffd5b50505050505b6020808d01516040808f0151815190815292830188905282018590526001600160a01b03169033907fc74f3913c165fd95c30860ace4a922140fdfa59411783b82b21cd35c00a78bc99060600160405180910390a350505050505050505050505050565b604080516060810182525f8082526020820181905291810191909152600561280d565b60085460208201516040517f0fa6066e0000000000000000000000000000000000000000000000000000000081526001600160a01b039182166004820152911690630fa6066e90602401602060405180830381865afa1580156133ba573d5f803e3d5ffd5b505050506040513d601f19601f820116820180604052508101906133de91906164bc565b613414576040517fd24efe6500000000000000000000000000000000000000000000000000000000815260040160405180910390fd5b60055460208201516040516325bc54e960e11b81526001600160a01b0391821660048201525f929190911690634b78a9d2906024016020604051808303815f875af1158015613465573d5f803e3d5ffd5b505050506040513d601f19601f820116820180604052508101906134899190615f43565b90505f6134a3836020015185614c3790919063ffffffff16565b6020015190505f806134be855f015186602001518686611c78565b909250905080156135b35760208501516134da90879083614efa565b60048054602087015160405163257bf7b160e01b81525f938101939093526001600160a01b0390811660248401526044830184905260016064840152169063257bf7b1906084015f604051808303815f87803b158015613538575f80fd5b505af115801561354a573d5f803e3d5ffd5b50506004805488516040516303630fb360e01b81526001600160a01b0391821693810193909352602483018790521692506303630fb391506044015f604051808303815f87803b15801561359c575f80fd5b505af11580156135ae573d5f803e3d5ffd5b505050505b5f6135cb866020015188614c3790919063ffffffff16565b6020015190506135ee8660200151876040015189614fa09092919063ffffffff16565b85516020808801516001600160a01b039283165f9081526009835260408082209490921681529290915281204290558112156137c457856040015161363282612566565b106136c757600554602087015160408089015190517fabdf25690000000000000000000000000000000000000000000000000000000081526001600160a01b039283166004820152336024820152604481019190915291169063abdf2569906064015b5f604051808303815f87803b1580156136ac575f80fd5b505af11580156136be573d5f803e3d5ffd5b50505050613857565b60055460208701516001600160a01b039091169063abdf256990336136eb85612566565b6040516001600160e01b031960e086901b1681526001600160a01b03938416600482015292909116602483015260448201526064015f604051808303815f87803b158015613737575f80fd5b505af1158015613749573d5f803e3d5ffd5b505060055460208901516001600160a01b03909116925063d5c378979150338361377286612566565b8b604001516137819190616969565b6040516001600160e01b031960e087901b1681526001600160a01b0394851660048201529284166024840152921660448201526064810191909152608401613695565b600554602087015160408089015190517fd5c378970000000000000000000000000000000000000000000000000000000081526001600160a01b0392831660048201523360248201529190921660448201819052606482019290925263d5c37897906084015f604051808303815f87803b158015613840575f80fd5b505af1158015613852573d5f803e3d5ffd5b505050505b85602001516001600160a01b0316336001600160a01b03167f24d74ab282bd31ebcff21b56c66c3aecd482cbb2235e8d5f3d79e45fb41cee0088604001516040516138a491815260200190565b60405180910390a350505050505050565b60408051606080820183525f8083526020830152918101919091526007825160078111156138e5576138e5615fa3565b1461390357604051630252f18b60e31b815260040160405180910390fd5b60208201516001600160a01b031661392e576040516349e27cff60e01b815260040160405180910390fd5b50604080516060810182526020808401516001600160a01b0390811683528484015116908201526080909201519082015290565b805133906001600160a01b03811682148015906139a457506001600160a01b038082165f9081526010602090815260408083209386168352929052205460ff16155b156139c25760405163ea8e4eb560e01b815260040160405180910390fd5b82602001516001600160a01b03166393b141c4845f01513386604001516040518463ffffffff1660e01b81526004016139fd939291906169d5565b5f604051808303815f87803b158015613a14575f80fd5b505af1158015613a26573d5f803e3d5ffd5b5050506020840151845160408087015190517f3218d4a4052baf7ebe532d40b0baefab665cec1bc99d0c2c219e53b063655e41945061079c9392913391616a09565b604080516060810182525f80825260208201819052918101919091526002612b9c565b60075460208201516040517f7acff6b70000000000000000000000000000000000000000000000000000000081526001600160a01b0391821660048201525f929190911690637acff6b790602401602060405180830381865afa158015613af4573d5f803e3d5ffd5b505050506040513d601f19601f82011682018060405250810190613b18919061697c565b6001600160a01b031603613b58576040517faeb8392500000000000000000000000000000000000000000000000000000000815260040160405180910390fd5b6005546020820151825160408085015190517f306a43c40000000000000000000000000000000000000000000000000000000081526001600160a01b0393841660048201529183166024830152336044830152606482015291169063306a43c4906084015f604051808303815f87803b158015613bd3575f80fd5b505af1158015613be5573d5f803e3d5ffd5b5050505060208101516040820151613c00918491600161500e565b336001600160a01b0316815f01516001600160a01b031682602001516001600160a01b03167f17801e93e5eaa1f51f411ab04320c082d34b9c71cd2e5ff2aa31a8b77326d6238460400151604051613c5a91815260200190565b60405180910390a45050565b604080516060810182525f80825260208201819052918101919091526003612b9c565b805133906001600160a01b0381168214801590613ccb57506001600160a01b038082165f9081526010602090815260408083209386168352929052205460ff16155b15613ce95760405163ea8e4eb560e01b815260040160405180910390fd5b60208301516040840151613cff9186915f61500e565b6005546020840151845160408087015190517f877e4ee20000000000000000000000000000000000000000000000000000000081526001600160a01b0393841660048201529183166024830152336044830152606482015291169063877e4ee2906084015f604051808303815f87803b158015613d7a575f80fd5b505af1158015613d8c573d5f803e3d5ffd5b50505050336001600160a01b0316835f01516001600160a01b031684602001516001600160a01b03167f21008eb87e6ba81010b3730db8adddd84c1d77e9f80487310e41f8bbc16bcdc58660400151604051613dea91815260200190565b60405180910390a450505050565b6040805160c0810182525f80825260208201819052918101829052606081018290526080810182905260a0810191909152600682516007811115613e3e57613e3e615fa3565b14613e5c57604051630252f18b60e31b815260040160405180910390fd5b60208201516001600160a01b0316613e87576040516349e27cff60e01b815260040160405180910390fd5b5f805f808560800151806020019051810190613ea39190616a46565b93509350935093506040518060c0016040528087602001516001600160a01b03168152602001856001600160a01b03168152602001846001600160a01b0316815260200187606001518152602001838152602001821515815250945050505050919050565b60045481516001600160a01b03918216911603613f51576040517f997d5d4a00000000000000000000000000000000000000000000000000000000815260040160405180910390fd5b60055481516040517f0eb9af380000000000000000000000000000000000000000000000000000000081526001600160a01b0391821660048201525f929190911690630eb9af389060240161060060405180830381865afa158015613fb8573d5f803e3d5ffd5b505050506040513d601f19601f82011682018060405250810190613fdc9190616851565b60075460808401516040517f1281c3140000000000000000000000000000000000000000000000000000000081529293506001600160a01b0390911691631281c3149161402e91859190600401616a98565b602060405180830381865afa158015614049573d5f803e3d5ffd5b505050506040513d601f19601f8201168201806040525081019061406d91906164bc565b6140a3576040517f791b3ae300000000000000000000000000000000000000000000000000000000815260040160405180910390fd5b6007546003546001546040516341976e0960e01b81526001600160a01b03620100009092048216600482015292811692637a0340af92859216906341976e0990602401602060405180830381865afa158015614101573d5f803e3d5ffd5b505050506040513d601f19601f820116820180604052508101906141259190615f43565b6040518363ffffffff1660e01b8152600401614142929190616a98565b602060405180830381865afa15801561415d573d5f803e3d5ffd5b505050506040513d601f19601f8201168201806040525081019061418191906164bc565b156141b8576040517f069336f800000000000000000000000000000000000000000000000000000000815260040160405180910390fd5b5f6141d0836020015183614c3790919063ffffffff16565b6020015190505f811315614210576040517ffe6b79da00000000000000000000000000000000000000000000000000000000815260040160405180910390fd5b600261421b82612566565b6142259190616ab5565b83606001511115614262576040517f8887cdda00000000000000000000000000000000000000000000000000000000815260040160405180910390fd5b60055460208401516040516325bc54e960e11b81526001600160a01b0391821660048201525f9283921690634b78a9d2906024016020604051808303815f875af11580156142b2573d5f803e3d5ffd5b505050506040513d601f19601f820116820180604052508101906142d69190615f43565b90506142e685602001518261111c565b600554602087015160608801516040517fabdf25690000000000000000000000000000000000000000000000000000000081526001600160a01b039283166004820152336024820152604481019190915292945016915063abdf2569906064015f604051808303815f87803b15801561435d575f80fd5b505af115801561436f573d5f803e3d5ffd5b505050506020840151606085015161438a91859160016150e4565b5f808560a001511561463f5760055460408781015190516325bc54e960e11b81526001600160a01b039182166004820152911690634b78a9d2906024016020604051808303815f875af11580156143e3573d5f803e3d5ffd5b505050506040513d601f19601f820116820180604052508101906144079190615f43565b505f670de0b6b3a76400008760600151856144229190616ad4565b61442c9190616ab5565b60035460408981015190516341976e0960e01b81526001600160a01b0391821660048201529293505f929116906341976e0990602401602060405180830381865afa15801561447d573d5f803e3d5ffd5b505050506040513d601f19601f820116820180604052508101906144a19190615f43565b9050806144b6670de0b6b3a764000084616ad4565b6144c09190616ab5565b60408901519094506144d591508790856151f0565b6020808801516001600160a01b03165f908152600f9091526040902054670de0b6b3a7640000906145069085616ad4565b6145109190616ab5565b91508115614590576004805460055460408a810151905163257bf7b160e01b81526001600160a01b039283169481019490945281166024840152604483018590525f6064840152169063257bf7b1906084015f604051808303815f87803b158015614579575f80fd5b505af115801561458b573d5f803e3d5ffd5b505050505b6020808801516001600160a01b03165f908152600f9091526040812054670de0b6b3a7640000906145c19084616ad4565b6145cb9190616ab5565b90508015614638576004805489516040516303630fb360e01b81526001600160a01b03918216938101939093526024830184905216906303630fb3906044015f604051808303815f87803b158015614621575f80fd5b505af1158015614633573d5f803e3d5ffd5b505050505b5050614940565b5f670de0b6b3a76400008760600151856146599190616ad4565b6146639190616ab5565b60025460408901519192505f916001600160a01b039081169116146146f75760035460408981015190516341976e0960e01b81526001600160a01b0391821660048201529116906341976e0990602401602060405180830381865afa1580156146ce573d5f803e3d5ffd5b505050506040513d601f19601f820116820180604052508101906146f29190615f43565b614701565b670de0b6b3a76400005b90505f81614717670de0b6b3a764000085616ad4565b6147219190616ab5565b6040808b015190517f5ad0c72a000000000000000000000000000000000000000000000000000000008152600481018390526001600160a01b03909116602482015290915073__$faf868423ddbcc634cdce9c386a9da8ad1$__90635ad0c72a90604401602060405180830381865af41580156147a0573d5f803e3d5ffd5b505050506040513d601f19601f820116820180604052508101906147c49190615f43565b60408a01519095506147da925088915085614b93565b6020808801516001600160a01b03165f908152600f9091526040902054670de0b6b3a76400009061480b9085616ad4565b6148159190616ab5565b91508115614895576004805460055460408a810151905163257bf7b160e01b81526001600160a01b039283169481019490945281166024840152604483018590525f6064840152169063257bf7b1906084015f604051808303815f87803b15801561487e575f80fd5b505af1158015614890573d5f803e3d5ffd5b505050505b6020808801516001600160a01b03165f908152600f9091526040812054670de0b6b3a7640000906148c69084616ad4565b6148d09190616ab5565b9050801561493d576004805489516040516303630fb360e01b81526001600160a01b03918216938101939093526024830184905216906303630fb3906044015f604051808303815f87803b158015614926575f80fd5b505af1158015614938573d5f803e3d5ffd5b505050505b50505b60055486516040517fa8eea6780000000000000000000000000000000000000000000000000000000081526001600160a01b039092169163a8eea6789161498b918990600401616648565b5f604051808303815f87803b1580156149a2575f80fd5b505af11580156149b4573d5f803e3d5ffd5b505060055460408901516001600160a01b03909116925063453cf4bd9150336149dd8587616969565b6040516001600160e01b031960e086901b1681526001600160a01b03938416600482015292909116602483015260448201526064015f604051808303815f87803b158015614a29575f80fd5b505af1158015614a3b573d5f803e3d5ffd5b5050505085602001516001600160a01b0316865f01516001600160a01b0316336001600160a01b03167f10b3af9a85895c2ede39c1c36f62341b1f82ad39e34c7c3fb23ff78514bdde1c89606001518a604001518787604051614ac094939291909384526001600160a01b039290921660208401526040830152606082015260800190565b60405180910390a4505050505050565b805182515f911280614ae9575060208083015190840151135b806106855750506040908101519101511390565b80825d5050565b805f03614b245760405163162908e360e11b815260040160405180910390fd5b6001600160a01b038216614b4b5760405163e6c4247b60e01b815260040160405180910390fd5b5f614b5684846152b4565b905080602001515f03614b70576001600160a01b03831681525b614b79826117ce565b81602001818151614b8a919061649d565b90525050505050565b6001600160a01b038216614bba5760405163e6c4247b60e01b815260040160405180910390fd5b5f614bc584846152b4565b9050614bd0826117ce565b81602001818151614be19190616aeb565b90525060208101515f1315614c22576040517ffbd85bc300000000000000000000000000000000000000000000000000000000815260040160405180910390fd5b80602001515f03610ee357610ee384826153d3565b604080518082019091525f8082526020820152825151516001600160a01b03161580614c715750825151516001600160a01b038381169116145b15614c865782515f5b60200201519050610e4b565b604080518082019091525f808252602082015260015b6004811015614d2b5784516001600160a01b038516908260048110614cc357614cc3616666565b6020020151516001600160a01b03161480614cff575084515f908260048110614cee57614cee616666565b6020020151516001600160a01b0316145b15614d235784518160048110614d1757614d17616666565b60200201519150614d2b565b600101614c9c565b60048103614d4b576040516289ff2560e61b815260040160405180910390fd5b509392505050565b6001600160a01b0384165f908152600d602052604081205481908190869082908190801580614d9457505f89138015614d945750614d9089612097565b8a11155b15614da6575091945092509050614ef0565b5f891315614dc457614db789612097565b614dc1908b616969565b99505b6005546040517fb263e0100000000000000000000000000000000000000000000000000000000081526001600160a01b038d8116600483015273__$7ecd13e275dd667debb3e0fe1bdf63d3d5$__9263a5bb788f928e929091169063b263e01090602401602060405180830381865afa158015614e43573d5f803e3d5ffd5b505050506040513d601f19601f82011682018060405250810190614e679190615f43565b6040516001600160e01b031960e085901b1681526004810192909252602482015260448101849052606481018b90526084016040805180830381865af4158015614eb3573d5f803e3d5ffd5b505050506040513d601f19601f82011682018060405250810190614ed79190615f5a565b9093509150614ee68285616969565b9650919450925050505b9450945094915050565b805f03614f1a5760405163162908e360e11b815260040160405180910390fd5b6001600160a01b038216614f415760405163e6c4247b60e01b815260040160405180910390fd5b5f614f4c8484614c37565b9050614f57826117ce565b81602001818151614f689190616aeb565b905250602081015115614f965780516001600160a01b0316614f91576001600160a01b03831681525b610ee3565b610ee38482615579565b805f03614fc05760405163162908e360e11b815260040160405180910390fd5b6001600160a01b038216614fe75760405163e6c4247b60e01b815260040160405180910390fd5b5f614ff28484614c37565b9050614ffd826117ce565b81602001818151614f68919061649d565b6001600160a01b0383166150355760405163e6c4247b60e01b815260040160405180910390fd5b5f6150418585856156d9565b80519091506001600160a01b03166150a2578161508a576040517f112cf55800000000000000000000000000000000000000000000000000000000815260040160405180910390fd5b6001600160a01b038416815260208101839052610894565b81156150da576040517f112cf55800000000000000000000000000000000000000000000000000000000815260040160405180910390fd5b6108948582615839565b6001600160a01b03831661510b5760405163e6c4247b60e01b815260040160405180910390fd5b815f0361512b5760405163162908e360e11b815260040160405180910390fd5b5f6151368585614c37565b9050615141836117ce565b81602001818151615152919061649d565b905250811561519d575f816020015112615198576040517fad5cd32500000000000000000000000000000000000000000000000000000000815260040160405180910390fd5b610894565b5f816020015113156151db576040517fb4d491b100000000000000000000000000000000000000000000000000000000815260040160405180910390fd5b80602001515f03610894576108948582615579565b6001600160a01b0382166152175760405163e6c4247b60e01b815260040160405180910390fd5b805f036152375760405163162908e360e11b815260040160405180910390fd5b5f6152428484614c37565b905061524d826117ce565b8160200181815161525e9190616aeb565b90525060208101515f131561529f576040517f2eb3107700000000000000000000000000000000000000000000000000000000815260040160405180910390fd5b80602001515f03610ee357610ee38482615579565b604080518082019091525f80825260208083019190915283015151516001600160a01b031615806152f65750602083015151516001600160a01b038381169116145b156153065760208301515f614c7a565b604080518082019091525f808252602082015260015b600a8110156153b357836001600160a01b0316856020015182600a811061534557615345616666565b6020020151516001600160a01b03161480615384575060208501515f9082600a811061537357615373616666565b6020020151516001600160a01b0316145b156153ab57846020015181600a811061539f5761539f616666565b602002015191506153b3565b60010161531c565b600a8103614d4b576040516289ff2560e61b815260040160405180910390fd5b5f6153e06001600a616969565b90505f5b600a811015610ee357825f01516001600160a01b0316846020015182600a811061541057615410616666565b6020020151516001600160a01b031603615571578181146154ba575f846020015183600a811061544257615442616666565b602002015180519091506001600160a01b03166154b8575f615465600185616969565b90505b828111156154b65760208601515f9082600a811061548857615488616666565b6020020151516001600160a01b0316146154a4578093506154b6565b806154ae81616b11565b915050615468565b505b505b836020015181600a81106154d0576154d0616666565b6020020151846020015183600a81106154eb576154eb616666565b6020020151856020015184600a811061550657615506616666565b60200201866020015184600a811061552057615520616666565b602002018290528290525050836020015182600a811061554257615542616666565b6020020161556a60405180604001604052805f6001600160a01b031681526020015f81525090565b9052610ee3565b6001016153e4565b5f61558660016004616969565b90505f5b6004811015610ee357825184516001600160a01b039091169082600481106155b4576155b4616666565b6020020151516001600160a01b0316036156d1578181146156595783515f9083600481106155e4576155e4616666565b602002015180519091506001600160a01b0316615657575f615607600185616969565b90505b828111156156555785515f90826004811061562757615627616666565b6020020151516001600160a01b03161461564357809350615655565b8061564d81616b11565b91505061560a565b505b505b8351816004811061566c5761566c616666565b60200201518451836004811061568457615684616666565b60200201518551846004811061569c5761569c616666565b60200201865f015184600481106156b5576156b5616666565b6020020191909152528351826004811061554257615542616666565b60010161558a565b6040805180820182525f80825260208201529084015151516001600160a01b0316158061572a5750604084015151516001600160a01b03848116911614801561572a57506040840151516020015182145b1561573b5750604083015151610685565b604080518082019091525f808252602082015260015b600a8110156158105760408601515f9082600a811061577257615772616666565b6020020151516001600160a01b031614806157e15750846001600160a01b0316866040015182600a81106157a8576157a8616666565b6020020151516001600160a01b03161480156157e1575083866040015182600a81106157d6576157d6616666565b602002015160200151145b1561580857856040015181600a81106157fc576157fc616666565b60200201519150615810565b600101615751565b600a8103615830576040516289ff2560e61b815260040160405180910390fd5b50949350505050565b5f6158466001600a616969565b90505f5b600a811015610ee357825f01516001600160a01b0316846040015182600a811061587657615876616666565b6020020151516001600160a01b03161480156158b357508260200151846040015182600a81106158a8576158a8616666565b602002015160200151145b156159d35781811461594e575f846040015183600a81106158d6576158d6616666565b602002015180519091506001600160a01b031661594c575f6158f9600185616969565b90505b8281111561594a5760408601515f9082600a811061591c5761591c616666565b6020020151516001600160a01b0316146159385780935061594a565b8061594281616b11565b9150506158fc565b505b505b836040015181600a811061596457615964616666565b6020020151846040015183600a811061597f5761597f616666565b6020020151856040015184600a811061599a5761599a616666565b60200201866040015184600a81106159b4576159b4616666565b602002019190915252604084015182600a811061554257615542616666565b60010161584a565b6040518061014001604052805f81526020015f81526020015f81526020015f8152602001615a07615a79565b8152602001615a14615a79565b8152602001615a21615a79565b8152602001615a2e615a79565b8152602001615a3b615a97565b81526020015f81525090565b6040518060600160405280615a5a615ab5565b8152602001615a67615aed565b8152602001615a74615aed565b905290565b60405180606001604052806003906020820280368337509192915050565b60405180604001604052806002906020820280368337509192915050565b60405180608001604052806004905b604080518082019091525f8082526020820152815260200190600190039081615ac45790505090565b6040805161018081019091525f61014082018181526101608301919091528152600960208201615ac4565b6001600160a01b0381168114611119575f80fd5b5f60208284031215615b3c575f80fd5b813561068581615b18565b5f8060408385031215615b58575f80fd5b8235615b6381615b18565b91506020830135615b7381615b18565b809150509250929050565b5f8060408385031215615b8f575f80fd5b8235615b9a81615b18565b946020939093013593505050565b5f8083601f840112615bb8575f80fd5b50813567ffffffffffffffff811115615bcf575f80fd5b6020830191508360208260051b8501011115615be9575f80fd5b9250929050565b5f805f60408486031215615c02575f80fd5b833567ffffffffffffffff811115615c18575f80fd5b615c2486828701615ba8565b909790965060209590950135949350505050565b5f805f8060808587031215615c4b575f80fd5b8435615c5681615b18565b93506020850135615c6681615b18565b93969395505050506040820135916060013590565b8015158114611119575f80fd5b5f8060408385031215615c99575f80fd5b8235615ca481615b18565b91506020830135615b7381615c7b565b5f805f60608486031215615cc6575f80fd5b8335615cd181615b18565b92506020840135615ce181615b18565b91506040840135615cf181615b18565b809150509250925092565b5f60208284031215615d0c575f80fd5b5035919050565b5f805f805f8060c08789031215615d28575f80fd5b8635615d3381615b18565b95506020870135615d4381615b18565b94506040870135615d5381615b18565b93506060870135615d6381615b18565b92506080870135615d7381615b18565b915060a0870135615d8381615b18565b809150509295509295509295565b5f8060208385031215615da2575f80fd5b823567ffffffffffffffff811115615db8575f80fd5b615dc485828601615ba8565b90969095509350505050565b805f5b6003811015610ee3578151845260209384019390910190600101615dd3565b805f5b6002811015610ee3578151845260209384019390910190600101615df5565b805182526020810151602083015260408101516040830152606081015160608301526080810151615e486080840182615dd0565b5060a0810151615e5b60e0840182615dd0565b5060c0810151615e6f610140840182615dd0565b5060e0810151615e836101a0840182615dd0565b50610100810151615e98610200840182615df2565b5061012001516102409190910152565b6102608101610e4b8284615e14565b5f805f805f8587036102a0811215615ecd575f80fd5b863567ffffffffffffffff80821115615ee4575f80fd5b615ef08a838b01615ba8565b9098509650869150610260601f1984011215615f0a575f80fd5b602089019550610280890135925080831115615f24575f80fd5b5050615f3288828901615ba8565b969995985093965092949392505050565b5f60208284031215615f53575f80fd5b5051919050565b5f8060408385031215615f6b575f80fd5b505080516020909101519092909150565b634e487b7160e01b5f52604160045260245ffd5b803560088110615f9e575f80fd5b919050565b634e487b7160e01b5f52602160045260245ffd5b5f8083357fffffffffffffffffffffffffffffffffffffffffffffffffffffffffffffffe1843603018112615fea575f80fd5b830160208101925035905067ffffffffffffffff811115616009575f80fd5b803603821315615be9575f80fd5b81835281816020850137505f602082840101525f6020601f19601f840116840101905092915050565b60208082528181018390525f906040808401600586901b8501820187855b88811015616141577fffffffffffffffffffffffffffffffffffffffffffffffffffffffffffffffc08884030184528135609e198b36030181126160a0575f80fd5b8a0160a06160ad82615f90565b600881106160c957634e487b7160e01b5f52602160045260245ffd5b8552818801356160d881615b18565b6001600160a01b031685890152818701356160f281615b18565b6001600160a01b03168786015260608281013590860152608061611781840184615fb7565b9350828288015261612b8388018583616017565b978a01979650505092870192505060010161605e565b509098975050505050505050565b5f5b83811015616169578181015183820152602001616151565b50505f910152565b5f825161618281846020870161614f565b9190910192915050565b604051610140810167ffffffffffffffff811182821017156161b0576161b0615f7c565b60405290565b60405160a0810167ffffffffffffffff811182821017156161b0576161b0615f7c565b6040805190810167ffffffffffffffff811182821017156161b0576161b0615f7c565b6040516060810167ffffffffffffffff811182821017156161b0576161b0615f7c565b604051601f8201601f1916810167ffffffffffffffff8111828210171561624857616248615f7c565b604052919050565b5f82601f83011261625f575f80fd5b6162676161fc565b806060840185811115616278575f80fd5b845b8181101561629257805184526020938401930161627a565b509095945050505050565b5f82601f8301126162ac575f80fd5b6162b46161d9565b806040840185811115616278575f80fd5b5f61026082840312156162d6575f80fd5b6162de61618c565b8251815260208301516020820152604083015160408201526060830151606082015261630d8460808501616250565b608082015261631f8460e08501616250565b60a0820152616332846101408501616250565b60c0820152616345846101a08501616250565b60e082015261635884610200850161629d565b610100820152610240929092015161012083015250919050565b5f82601f830112616381575f80fd5b6163896161fc565b80606084018581111561639a575f80fd5b845b8181101561629257803584526020938401930161639c565b5f82601f8301126163c3575f80fd5b6163cb6161d9565b80604084018581111561639a575f80fd5b5f61026082840312156163ed575f80fd5b6163f561618c565b823581526020830135602082015260408301356040820152606083013560608201526164248460808501616372565b60808201526164368460e08501616372565b60a0820152616449846101408501616372565b60c082015261645c846101a08501616372565b60e082015261646f8461020085016163b4565b610100820152610240929092013561012083015250919050565b634e487b7160e01b5f52601160045260245ffd5b8082018281125f83128015821682158216171561208f5761208f616489565b5f602082840312156164cc575f80fd5b815161068581615c7b565b8051825f5b600481101561651057825180516001600160a01b0316835260209081015181840152909201916040909101906001016164dc565b50505060208082015161010084015f5b600a81101561655457825180516001600160a01b031683526020908101519083015260408201928401929150600101616520565b50505060408083015161038085015f5b600a81101561659357825180516001600160a01b03168352850151858301529184019190830190600101616564565b50505050505050565b6106008101610e4b82846164d7565b61028080825283519082018190525f906102a0830190602090818701845b828110156166075781517fffffffffffffffffffffffffffffffff0000000000000000000000000000000016855293830193908301906001016165c9565b50505050809150506106856020830184615e14565b5f806040838503121561662d575f80fd5b825161663881615c7b565b6020939093015192949293505050565b6001600160a01b0383168152610620810161068560208301846164d7565b634e487b7160e01b5f52603260045260245ffd5b5f8235609e19833603018112616182575f80fd5b5f60a0823603121561669e575f80fd5b6166a66161b6565b6166af83615f90565b81526020808401356166c081615b18565b8282015260408401356166d281615b18565b604083015260608481013590830152608084013567ffffffffffffffff808211156166fb575f80fd5b9085019036601f83011261670d575f80fd5b81358181111561671f5761671f615f7c565b61673184601f19601f8401160161621f565b91508082523684828501011115616746575f80fd5b80848401858401375f9082019093019290925250608082015292915050565b5f60408284031215616775575f80fd5b61677d6161d9565b9050815161678a81615b18565b808252506020820151602082015292915050565b5f604080516080810181811067ffffffffffffffff821117156167c3576167c3615f7c565b6040529150816101008401858111156167da575f80fd5b845b818110156167fd576167ee8782616765565b835260209092019183016167dc565b5050505092915050565b5f61681061618c565b905080610280830184811115616824575f80fd5b835b81811015616848576168388682616765565b8352602090920191604001616826565b50505092915050565b5f610600808385031215616863575f80fd5b61686b6161fc565b84601f850112616879575f80fd5b616883858561679e565b81528461011f850112616894575f80fd5b6168a2856101008601616807565b60208160208401528661039f8701126168b9575f80fd5b6168c161618c565b93860193915081878511156168d4575f80fd5b61038087015b8581101561691c576040818a0312156168f1575f80fd5b6168f96161d9565b815161690481615b18565b815281840151848201528452928201926040016168da565b506040840152509095945050505050565b634e487b7160e01b5f52601260045260245ffd5b60018110611119575f80fd5b5f806040838503121561695e575f80fd5b825161663881616941565b81810381811115610e4b57610e4b616489565b5f6020828403121561698c575f80fd5b815161068581615b18565b80820180821115610e4b57610e4b616489565b5f81518084526169c181602086016020860161614f565b601f01601f19169290920160200192915050565b5f6001600160a01b03808616835280851660208401525060606040830152616a0060608301846169aa565b95945050505050565b5f6001600160a01b038087168352808616602084015280851660408401525060806060830152616a3c60808301846169aa565b9695505050505050565b5f805f8060808587031215616a59575f80fd5b8451616a6481615b18565b6020860151909450616a7581615b18565b604086015160608701519194509250616a8d81615c7b565b939692955090935050565b6106208101616aa782856164d7565b826106008301529392505050565b5f82616acf57634e487b7160e01b5f52601260045260245ffd5b500490565b8082028115828204841417610e4b57610e4b616489565b8181035f831280158383131683831282161715616b0a57616b0a616489565b5092915050565b5f81616b1f57616b1f616489565b507fffffffffffffffffffffffffffffffffffffffffffffffffffffffffffffffff019056fea2646970667358221220275b7f24894a2474910782cd383cfa798f4f5f9ccee2a1918e193453434ed82f64736f6c63430008180033","linkReferences":{"src/core/lib/FeeLib.sol":{"FeeLib":[{"start":7619,"length":20},{"start":20001,"length":20}]},"src/core/lib/LiquidationLib.sol":{"LiquidationLib":[{"start":4942,"length":20},{"start":5221,"length":20},{"start":5470,"length":20},{"start":5749,"length":20},{"start":18314,"length":20}]}}},"methodIdentifiers":{"__Controller_init(address,address,address)":"70d1c22f","execute((uint8,address,address,uint256,bytes)[],(int256,int256,int256,int256,int256[3],int256[3],int256[3],int256[3],int256[2],uint256),bytes16[])":"ef5cd7a8","execute((uint8,address,address,uint256,bytes)[],uint256)":"5dc1e4e6","executeSpanSim((uint8,address,address,uint256,bytes)[])":"c9e25028","feeOnFunding(address)":"9d1d31ff","feeOnLiquidation(address)":"128eccc0","feeOnShortPowerPerp(address)":"7e520a6d","getCurrentNormalizationFactor(address)":"5b50b37c","getFeeOnFunding(address,address,uint256,int256)":"630687cb","getPerpLastUpdateTimestampByVault(address,address)":"ab808c57","getPerpPriceInLiquidation(address)":"2b44b99a","getUnderlyingAssetPriceLookup(uint256)":"7a2c8439","init(address,address,address,address,address,address)":"99e133f9","isShutdown()":"bf86d690","liquidationPenaltyInFunding(address)":"e63f3cc6","liquidationPenaltyInVol(address)":"1d8866b6","operators(address,address)":"2637588e","oracle()":"7dc0d1d0","owner()":"8da5cb5b","powerPerpFactory()":"123430db","protocolNumeraireAsset()":"af30b56c","protocolUnderlyingAsset()":"ae749a49","renounceOwnership()":"715018a6","safetyPool()":"913e2c79","setFeeOnFunding(address,uint256)":"62a12320","setFeeOnLiquidation(address,uint256)":"e6096c5a","setFeeOnShortPowerPerp(address,uint256)":"c3b2532f","setIsShutdown()":"79acb1dc","setLiquidationPenaltyInFunding(address,uint256)":"3773930f","setLiquidationPenaltyInVol(address,int256)":"eb3cac78","shutdown()":"fc0e74d1","simulateExecute((uint8,address,address,uint256,bytes)[])":"9f0bcef9","spanMargin()":"2d01edcd","transferOwnership(address)":"f2fde38b","updateOperator(address,bool)":"6d44a3b2","vault()":"fbfa77cf"},"id":103}