{"abi":[{"type":"constructor","inputs":[{"name":"_params","type":"tuple","internalType":"struct DeployFactoryParams","components":[{"name":"factoryDeployer","type":"address","internalType":"address"},{"name":"uniswapFactory","type":"address","internalType":"address"},{"name":"uniswapPositionManager","type":"address","internalType":"address"},{"name":"uniswapRouterV1","type":"address","internalType":"address"},{"name":"uniswapQuoterV2","type":"address","internalType":"address"},{"name":"chainlinkSequencerFeed","type":"address","internalType":"address"},{"name":"pyth","type":"address","internalType":"address"},{"name":"cloneImplementationOracle","type":"address","internalType":"address"},{"name":"cloneImplementationController","type":"address","internalType":"address"},{"name":"cloneImplementationSpanMargin","type":"address","internalType":"address"},{"name":"cloneImplementationAuction","type":"address","internalType":"address"},{"name":"cloneImplementationRedemption","type":"address","internalType":"address"},{"name":"cloneImplementationShutdown","type":"address","internalType":"address"},{"name":"cloneImplementationVaultManager","type":"address","internalType":"address"},{"name":"cloneImplementationPowerPerpFactory","type":"address","internalType":"address"},{"name":"cloneImplementationPowerPerp","type":"address","internalType":"address"},{"name":"cloneImplementationSafetyPool","type":"address","internalType":"address"},{"name":"cloneImplementationSafetyPoolAuction","type":"address","internalType":"address"},{"name":"cloneImplementationSafetyPoolLiquidation","type":"address","internalType":"address"},{"name":"cloneImplementationStrategy","type":"address","internalType":"address"},{"name":"cloneImplementationAssetChainlinkPriceAdapter","type":"address","internalType":"address"},{"name":"cloneImplementationAssetNumeraireChainlinkPriceAdapter","type":"address","internalType":"address"},{"name":"cloneImplementationAssetNumerairePythPriceAdapter","type":"address","internalType":"address"},{"name":"cloneImplementationAssetNumeraireChainlinkUniswapPriceAdapter","type":"address","internalType":"address"},{"name":"cloneImplementationAssetNumerairePythUniswapPriceAdapter","type":"address","internalType":"address"},{"name":"cloneImplementationAssetNumeraireUniswapPriceAdapter","type":"address","internalType":"address"},{"name":"cloneImplementationAssetPythPriceAdapter","type":"address","internalType":"address"},{"name":"cloneImplementationFloPriceAdapter","type":"address","internalType":"address"},{"name":"cloneImplementationHalfCrabPriceAdapter","type":"address","internalType":"address"},{"name":"cloneImplementationHalfPerpPriceAdapter","type":"address","internalType":"address"},{"name":"cloneImplementationFixedPriceAdapter","type":"address","internalType":"address"},{"name":"cloneImplementationOnePerpPriceAdapter","type":"address","internalType":"address"},{"name":"cloneImplementationTwoCrabPriceAdapter","type":"address","internalType":"address"},{"name":"cloneImplementationTwoPerpPriceAdapter","type":"address","internalType":"address"},{"name":"cloneImplementationWstEthNumerairePriceAdapter","type":"address","internalType":"address"},{"name":"cloneImplementationZeroPerpPriceAdapter","type":"address","internalType":"address"},{"name":"cloneImplementationFloEngine","type":"address","internalType":"address"},{"name":"cloneImplementationStrategyEngine","type":"address","internalType":"address"},{"name":"cloneImplementationNumeraireAssetEngine","type":"address","internalType":"address"},{"name":"cloneImplementationProtocolAssetEngine","type":"address","internalType":"address"},{"name":"cloneImplementationWstEthEngine","type":"address","internalType":"address"},{"name":"cloneImplementationAssetNumeraireLpEngine","type":"address","internalType":"address"},{"name":"cloneImplementationHalfCrabNumeraireLpEngine","type":"address","internalType":"address"},{"name":"cloneImplementationOnePerpAssetLpEngine","type":"address","internalType":"address"},{"name":"cloneImplementationTwoCrabNumeraireLpEngine","type":"address","internalType":"address"},{"name":"cloneImplementationUniswapV3LpEngine","type":"address","internalType":"address"},{"name":"cloneImplementationZeroPerpNumeraireLpEngine","type":"address","internalType":"address"},{"name":"cloneImplementationUniV3NonFungibleAssetHandler","type":"address","internalType":"address"},{"name":"cloneImplementationFlo","type":"address","internalType":"address"},{"name":"cloneImplementationDepositManager","type":"address","internalType":"address"},{"name":"cloneImplementationRebalanceManager","type":"address","internalType":"address"},{"name":"cloneImplementationCrabWorld","type":"address","internalType":"address"}]}],"stateMutability":"nonpayable"},{"type":"function","name":"_checkDeploymentParams","inputs":[{"name":"_params","type":"tuple","internalType":"struct DeployMarketParams","components":[{"name":"protocolAsset","type":"address","internalType":"address"},{"name":"protocolNumeraire","type":"address","internalType":"address"},{"name":"lowerSpanShock","type":"int256","internalType":"int256"},{"name":"upperSpanShock","type":"int256","internalType":"int256"},{"name":"lowerCarry","type":"tuple","internalType":"struct Carry","components":[{"name":"zeroPerpCarry","type":"int256","internalType":"int256"},{"name":"halfPerpCarry","type":"int256","internalType":"int256"},{"name":"onePerpCarry","type":"int256","internalType":"int256"},{"name":"twoPerpCarry","type":"int256","internalType":"int256"}]},{"name":"upperCarry","type":"tuple","internalType":"struct Carry","components":[{"name":"zeroPerpCarry","type":"int256","internalType":"int256"},{"name":"halfPerpCarry","type":"int256","internalType":"int256"},{"name":"onePerpCarry","type":"int256","internalType":"int256"},{"name":"twoPerpCarry","type":"int256","internalType":"int256"}]},{"name":"initialCarry","type":"tuple","internalType":"struct Carry","components":[{"name":"zeroPerpCarry","type":"int256","internalType":"int256"},{"name":"halfPerpCarry","type":"int256","internalType":"int256"},{"name":"onePerpCarry","type":"int256","internalType":"int256"},{"name":"twoPerpCarry","type":"int256","internalType":"int256"}]},{"name":"uniswapFee","type":"uint24","internalType":"uint24"},{"name":"oracleId","type":"uint8","internalType":"uint8"},{"name":"numeraireUsdOverrideForUniswapDeployments","type":"uint256","internalType":"uint256"}]}],"outputs":[],"stateMutability":"view"},{"type":"function","name":"deployMarket","inputs":[{"name":"_params","type":"tuple","internalType":"struct DeployMarketParams","components":[{"name":"protocolAsset","type":"address","internalType":"address"},{"name":"protocolNumeraire","type":"address","internalType":"address"},{"name":"lowerSpanShock","type":"int256","internalType":"int256"},{"name":"upperSpanShock","type":"int256","internalType":"int256"},{"name":"lowerCarry","type":"tuple","internalType":"struct Carry","components":[{"name":"zeroPerpCarry","type":"int256","internalType":"int256"},{"name":"halfPerpCarry","type":"int256","internalType":"int256"},{"name":"onePerpCarry","type":"int256","internalType":"int256"},{"name":"twoPerpCarry","type":"int256","internalType":"int256"}]},{"name":"upperCarry","type":"tuple","internalType":"struct Carry","components":[{"name":"zeroPerpCarry","type":"int256","internalType":"int256"},{"name":"halfPerpCarry","type":"int256","internalType":"int256"},{"name":"onePerpCarry","type":"int256","internalType":"int256"},{"name":"twoPerpCarry","type":"int256","internalType":"int256"}]},{"name":"initialCarry","type":"tuple","internalType":"struct Carry","components":[{"name":"zeroPerpCarry","type":"int256","internalType":"int256"},{"name":"halfPerpCarry","type":"int256","internalType":"int256"},{"name":"onePerpCarry","type":"int256","internalType":"int256"},{"name":"twoPerpCarry","type":"int256","internalType":"int256"}]},{"name":"uniswapFee","type":"uint24","internalType":"uint24"},{"name":"oracleId","type":"uint8","internalType":"uint8"},{"name":"numeraireUsdOverrideForUniswapDeployments","type":"uint256","internalType":"uint256"}]}],"outputs":[{"name":"","type":"uint256","internalType":"uint256"}],"stateMutability":"nonpayable"},{"type":"function","name":"getInitialCarry","inputs":[{"name":"_marketId","type":"uint256","internalType":"uint256"}],"outputs":[{"name":"","type":"tuple","internalType":"struct InitialPriceState","components":[{"name":"zeroPerpCarry","type":"int64","internalType":"int64"},{"name":"halfPerpCarry","type":"int64","internalType":"int64"},{"name":"onePerpCarry","type":"int64","internalType":"int64"},{"name":"twoPerpCarry","type":"int64","internalType":"int64"},{"name":"zeroPoolSqrtPriceX96","type":"uint160","internalType":"uint160"},{"name":"halfPoolSqrtPriceX96","type":"uint160","internalType":"uint160"},{"name":"onePoolSqrtPriceX96","type":"uint160","internalType":"uint160"},{"name":"twoPoolSqrtPriceX96","type":"uint160","internalType":"uint160"}]}],"stateMutability":"nonpayable"},{"type":"function","name":"marketIdsByController","inputs":[{"name":"","type":"address","internalType":"address"}],"outputs":[{"name":"","type":"uint256","internalType":"uint256"}],"stateMutability":"view"},{"type":"function","name":"marketIdsByDeployer","inputs":[{"name":"","type":"address","internalType":"address"},{"name":"","type":"uint256","internalType":"uint256"}],"outputs":[{"name":"","type":"uint256","internalType":"uint256"}],"stateMutability":"view"},{"type":"function","name":"markets","inputs":[{"name":"","type":"uint256","internalType":"uint256"}],"outputs":[{"name":"deployerAddress","type":"address","internalType":"address"},{"name":"controller","type":"address","internalType":"address"},{"name":"halfCrabStrategy","type":"address","internalType":"address"},{"name":"twoCrabStrategy","type":"address","internalType":"address"},{"name":"crabWorld","type":"address","internalType":"address"},{"name":"auction","type":"address","internalType":"address"},{"name":"stableFlo","type":"address","internalType":"address"},{"name":"assetFlo","type":"address","internalType":"address"},{"name":"initialPriceState","type":"tuple","internalType":"struct InitialPriceState","components":[{"name":"zeroPerpCarry","type":"int64","internalType":"int64"},{"name":"halfPerpCarry","type":"int64","internalType":"int64"},{"name":"onePerpCarry","type":"int64","internalType":"int64"},{"name":"twoPerpCarry","type":"int64","internalType":"int64"},{"name":"zeroPoolSqrtPriceX96","type":"uint160","internalType":"uint160"},{"name":"halfPoolSqrtPriceX96","type":"uint160","internalType":"uint160"},{"name":"onePoolSqrtPriceX96","type":"uint160","internalType":"uint160"},{"name":"twoPoolSqrtPriceX96","type":"uint160","internalType":"uint160"}]}],"stateMutability":"view"},{"type":"function","name":"nextMarketId","inputs":[],"outputs":[{"name":"","type":"uint256","internalType":"uint256"}],"stateMutability":"view"},{"type":"function","name":"owner","inputs":[],"outputs":[{"name":"","type":"address","internalType":"address"}],"stateMutability":"view"},{"type":"function","name":"renounceOwnership","inputs":[],"outputs":[],"stateMutability":"nonpayable"},{"type":"function","name":"setChainlinkFeedAddress","inputs":[{"name":"_token","type":"address","internalType":"address"},{"name":"_feed","type":"address","internalType":"address"}],"outputs":[],"stateMutability":"nonpayable"},{"type":"function","name":"setPythPriceId","inputs":[{"name":"_token","type":"address","internalType":"address"},{"name":"_priceId","type":"bytes32","internalType":"bytes32"}],"outputs":[],"stateMutability":"nonpayable"},{"type":"function","name":"transferOwnership","inputs":[{"name":"newOwner","type":"address","internalType":"address"}],"outputs":[],"stateMutability":"nonpayable"},{"type":"function","name":"uniswapFactory","inputs":[],"outputs":[{"name":"","type":"address","internalType":"address"}],"stateMutability":"view"},{"type":"function","name":"uniswapPositionManager","inputs":[],"outputs":[{"name":"","type":"address","internalType":"address"}],"stateMutability":"view"},{"type":"event","name":"DeployMarket","inputs":[{"name":"deployerAddress","type":"address","indexed":false,"internalType":"address"},{"name":"marketId","type":"uint256","indexed":false,"internalType":"uint256"}],"anonymous":false},{"type":"event","name":"OwnershipTransferred","inputs":[{"name":"previousOwner","type":"address","indexed":true,"internalType":"address"},{"name":"newOwner","type":"address","indexed":true,"internalType":"address"}],"anonymous":false},{"type":"error","name":"DifferentParity","inputs":[]},{"type":"error","name":"ERC1167FailedCreateClone","inputs":[]},{"type":"error","name":"InvalidCarry","inputs":[]},{"type":"error","name":"InvalidLeverage","inputs":[]},{"type":"error","name":"InvalidShock","inputs":[]},{"type":"error","name":"OwnableInvalidOwner","inputs":[{"name":"owner","type":"address","internalType":"address"}]},{"type":"error","name":"OwnableUnauthorizedAccount","inputs":[{"name":"account","type":"address","internalType":"address"}]},{"type":"error","name":"PriceFeedNotSet","inputs":[]}],"bytecode":{"object":"0x60c060405234801562000010575f80fd5b50604051620044ee380380620044ee833981016040819052620000339162000569565b33806200005957604051631e4fbdf760e01b81525f600482015260240160405180910390fd5b6200006481620004c8565b50602081810180516001600160a01b039081166080908152604085018051831660a09081528651600780546001600160a01b0319908116928716929092179055945160088054871691861691909117905590516009805486169185169190911790556060860151600a8054861691851691909117905590850151600b80548516918416919091179055840151600c8054841691831691909117905560c0840151600d8054841691831691909117905560e0840151600e80548416918316919091179055610100840151600f805484169183169190911790556101208401516010805484169183169190911790556101408401516011805484169183169190911790556101608401516012805484169183169190911790556101808401516013805484169183169190911790556101a08401516014805484169183169190911790556101c08401516015805484169183169190911790556101e0840151601680548416918316919091179055610200840151601780548416918316919091179055610220840151601880548416918316919091179055610240840151601980548416918316919091179055610260840151601a80548416918316919091179055610280840151601b805484169183169190911790556102a0840151601c805484169183169190911790556102c0840151601d805484169183169190911790556102e0840151601e80548416918316919091179055610300840151601f8054841691831691909117905561032084015183548316908216179092556103408301516021805483169184169190911790556103608301516022805483169184169190911790556103808301516023805483169184169190911790556103a08301516024805483169184169190911790556103c08301516025805483169184169190911790556103e0830151602680548316918416919091179055610400830151602780548316918416919091179055610420830151602880548316918416919091179055610440830151602980548316918416919091179055610460830151602a80548316918416919091179055610480830151602b805483169184169190911790556104a0830151602c805483169184169190911790556104c0830151602d805483169184169190911790556104e0830151602e80548316918416919091179055610500830151602f805483169184169190911790556105208301516030805483169184169190911790556105408301516031805483169184169190911790556105608301516032805483169184169190911790556105808301516033805483169184169190911790556105a08301516034805483169184169190911790556105c08301516035805483169184169190911790556105e083015160368054831691841691909117905561060083015160378054831691841691909117905561062083015160388054831691841691909117905561064083015160398054831691841691909117905561066090920151603a8054909316911617905560016004556200098e565b5f80546001600160a01b038381166001600160a01b0319831681178455604051919092169283917f8be0079c531659141344cd1fd0a4f28419497f9722a3daafe3b4186f6b6457e09190a35050565b60405161068081016001600160401b03811182821017156200054757634e487b7160e01b5f52604160045260245ffd5b60405290565b80516001600160a01b038116811462000564575f80fd5b919050565b5f61068082840312156200057b575f80fd5b6200058562000517565b62000590836200054d565b8152620005a0602084016200054d565b6020820152620005b3604084016200054d565b6040820152620005c6606084016200054d565b6060820152620005d9608084016200054d565b6080820152620005ec60a084016200054d565b60a0820152620005ff60c084016200054d565b60c08201526200061260e084016200054d565b60e0820152610100620006278185016200054d565b908201526101206200063b8482016200054d565b908201526101406200064f8482016200054d565b90820152610160620006638482016200054d565b90820152610180620006778482016200054d565b908201526101a06200068b8482016200054d565b908201526101c06200069f8482016200054d565b908201526101e0620006b38482016200054d565b90820152610200620006c78482016200054d565b90820152610220620006db8482016200054d565b90820152610240620006ef8482016200054d565b90820152610260620007038482016200054d565b90820152610280620007178482016200054d565b908201526102a06200072b8482016200054d565b908201526102c06200073f8482016200054d565b908201526102e0620007538482016200054d565b90820152610300620007678482016200054d565b908201526103206200077b8482016200054d565b908201526103406200078f8482016200054d565b90820152610360620007a38482016200054d565b90820152610380620007b78482016200054d565b908201526103a0620007cb8482016200054d565b908201526103c0620007df8482016200054d565b908201526103e0620007f38482016200054d565b90820152610400620008078482016200054d565b908201526104206200081b8482016200054d565b908201526104406200082f8482016200054d565b90820152610460620008438482016200054d565b90820152610480620008578482016200054d565b908201526104a06200086b8482016200054d565b908201526104c06200087f8482016200054d565b908201526104e0620008938482016200054d565b90820152610500620008a78482016200054d565b90820152610520620008bb8482016200054d565b90820152610540620008cf8482016200054d565b90820152610560620008e38482016200054d565b90820152610580620008f78482016200054d565b908201526105a06200090b8482016200054d565b908201526105c06200091f8482016200054d565b908201526105e0620009338482016200054d565b90820152610600620009478482016200054d565b908201526106206200095b8482016200054d565b908201526106406200096f8482016200054d565b90820152610660620009838482016200054d565b908201529392505050565b60805160a051613b3e620009b05f395f61046b01525f6102eb0152613b3e5ff3fe608060405234801561000f575f80fd5b50600436106100e5575f3560e01c80638bdb2afa11610088578063d3c374d711610063578063d3c374d714610453578063e5047b3014610466578063f2fde38b1461048d578063fa6fc430146104a0575f80fd5b80638bdb2afa146102e65780638da5cb5b14610325578063b1283e7714610335575f80fd5b8063715018a6116100c3578063715018a61461029957806380756b26146102a157806382506eb7146102b45780638aad6c2d146102d3575f80fd5b80630c6ed07e146100e9578063191cc0ed1461026d578063406ef2ef14610282575b5f80fd5b6102576100f7366004612b4b565b6040805161010080820183525f80835260208084018290528385018290526060808501839052608080860184905260a080870185905260c080880186905260e0978801869052988552600180855294889020885161012081018a5281546001600160a01b0390811682529682015487168187015260028201548716818b015260038201548716818601526004820154871681850152600582015487168184015260068201548716818c01526007808301548816828b01528a51808a018c52600884015480830b8252680100000000000000008104830b988201989098527001000000000000000000000000000000008804820b9b81019b909b52780100000000000000000000000000000000000000000000000090960490950b938901939093526009830154851691880191909152600a820154841690870152600b810154831696860196909652600c9095015416918301919091529190910181905290565b6040516102649190612bd9565b60405180910390f35b61028061027b366004612c07565b6104b3565b005b61028b60045481565b604051908152602001610264565b6102806104d6565b6102806102af366004612cfe565b6104e9565b61028b6102c2366004612db7565b60036020525f908152604090205481565b61028b6102e1366004612c07565b610aa0565b61030d7f000000000000000000000000000000000000000000000000000000000000000081565b6040516001600160a01b039091168152602001610264565b5f546001600160a01b031661030d565b61043e610343366004612b4b565b600160208181525f928352604092839020805492810154600282015460038301546004840154600585015460068601546007808801548b5161010081018d5260088a015480840b8252680100000000000000008104840b9b82019b909b527001000000000000000000000000000000008b04830b9c81019c909c527801000000000000000000000000000000000000000000000000909904900b60608b015260098701546001600160a01b0390811660808c0152600a880154811660a08c0152600b880154811660c08c0152600c90970154871660e08b01529786169894861697938616969286169591821694908216938216929091169089565b60405161026499989796959493929190612dd9565b61028b610461366004612cfe565b610acb565b61030d7f000000000000000000000000000000000000000000000000000000000000000081565b61028061049b366004612db7565b611187565b6102806104ae366004612e3e565b6111e2565b6104bb61122f565b6001600160a01b039091165f90815260066020526040902055565b6104de61122f565b6104e75f611274565b565b600181610100015160ff16600281111561050557610505612e75565b600281111561051657610516612e75565b036105905780516001600160a01b03165f9081526006602052604090205461055157604051637e68a04560e01b815260040160405180910390fd5b6020808201516001600160a01b03165f9081526006909152604090205461058b57604051637e68a04560e01b815260040160405180910390fd5b610638565b5f81610100015160ff1660028111156105ab576105ab612e75565b60028111156105bc576105bc612e75565b036106385780516001600160a01b039081165f90815260056020526040902054166105fa57604051637e68a04560e01b815260040160405180910390fd5b6020808201516001600160a01b039081165f90815260059092526040909120541661063857604051637e68a04560e01b815260040160405180910390fd5b6080810151515f13806106575750608081015151670de0b6b3a7640000125b156106755760405163480a657360e01b815260040160405180910390fd5b5f816080015160200151128061069a5750670de0b6b3a7640000816080015160200151135b156106b85760405163480a657360e01b815260040160405180910390fd5b5f81608001516040015112806106dd5750670de0b6b3a7640000816080015160400151135b156106fb5760405163480a657360e01b815260040160405180910390fd5b5f81608001516060015112806107205750670de0b6b3a7640000816080015160600151135b1561073e5760405163480a657360e01b815260040160405180910390fd5b60a081015151670de0b6b3a7640000131561076c5760405163480a657360e01b815260040160405180910390fd5b670de0b6b3a76400008160a0015160200151121561079d5760405163480a657360e01b815260040160405180910390fd5b670de0b6b3a76400008160a001516040015112156107ce5760405163480a657360e01b815260040160405180910390fd5b670de0b6b3a76400008160a001516060015112156107ff5760405163480a657360e01b815260040160405180910390fd5b5f8160400151128061081c5750670de0b6b3a76400008160400151135b15610853576040517fa0d3593200000000000000000000000000000000000000000000000000000000815260040160405180910390fd5b670de0b6b3a764000081606001511215610899576040517fa0d3593200000000000000000000000000000000000000000000000000000000815260040160405180910390fd5b683635c9adc5dea00000670de0b6b3a764000082606001516108bb9190612e9d565b6108d4906ec097ce7bc90715b34b9f1000000000612ed7565b131561090c576040517f7fd1397200000000000000000000000000000000000000000000000000000000815260040160405180910390fd5b683635c9adc5dea000008160400151670de0b6b3a764000061092e9190612e9d565b610947906ec097ce7bc90715b34b9f1000000000612ed7565b131561097f576040517f7fd1397200000000000000000000000000000000000000000000000000000000815260040160405180910390fd5b5f815f01516001600160a01b031663313ce5676040518163ffffffff1660e01b8152600401602060405180830381865afa1580156109bf573d5f803e3d5ffd5b505050506040513d601f19601f820116820180604052508101906109e39190612f1f565b90505f82602001516001600160a01b031663313ce5676040518163ffffffff1660e01b8152600401602060405180830381865afa158015610a26573d5f803e3d5ffd5b505050506040513d601f19601f82011682018060405250810190610a4a9190612f1f565b90506002610a588284612f3a565b610a629190612f78565b5f0b15610a9b576040517ff2b867c600000000000000000000000000000000000000000000000000000000815260040160405180910390fd5b505050565b6002602052815f5260405f208181548110610ab9575f80fd5b905f5260205f20015f91509150505481565b5f610ad5826104e9565b5f610ade6112db565b6008548451602086015160e08701516040517f1698ee820000000000000000000000000000000000000000000000000000000081526001600160a01b039384166004820152918316602483015262ffffff1660448201529293501690631698ee8290606401602060405180830381865afa158015610b5e573d5f803e3d5ffd5b505050506040513d601f19601f82011682018060405250810190610b829190612f97565b6001600160a01b0316602082018190526040517f32148f670000000000000000000000000000000000000000000000000000000081526101a460048201526332148f67906024015f604051808303815f87803b158015610be0575f80fd5b505af1158015610bf2573d5f803e3d5ffd5b50506004548352505082516001600160a01b039081165f9081526005602081815260408084205485166108008701528188018051861685529282528084205485166108208701528751851684526006808352818520546107c0880152925190941683525220546107e0820152610c68838261190c565b6040517f746a81e70000000000000000000000000000000000000000000000000000000081525f9073__$91657fcf9d082e8244d7decbcd5e57e1e3$__9063746a81e790610cbf908790600790879060040161362d565b61010060405180830381865af4158015610cdb573d5f803e3d5ffd5b505050506040513d601f19601f82011682018060405250810190610cff9190613761565b9050604051806101200160405280336001600160a01b031681526020018360e001516001600160a01b031681526020018361022001516001600160a01b031681526020018361024001516001600160a01b031681526020018361072001516001600160a01b031681526020018361012001516001600160a01b031681526020018361066001516001600160a01b03168152602001836106c001516001600160a01b031681526020018281525060015f60045481526020019081526020015f205f820151815f015f6101000a8154816001600160a01b0302191690836001600160a01b031602179055506020820151816001015f6101000a8154816001600160a01b0302191690836001600160a01b031602179055506040820151816002015f6101000a8154816001600160a01b0302191690836001600160a01b031602179055506060820151816003015f6101000a8154816001600160a01b0302191690836001600160a01b031602179055506080820151816004015f6101000a8154816001600160a01b0302191690836001600160a01b0316021790555060a0820151816005015f6101000a8154816001600160a01b0302191690836001600160a01b0316021790555060c0820151816006015f6101000a8154816001600160a01b0302191690836001600160a01b0316021790555060e0820151816007015f6101000a8154816001600160a01b0302191690836001600160a01b03160217905550610100820151816008015f820151815f015f6101000a81548167ffffffffffffffff021916908360070b67ffffffffffffffff1602179055506020820151815f0160086101000a81548167ffffffffffffffff021916908360070b67ffffffffffffffff1602179055506040820151815f0160106101000a81548167ffffffffffffffff021916908360070b67ffffffffffffffff1602179055506060820151815f0160186101000a81548167ffffffffffffffff021916908360070b67ffffffffffffffff1602179055506080820151816001015f6101000a8154816001600160a01b0302191690836001600160a01b0316021790555060a0820151816002015f6101000a8154816001600160a01b0302191690836001600160a01b0316021790555060c0820151816003015f6101000a8154816001600160a01b0302191690836001600160a01b0316021790555060e0820151816004015f6101000a8154816001600160a01b0302191690836001600160a01b03160217905550505090505060025f336001600160a01b03166001600160a01b031681526020019081526020015f20600454908060018154018082558091505060019003905f5260205f20015f909190919091505560045460035f8460e001516001600160a01b03166001600160a01b031681526020019081526020015f20819055507fc3ad2e49139bce6a6b8c6bab34c9584e9172898bb204cb3338ae53a6000efaa93360045460405161115b9291906001600160a01b03929092168252602082015260400190565b60405180910390a161116c82611fa7565b60048054905f61117b83613829565b90915550949350505050565b61118f61122f565b6001600160a01b0381166111d6576040517f1e4fbdf70000000000000000000000000000000000000000000000000000000081525f60048201526024015b60405180910390fd5b6111df81611274565b50565b6111ea61122f565b6001600160a01b039182165f90815260056020526040902080547fffffffffffffffffffffffff00000000000000000000000000000000000000001691909216179055565b5f546001600160a01b031633146104e7576040517f118cdaa70000000000000000000000000000000000000000000000000000000081523360048201526024016111cd565b5f80546001600160a01b038381167fffffffffffffffffffffffff0000000000000000000000000000000000000000831681178455604051919092169283917f8be0079c531659141344cd1fd0a4f28419497f9722a3daafe3b4186f6b6457e09190a35050565b6112e3612938565b6112eb612938565b600e54611300906001600160a01b0316612391565b6001600160a01b0390811660c0830152600f5461131d9116612391565b6001600160a01b0390811660e083015260105461133a9116612391565b6001600160a01b039081166101008301526011546113589116612391565b6001600160a01b039081166101208301526012546113769116612391565b6001600160a01b039081166101408301526013546113949116612391565b6001600160a01b039081166101608301526014546113b29116612391565b6001600160a01b039081166101808301526015546113d09116612391565b6001600160a01b039081166101a08301526017546113ee9116612391565b6001600160a01b039081166101c083015260185461140c9116612391565b6001600160a01b039081166101e083015260195461142a9116612391565b6001600160a01b03908116610200830152601a546114489116612391565b6001600160a01b03908116610220830152601a546114669116612391565b6001600160a01b03908116610240830152601c546114849116612391565b6001600160a01b03908116610280830152601d546114a29116612391565b6001600160a01b039081166102a08301526022546114c09116612391565b6001600160a01b039081166103408301526022546114de9116612391565b6001600160a01b039081166103608301526023546114fc9116612391565b6001600160a01b0390811661038083015260245461151a9116612391565b6001600160a01b039081166103a08301526025546115389116612391565b6001600160a01b039081166103c08301526025546115569116612391565b6001600160a01b039081166103e08301526026546115749116612391565b6001600160a01b039081166104008301526027546115929116612391565b6001600160a01b039081166104208301526028546115b09116612391565b6001600160a01b039081166104408301526029546115ce9116612391565b6001600160a01b03908116610460830152602a546115ec9116612391565b6001600160a01b03908116610480830152601b5461160a9116612391565b6001600160a01b03908116610260830152601e546116289116612391565b6001600160a01b039081166102c08301526021546116469116612391565b6001600160a01b03908116610320830152601f546116649116612391565b6001600160a01b039081166102e08301526020546116829116612391565b6001600160a01b03908116610300830152602b546116a09116612391565b6001600160a01b039081166104a0830152602b546116be9116612391565b6001600160a01b039081166104c0830152602c546116dc9116612391565b6001600160a01b039081166104e0830152602d546116fa9116612391565b6001600160a01b03908116610500830152602e546117189116612391565b6001600160a01b03908116610520830152602c546117369116612391565b6001600160a01b03908116610540830152602f546117549116612391565b6001600160a01b039081166105608301526030546117729116612391565b6001600160a01b039081166105808301526031546117909116612391565b6001600160a01b039081166105a08301526032546117ae9116612391565b6001600160a01b039081166105c08301526033546117cc9116612391565b6001600160a01b039081166105e08301526034546117ea9116612391565b6001600160a01b039081166106008301526035546118089116612391565b6001600160a01b039081166106208301526036546118269116612391565b6001600160a01b039081166106408301526037546118449116612391565b6001600160a01b039081166106608301526038546118629116612391565b6001600160a01b039081166106808301526039546118809116612391565b6001600160a01b039081166106a083015260375461189e9116612391565b6001600160a01b039081166106c08301526038546118bc9116612391565b6001600160a01b039081166106e08301526039546118da9116612391565b6001600160a01b03908116610700830152603a546118f89116612391565b6001600160a01b0316610720820152919050565b8060c001516001600160a01b0316637cdfd1616040518163ffffffff1660e01b81526004015f604051808303815f87803b158015611948575f80fd5b505af115801561195a573d5f803e3d5ffd5b5050505060e08101518251602084015160c08401516040517f70d1c22f0000000000000000000000000000000000000000000000000000000081526001600160a01b0393841660048201529183166024830152821660448201529116906370d1c22f906064015f604051808303815f87803b1580156119d7575f80fd5b505af11580156119e9573d5f803e3d5ffd5b5050505061010081015160e082015160c083015184516020860151604080880151606089015191517f91780d8f0000000000000000000000000000000000000000000000000000000081526001600160a01b039687166004820152948616602486015292851660448501529084166064840152608483019190915260a48201529116906391780d8f9060c4015f604051808303815f87803b158015611a8c575f80fd5b505af1158015611a9e573d5f803e3d5ffd5b50505061012082015160c083015160208501516040517fe1c0cafb0000000000000000000000000000000000000000000000000000000081526001600160a01b03928316600482015290821660248201529116915063e1c0cafb906044015f604051808303815f87803b158015611b13575f80fd5b505af1158015611b25573d5f803e3d5ffd5b50505050806101c001516001600160a01b031663306a32f58260e0015183610120015160075f015f9054906101000a90046001600160a01b031633611bab875f0151895f01518a602001516040518060400160405280600a81526020017f534146455459504f4f4c00000000000000000000000000000000000000000000815250612419565b611bf6885f01518a5f01518b602001516040518060400160405280600a81526020017f534146455459504f4f4c00000000000000000000000000000000000000000000815250612516565b6040518763ffffffff1660e01b8152600401611c179695949392919061388e565b5f604051808303815f87803b158015611c2e575f80fd5b505af1158015611c40573d5f803e3d5ffd5b50505061018082015160e08301516101c08401516101008501516040517f64fa9a530000000000000000000000000000000000000000000000000000000081526001600160a01b039384166004820152918316602483015282166044820152911691506364fa9a53906064015f604051808303815f87803b158015611cc3575f80fd5b505af1158015611cd5573d5f803e3d5ffd5b505050506101a0810151825160208401516101808401516040517ff7aaf1a20000000000000000000000000000000000000000000000000000000081526001600160a01b03938416600482015291831660248301528216604482015291169063f7aaf1a2906064015f604051808303815f87803b158015611d54575f80fd5b505af1158015611d66573d5f803e3d5ffd5b5050505061014081015160e082015161010083015160c084015185516101808601516101a08701516040517fbec381f00000000000000000000000000000000000000000000000000000000081526001600160a01b03968716600482015294861660248601529285166044850152908416606484015283166084830152821660a482015291169063bec381f09060c4015f604051808303815f87803b158015611e0d575f80fd5b505af1158015611e1f573d5f803e3d5ffd5b5050505061016081015160e082015161010083015160c084015185516101808601516101a08701516040517f58c7e4b10000000000000000000000000000000000000000000000000000000081526001600160a01b03968716600482015294861660248601529285166044850152908416606484015283166084830152821660a48201529116906358c7e4b19060c4015f604051808303815f87803b158015611ec6575f80fd5b505af1158015611ed8573d5f803e3d5ffd5b50505050611ee5816125f9565b60e08101516101008201516101c08301516101a08401516101408501516101808601516101608701516040517f99e133f90000000000000000000000000000000000000000000000000000000081526001600160a01b03968716600482015294861660248601529285166044850152908416606484015283166084830152821660a48201529116906399e133f99060c4015f604051808303815f87803b158015611f8d575f80fd5b505af1158015611f9f573d5f803e3d5ffd5b505050505050565b60e081015160405163f2fde38b60e01b81523360048201526001600160a01b039091169063f2fde38b906024015f604051808303815f87803b158015611feb575f80fd5b505af1158015611ffd573d5f803e3d5ffd5b5050506101a082015160405163f2fde38b60e01b81523360048201526001600160a01b03909116915063f2fde38b906024015f604051808303815f87803b158015612046575f80fd5b505af1158015612058573d5f803e3d5ffd5b50505060c082015160405163f2fde38b60e01b81523360048201526001600160a01b03909116915063f2fde38b906024015f604051808303815f87803b1580156120a0575f80fd5b505af11580156120b2573d5f803e3d5ffd5b5050506101c082015160405163f2fde38b60e01b81523360048201526001600160a01b03909116915063f2fde38b906024015f604051808303815f87803b1580156120fb575f80fd5b505af115801561210d573d5f803e3d5ffd5b50505061010082015160405163f2fde38b60e01b81523360048201526001600160a01b03909116915063f2fde38b906024015f604051808303815f87803b158015612156575f80fd5b505af1158015612168573d5f803e3d5ffd5b50505061016082015160405163f2fde38b60e01b81523360048201526001600160a01b03909116915063f2fde38b906024015f604051808303815f87803b1580156121b1575f80fd5b505af11580156121c3573d5f803e3d5ffd5b50505061024082015160405163f2fde38b60e01b81523360048201526001600160a01b03909116915063f2fde38b906024015f604051808303815f87803b15801561220c575f80fd5b505af115801561221e573d5f803e3d5ffd5b50505061022082015160405163f2fde38b60e01b81523360048201526001600160a01b03909116915063f2fde38b906024015f604051808303815f87803b158015612267575f80fd5b505af1158015612279573d5f803e3d5ffd5b50505061072082015160405163f2fde38b60e01b81523360048201526001600160a01b03909116915063f2fde38b906024015f604051808303815f87803b1580156122c2575f80fd5b505af11580156122d4573d5f803e3d5ffd5b50505061066082015160405163f2fde38b60e01b81523360048201526001600160a01b03909116915063f2fde38b906024015f604051808303815f87803b15801561231d575f80fd5b505af115801561232f573d5f803e3d5ffd5b5050506106c082015160405163f2fde38b60e01b81523360048201526001600160a01b03909116915063f2fde38b906024015f604051808303815f87803b158015612378575f80fd5b505af115801561238a573d5f803e3d5ffd5b5050505050565b5f763d602d80600a3d3981f3363d3d373d3d3d363d730000008260601b60e81c175f526e5af43d82803e903d91602b57fd5bf38260781b17602052603760095ff090506001600160a01b038116612414576040517fc2f868f400000000000000000000000000000000000000000000000000000000815260040160405180910390fd5b919050565b6060612424856127b9565b846001600160a01b03166395d89b416040518163ffffffff1660e01b81526004015f60405180830381865afa15801561245f573d5f803e3d5ffd5b505050506040513d5f823e601f3d908101601f1916820160405261248691908101906138e8565b846001600160a01b03166395d89b416040518163ffffffff1660e01b81526004015f60405180830381865afa1580156124c1573d5f803e3d5ffd5b505050506040513d5f823e601f3d908101601f191682016040526124e891908101906138e8565b846040516020016124fc9493929190613990565b60405160208183030381529060405290505b949350505050565b6060612521856127b9565b846001600160a01b03166395d89b416040518163ffffffff1660e01b81526004015f60405180830381865afa15801561255c573d5f803e3d5ffd5b505050506040513d5f823e601f3d908101601f1916820160405261258391908101906138e8565b846001600160a01b03166395d89b416040518163ffffffff1660e01b81526004015f60405180830381865afa1580156125be573d5f803e3d5ffd5b505050506040513d5f823e601f3d908101601f191682016040526125e591908101906138e8565b846040516020016124fc9493929190613a4c565b6101c081015161012082015160e08301516101808401516101e08501516101a08601516040517fdcb958630000000000000000000000000000000000000000000000000000000081526001600160a01b03808816600483015280871660248301528086166044830152808516606483015283169063dcb95863906084015f604051808303815f87803b15801561268d575f80fd5b505af115801561269f573d5f803e3d5ffd5b505050506102008701516040517f0fdc0a540000000000000000000000000000000000000000000000000000000081526001600160a01b03888116600483015286811660248301528581166044830152821690630fdc0a54906064015f604051808303815f87803b158015612712575f80fd5b505af1158015612724573d5f803e3d5ffd5b50506040517ff8c8765e0000000000000000000000000000000000000000000000000000000081526001600160a01b0386811660048301528481166024830152878116604483015285811660648301528a16925063f8c8765e91506084015f604051808303815f87803b158015612799575f80fd5b505af11580156127ab573d5f803e3d5ffd5b505050505050505050505050565b60605f6127c583612856565b60010190505f8167ffffffffffffffff8111156127e4576127e4612c31565b6040519080825280601f01601f19166020018201604052801561280e576020820181803683370190505b5090508181016020015b5f19017f3031323334353637383961626364656600000000000000000000000000000000600a86061a8153600a850494508461281857509392505050565b5f807a184f03e93ff9f4daa797ed6e38ed64bf6a1f010000000000000000831061289e577a184f03e93ff9f4daa797ed6e38ed64bf6a1f010000000000000000830492506040015b6d04ee2d6d415b85acef810000000083106128ca576d04ee2d6d415b85acef8100000000830492506020015b662386f26fc1000083106128e857662386f26fc10000830492506010015b6305f5e1008310612900576305f5e100830492506008015b612710831061291457612710830492506004015b60648310612926576064830492506002015b600a8310612932576001015b92915050565b60408051610840810182525f80825260208201819052918101829052606081018290526080810182905260a0810182905260c0810182905260e08101829052610100810182905261012081018290526101408101829052610160810182905261018081018290526101a081018290526101c081018290526101e08101829052610200810182905261022081018290526102408101829052610260810182905261028081018290526102a081018290526102c081018290526102e08101829052610300810182905261032081018290526103408101829052610360810182905261038081018290526103a081018290526103c081018290526103e08101829052610400810182905261042081018290526104408101829052610460810182905261048081018290526104a081018290526104c081018290526104e08101829052610500810182905261052081018290526105408101829052610560810182905261058081018290526105a081018290526105c081018290526105e08101829052610600810182905261062081018290526106408101829052610660810182905261068081018290526106a081018290526106c081018290526106e08101829052610700810182905261072081018290526107408101829052610760810182905261078081018290526107a081018290526107c081018290526107e08101829052610800810182905261082081019190915290565b5f60208284031215612b5b575f80fd5b5035919050565b805160070b8252602081015160070b6020830152604081015160070b6040830152606081015160070b606083015260808101516001600160a01b0380821660808501528060a08401511660a08501528060c08401511660c0850152505060e0810151610a9b60e08401826001600160a01b03169052565b61010081016129328284612b62565b6001600160a01b03811681146111df575f80fd5b803561241481612be8565b5f8060408385031215612c18575f80fd5b8235612c2381612be8565b946020939093013593505050565b634e487b7160e01b5f52604160045260245ffd5b604051610140810167ffffffffffffffff81118282101715612c6957612c69612c31565b60405290565b5f60808284031215612c7f575f80fd5b6040516080810181811067ffffffffffffffff82111715612ca257612ca2612c31565b8060405250809150823581526020830135602082015260408301356040820152606083013560608201525092915050565b803562ffffff81168114612414575f80fd5b60ff811681146111df575f80fd5b803561241481612ce5565b5f6102608284031215612d0f575f80fd5b612d17612c45565b612d2083612bfc565b8152612d2e60208401612bfc565b60208201526040830135604082015260608301356060820152612d548460808501612c6f565b6080820152610100612d6885828601612c6f565b60a0830152612d7b856101808601612c6f565b60c0830152612d8d6102008501612cd3565b60e0830152612d9f6102208501612cf3565b90820152610240929092013561012083015250919050565b5f60208284031215612dc7575f80fd5b8135612dd281612be8565b9392505050565b6001600160a01b038a81168252898116602083015288811660408301528781166060830152868116608083015285811660a083015284811660c0830152831660e08201526102008101612e30610100830184612b62565b9a9950505050505050505050565b5f8060408385031215612e4f575f80fd5b8235612e5a81612be8565b91506020830135612e6a81612be8565b809150509250929050565b634e487b7160e01b5f52602160045260245ffd5b634e487b7160e01b5f52601160045260245ffd5b8181035f831280158383131683831282161715612ebc57612ebc612e89565b5092915050565b634e487b7160e01b5f52601260045260245ffd5b5f82612ee557612ee5612ec3565b5f1983147f800000000000000000000000000000000000000000000000000000000000000083141615612f1a57612f1a612e89565b500590565b5f60208284031215612f2f575f80fd5b8151612dd281612ce5565b5f82810b9082900b037fffffffffffffffffffffffffffffffffffffffffffffffffffffffffffffff808112607f8213171561293257612932612e89565b5f825f0b80612f8957612f89612ec3565b80835f0b0791505092915050565b5f60208284031215612fa7575f80fd5b8151612dd281612be8565b612fd482612fc783546001600160a01b031690565b6001600160a01b03169052565b60018101546001600160a01b039081166020848101919091526002830154821660408501526003830154821660608501526004830154821660808501526005830154821660a08501526006830154821660c08501526007830154821660e08501526008830154821661010085015260098301548216610120850152600a8301548216610140850152600b8301548216610160850152600c8301548216610180850152600d83015482166101a0850152600e83015482166101c0850152600f83015482166101e08501526010830154821661020085015260118301548216610220850152601283015482166102408501526013830154821661026085015260148301548216610280850152601583015482166102a0850152601683015482166102c0850152601783015482166102e08501526018830154821661030085015260198301548216610320850152601a8301548216610340850152601b8301548216610360850152601c8301548216610380850152601d83015482166103a0850152601e83015482166103c0850152601f83015482166103e0850152820154811661040084015260218201548116610420840152602282015481166104408401526023820154811661046084015260248201548116610480840152602582015481166104a0840152602682015481166104c0840152602782015481166104e08401526028820154811661050084015260298201548116610520840152602a8201548116610540840152602b8201548116610560840152602c8201548116610580840152602d82015481166105a0840152602e82015481166105c0840152602f82015481166105e08401526030820154811661060084015260318201548116610620840152603282015481166106408401526033909101541661066090910152565b80518252602081015161329060208401826001600160a01b03169052565b5060408101516132ab60408401826001600160a01b03169052565b5060608101516132c660608401826001600160a01b03169052565b5060808101516132e160808401826001600160a01b03169052565b5060a08101516132fc60a08401826001600160a01b03169052565b5060c081015161331760c08401826001600160a01b03169052565b5060e081015161333260e08401826001600160a01b03169052565b50610100818101516001600160a01b0390811691840191909152610120808301518216908401526101408083015182169084015261016080830151821690840152610180808301518216908401526101a0808301518216908401526101c0808301518216908401526101e08083015182169084015261020080830151821690840152610220808301518216908401526102408083015182169084015261026080830151821690840152610280808301518216908401526102a0808301518216908401526102c0808301518216908401526102e08083015182169084015261030080830151821690840152610320808301518216908401526103408083015182169084015261036080830151821690840152610380808301518216908401526103a0808301518216908401526103c0808301518216908401526103e08083015182169084015261040080830151821690840152610420808301518216908401526104408083015182169084015261046080830151821690840152610480808301518216908401526104a0808301518216908401526104c0808301518216908401526104e08083015182169084015261050080830151821690840152610520808301518216908401526105408083015182169084015261056080830151821690840152610580808301518216908401526105a0808301518216908401526105c0808301518216908401526105e08083015182169084015261060080830151821690840152610620808301518216908401526106408083015182169084015261066080830151821690840152610680808301518216908401526106a0808301518216908401526106c0808301518216908401526106e08083015182169084015261070080830151821690840152610720808301518216908401526107408083015182169084015261076080830151821690840152610780808301518216908401526107a0808301518216908401526107c080830151908401526107e08083015190840152610800808301518216908401526108209182015116910152565b83516001600160a01b031681526111208101602085015161365960208401826001600160a01b03169052565b50604085015160408301526060850151606083015260808501516136a16080840182805182526020810151602083015260408101516040830152606081015160608301525050565b5060a08501518051610100848101919091526020808301516101208087019190915260408085015161014088015260609485015161016088015260c08a01518051610180890152928301516101a08801528201516101c08701529201516101e085015260e087015162ffffff1661020085015286015160ff16610220840152850151610240830152613737610260830185612fb2565b61250e6108e0830184613272565b8051600781900b8114612414575f80fd5b805161241481612be8565b5f610100808385031215613773575f80fd5b6040519081019067ffffffffffffffff8211818310171561379657613796612c31565b816040526137a384613745565b81526137b160208501613745565b60208201526137c260408501613745565b60408201526137d360608501613745565b6060820152608084015191506137e882612be8565b8160808201526137fa60a08501613756565b60a082015261380b60c08501613756565b60c082015261381c60e08501613756565b60e0820152949350505050565b5f5f19820361383a5761383a612e89565b5060010190565b5f5b8381101561385b578181015183820152602001613843565b50505f910152565b5f815180845261387a816020860160208601613841565b601f01601f19169290920160200192915050565b5f6001600160a01b0380891683528088166020840152808716604084015280861660608401525060c060808301526138c960c0830185613863565b82810360a08401526138db8185613863565b9998505050505050505050565b5f602082840312156138f8575f80fd5b815167ffffffffffffffff8082111561390f575f80fd5b818401915084601f830112613922575f80fd5b81518181111561393457613934612c31565b604051601f8201601f19908116603f0116810190838211818310171561395c5761395c612c31565b81604052828152876020848701011115613974575f80fd5b613985836020830160208801613841565b979650505050505050565b7f4f70796e4d61726b65742d00000000000000000000000000000000000000000081525f85516139c781600b850160208a01613841565b80830190507f2d0000000000000000000000000000000000000000000000000000000000000080600b8301528651613a0681600c850160208b01613841565b600c92019182018190528551613a2381600d850160208a01613841565b600d9201918201528351613a3e81600e840160208801613841565b01600e019695505050505050565b7f4f4d2d000000000000000000000000000000000000000000000000000000000081525f8551613a83816003850160208a01613841565b80830190507f2d000000000000000000000000000000000000000000000000000000000000008060038301528651613ac2816004850160208b01613841565b600492019182018190528551613adf816005850160208a01613841565b60059201918201528351613afa816006840160208801613841565b01600601969550505050505056fea2646970667358221220ae616a9c7d49c0463140adb59723fd67079c49272aad805959cfe2de0304c20464736f6c63430008180033","linkReferences":{"src/core/lib/FactoryLib.sol":{"FactoryLib":[{"start":5698,"length":20}]}}},"methodIdentifiers":{"_checkDeploymentParams((address,address,int256,int256,(int256,int256,int256,int256),(int256,int256,int256,int256),(int256,int256,int256,int256),uint24,uint8,uint256))":"80756b26","deployMarket((address,address,int256,int256,(int256,int256,int256,int256),(int256,int256,int256,int256),(int256,int256,int256,int256),uint24,uint8,uint256))":"d3c374d7","getInitialCarry(uint256)":"0c6ed07e","marketIdsByController(address)":"82506eb7","marketIdsByDeployer(address,uint256)":"8aad6c2d","markets(uint256)":"b1283e77","nextMarketId()":"406ef2ef","owner()":"8da5cb5b","renounceOwnership()":"715018a6","setChainlinkFeedAddress(address,address)":"fa6fc430","setPythPriceId(address,bytes32)":"191cc0ed","transferOwnership(address)":"f2fde38b","uniswapFactory()":"8bdb2afa","uniswapPositionManager()":"e5047b30"},"id":104}