{
  "abi": [
    {
      "type": "constructor",
      "inputs": [
        {
          "name": "_factory",
          "type": "address",
          "internalType": "address"
        }
      ],
      "stateMutability": "nonpayable"
    },
    {
      "type": "function",
      "name": "ADAPTER_DECIMALS",
      "inputs": [],
      "outputs": [
        {
          "name": "",
          "type": "uint8",
          "internalType": "uint8"
        }
      ],
      "stateMutability": "view"
    },
    {
      "type": "function",
      "name": "MAX_ORACLE_LAG",
      "inputs": [],
      "outputs": [
        {
          "name": "",
          "type": "uint64",
          "internalType": "uint64"
        }
      ],
      "stateMutability": "view"
    },
    {
      "type": "function",
      "name": "_returnOwnerships",
      "inputs": [
        {
          "name": "_feederParams",
          "type": "tuple",
          "internalType": "struct FeederParams",
          "components": [
            {
              "name": "deployerAddress",
              "type": "address",
              "internalType": "address"
            },
            {
              "name": "protocolAsset",
              "type": "address",
              "internalType": "address"
            },
            {
              "name": "protocolNumeraire",
              "type": "address",
              "internalType": "address"
            },
            {
              "name": "controller",
              "type": "address",
              "internalType": "address"
            },
            {
              "name": "halfCrabStrategy",
              "type": "address",
              "internalType": "address"
            },
            {
              "name": "twoCrabStrategy",
              "type": "address",
              "internalType": "address"
            },
            {
              "name": "stableFlo",
              "type": "address",
              "internalType": "address"
            },
            {
              "name": "assetFlo",
              "type": "address",
              "internalType": "address"
            },
            {
              "name": "perpAddresses",
              "type": "address[4]",
              "internalType": "address[4]"
            },
            {
              "name": "oracle",
              "type": "address",
              "internalType": "address"
            },
            {
              "name": "vaultManager",
              "type": "address",
              "internalType": "address"
            },
            {
              "name": "initialPriceState",
              "type": "tuple",
              "internalType": "struct InitialPriceState",
              "components": [
                {
                  "name": "zeroPerpCarry",
                  "type": "int64",
                  "internalType": "int64"
                },
                {
                  "name": "halfPerpCarry",
                  "type": "int64",
                  "internalType": "int64"
                },
                {
                  "name": "onePerpCarry",
                  "type": "int64",
                  "internalType": "int64"
                },
                {
                  "name": "twoPerpCarry",
                  "type": "int64",
                  "internalType": "int64"
                },
                {
                  "name": "zeroPoolSqrtPriceX96",
                  "type": "uint160",
                  "internalType": "uint160"
                },
                {
                  "name": "halfPoolSqrtPriceX96",
                  "type": "uint160",
                  "internalType": "uint160"
                },
                {
                  "name": "onePoolSqrtPriceX96",
                  "type": "uint160",
                  "internalType": "uint160"
                },
                {
                  "name": "twoPoolSqrtPriceX96",
                  "type": "uint160",
                  "internalType": "uint160"
                }
              ]
            },
            {
              "name": "liquidityPools",
              "type": "address[4]",
              "internalType": "address[4]"
            }
          ]
        }
      ],
      "outputs": [],
      "stateMutability": "nonpayable"
    },
    {
      "type": "function",
      "name": "calculateActionsAndAmounts",
      "inputs": [
        {
          "name": "_protocolAssetAmount",
          "type": "uint256",
          "internalType": "uint256"
        },
        {
          "name": "_protocolNumeraireAmount",
          "type": "uint256",
          "internalType": "uint256"
        },
        {
          "name": "_feederParams",
          "type": "tuple",
          "internalType": "struct FeederParams",
          "components": [
            {
              "name": "deployerAddress",
              "type": "address",
              "internalType": "address"
            },
            {
              "name": "protocolAsset",
              "type": "address",
              "internalType": "address"
            },
            {
              "name": "protocolNumeraire",
              "type": "address",
              "internalType": "address"
            },
            {
              "name": "controller",
              "type": "address",
              "internalType": "address"
            },
            {
              "name": "halfCrabStrategy",
              "type": "address",
              "internalType": "address"
            },
            {
              "name": "twoCrabStrategy",
              "type": "address",
              "internalType": "address"
            },
            {
              "name": "stableFlo",
              "type": "address",
              "internalType": "address"
            },
            {
              "name": "assetFlo",
              "type": "address",
              "internalType": "address"
            },
            {
              "name": "perpAddresses",
              "type": "address[4]",
              "internalType": "address[4]"
            },
            {
              "name": "oracle",
              "type": "address",
              "internalType": "address"
            },
            {
              "name": "vaultManager",
              "type": "address",
              "internalType": "address"
            },
            {
              "name": "initialPriceState",
              "type": "tuple",
              "internalType": "struct InitialPriceState",
              "components": [
                {
                  "name": "zeroPerpCarry",
                  "type": "int64",
                  "internalType": "int64"
                },
                {
                  "name": "halfPerpCarry",
                  "type": "int64",
                  "internalType": "int64"
                },
                {
                  "name": "onePerpCarry",
                  "type": "int64",
                  "internalType": "int64"
                },
                {
                  "name": "twoPerpCarry",
                  "type": "int64",
                  "internalType": "int64"
                },
                {
                  "name": "zeroPoolSqrtPriceX96",
                  "type": "uint160",
                  "internalType": "uint160"
                },
                {
                  "name": "halfPoolSqrtPriceX96",
                  "type": "uint160",
                  "internalType": "uint160"
                },
                {
                  "name": "onePoolSqrtPriceX96",
                  "type": "uint160",
                  "internalType": "uint160"
                },
                {
                  "name": "twoPoolSqrtPriceX96",
                  "type": "uint160",
                  "internalType": "uint160"
                }
              ]
            },
            {
              "name": "liquidityPools",
              "type": "address[4]",
              "internalType": "address[4]"
            }
          ]
        }
      ],
      "outputs": [
        {
          "name": "",
          "type": "tuple[]",
          "internalType": "struct VaultActionsLib.ActionArgs[]",
          "components": [
            {
              "name": "actionType",
              "type": "uint8",
              "internalType": "enum VaultActionsLib.ActionType"
            },
            {
              "name": "owner",
              "type": "address",
              "internalType": "address"
            },
            {
              "name": "asset",
              "type": "address",
              "internalType": "address"
            },
            {
              "name": "amount",
              "type": "uint256",
              "internalType": "uint256"
            },
            {
              "name": "data",
              "type": "bytes",
              "internalType": "bytes"
            }
          ]
        },
        {
          "name": "",
          "type": "tuple",
          "internalType": "struct DepositMintParams",
          "components": [
            {
              "name": "amountOfNumeraireToDeposit",
              "type": "uint256",
              "internalType": "uint256"
            },
            {
              "name": "amountOfAssetToDeposit",
              "type": "uint256",
              "internalType": "uint256"
            },
            {
              "name": "zeroPerpToMint",
              "type": "uint256",
              "internalType": "uint256"
            },
            {
              "name": "halfPerpToMint",
              "type": "uint256",
              "internalType": "uint256"
            },
            {
              "name": "onePerpToMint",
              "type": "uint256",
              "internalType": "uint256"
            }
          ]
        }
      ],
      "stateMutability": "view"
    },
    {
      "type": "function",
      "name": "fractionOfAssetToVault",
      "inputs": [],
      "outputs": [
        {
          "name": "",
          "type": "uint256",
          "internalType": "uint256"
        }
      ],
      "stateMutability": "view"
    },
    {
      "type": "function",
      "name": "fractionOfNumeraireToVault",
      "inputs": [],
      "outputs": [
        {
          "name": "",
          "type": "uint256",
          "internalType": "uint256"
        }
      ],
      "stateMutability": "view"
    },
    {
      "type": "function",
      "name": "getLiquidityPools",
      "inputs": [
        {
          "name": "_protocolNumeraire",
          "type": "address",
          "internalType": "address"
        },
        {
          "name": "_protocolAsset",
          "type": "address",
          "internalType": "address"
        },
        {
          "name": "perpAddresses",
          "type": "address[4]",
          "internalType": "address[4]"
        },
        {
          "name": "_halfCrabStrategy",
          "type": "address",
          "internalType": "address"
        },
        {
          "name": "_twoCrabStrategy",
          "type": "address",
          "internalType": "address"
        }
      ],
      "outputs": [
        {
          "name": "",
          "type": "address[4]",
          "internalType": "address[4]"
        }
      ],
      "stateMutability": "view"
    },
    {
      "type": "function",
      "name": "packFeederParams",
      "inputs": [
        {
          "name": "_marketId",
          "type": "uint256",
          "internalType": "uint256"
        }
      ],
      "outputs": [
        {
          "name": "",
          "type": "tuple",
          "internalType": "struct FeederParams",
          "components": [
            {
              "name": "deployerAddress",
              "type": "address",
              "internalType": "address"
            },
            {
              "name": "protocolAsset",
              "type": "address",
              "internalType": "address"
            },
            {
              "name": "protocolNumeraire",
              "type": "address",
              "internalType": "address"
            },
            {
              "name": "controller",
              "type": "address",
              "internalType": "address"
            },
            {
              "name": "halfCrabStrategy",
              "type": "address",
              "internalType": "address"
            },
            {
              "name": "twoCrabStrategy",
              "type": "address",
              "internalType": "address"
            },
            {
              "name": "stableFlo",
              "type": "address",
              "internalType": "address"
            },
            {
              "name": "assetFlo",
              "type": "address",
              "internalType": "address"
            },
            {
              "name": "perpAddresses",
              "type": "address[4]",
              "internalType": "address[4]"
            },
            {
              "name": "oracle",
              "type": "address",
              "internalType": "address"
            },
            {
              "name": "vaultManager",
              "type": "address",
              "internalType": "address"
            },
            {
              "name": "initialPriceState",
              "type": "tuple",
              "internalType": "struct InitialPriceState",
              "components": [
                {
                  "name": "zeroPerpCarry",
                  "type": "int64",
                  "internalType": "int64"
                },
                {
                  "name": "halfPerpCarry",
                  "type": "int64",
                  "internalType": "int64"
                },
                {
                  "name": "onePerpCarry",
                  "type": "int64",
                  "internalType": "int64"
                },
                {
                  "name": "twoPerpCarry",
                  "type": "int64",
                  "internalType": "int64"
                },
                {
                  "name": "zeroPoolSqrtPriceX96",
                  "type": "uint160",
                  "internalType": "uint160"
                },
                {
                  "name": "halfPoolSqrtPriceX96",
                  "type": "uint160",
                  "internalType": "uint160"
                },
                {
                  "name": "onePoolSqrtPriceX96",
                  "type": "uint160",
                  "internalType": "uint160"
                },
                {
                  "name": "twoPoolSqrtPriceX96",
                  "type": "uint160",
                  "internalType": "uint160"
                }
              ]
            },
            {
              "name": "liquidityPools",
              "type": "address[4]",
              "internalType": "address[4]"
            }
          ]
        }
      ],
      "stateMutability": "view"
    },
    {
      "type": "function",
      "name": "seedPools",
      "inputs": [
        {
          "name": "_marketId",
          "type": "uint256",
          "internalType": "uint256"
        },
        {
          "name": "_protocolAssetAmount",
          "type": "uint256",
          "internalType": "uint256"
        },
        {
          "name": "_protocolNumeraireAmount",
          "type": "uint256",
          "internalType": "uint256"
        },
        {
          "name": "_spanParams",
          "type": "tuple",
          "internalType": "struct ISpanMargin.VaultSpanParams",
          "components": [
            {
              "name": "a",
              "type": "int256",
              "internalType": "int256"
            },
            {
              "name": "b",
              "type": "int256",
              "internalType": "int256"
            },
            {
              "name": "c",
              "type": "int256",
              "internalType": "int256"
            },
            {
              "name": "d",
              "type": "int256",
              "internalType": "int256"
            },
            {
              "name": "aDelta",
              "type": "int256[3]",
              "internalType": "int256[3]"
            },
            {
              "name": "bDelta",
              "type": "int256[3]",
              "internalType": "int256[3]"
            },
            {
              "name": "cDelta",
              "type": "int256[3]",
              "internalType": "int256[3]"
            },
            {
              "name": "dDelta",
              "type": "int256[3]",
              "internalType": "int256[3]"
            },
            {
              "name": "kinks",
              "type": "int256[2]",
              "internalType": "int256[2]"
            },
            {
              "name": "numKinks",
              "type": "uint256",
              "internalType": "uint256"
            }
          ]
        },
        {
          "name": "_sqrtRoots",
          "type": "bytes16[]",
          "internalType": "bytes16[]"
        }
      ],
      "outputs": [],
      "stateMutability": "nonpayable"
    },
    {
      "type": "error",
      "name": "NotMarketOwner",
      "inputs": []
    },
    {
      "type": "error",
      "name": "R",
      "inputs": []
    },
    {
      "type": "error",
      "name": "T",
      "inputs": []
    }
  ],
  "bytecode": {
    "object": "0x608060405234801562000010575f80fd5b50604051620047903803806200479083398101604081905262000033916200015a565b600280546001600160a01b0319166001600160a01b038316908117909155604080516345ed957d60e11b81529051638bdb2afa916004808201926020929091908290030181865afa1580156200008b573d5f803e3d5ffd5b505050506040513d601f19601f82011682018060405250810190620000b191906200015a565b5f80546001600160a01b0319166001600160a01b0392831617905560025460408051630e5047b360e41b81529051919092169163e5047b309160048083019260209291908290030181865afa1580156200010d573d5f803e3d5ffd5b505050506040513d601f19601f820116820180604052508101906200013391906200015a565b600180546001600160a01b0319166001600160a01b03929092169190911790555062000189565b5f602082840312156200016b575f80fd5b81516001600160a01b038116811462000182575f80fd5b9392505050565b6145f980620001975f395ff3fe608060405234801561000f575f80fd5b506004361061009f575f3560e01c80639c726fbe11610072578063d20ab77111610058578063d20ab7711461015d578063dbc0e0631461017a578063e2fbbf311461018d575f80fd5b80639c726fbe14610123578063aa6f40bb1461013d575f80fd5b80631a78014e146100a35780636298a9b5146100cd5780637757e180146100ed5780638b111e5514610102575b5f80fd5b6100b66100b1366004613737565b61019c565b6040516100c4929190613861565b60405180910390f35b6100e06100db3660046138ab565b610618565b6040516100c49190613949565b6101006100fb366004613957565b610637565b005b61010a603c81565b60405167ffffffffffffffff90911681526020016100c4565b61012b601281565b60405160ff90911681526020016100c4565b61015061014b366004613972565b6107a2565b6040516100c49190613a05565b61016c67058d15e17628000081565b6040519081526020016100c4565b610100610188366004613b4b565b610cf1565b61016c670b1a2bc2ec50000081565b60606101cb6040518060a001604052805f81526020015f81526020015f81526020015f81526020015f81525090565b6101f86040518060a001604052805f81526020015f81526020015f81526020015f81526020015f81525090565b670de0b6b3a764000061021367058d15e17628000087613c25565b61021d9190613c50565b8152670de0b6b3a764000061023a670b1a2bc2ec50000088613c25565b6102449190613c50565b602082810191909152610120850151908501516040516341976e0960e01b81526001600160a01b0391821660048201525f9291909116906341976e0990602401602060405180830381865afa15801561029f573d5f803e3d5ffd5b505050506040513d601f19601f820116820180604052508101906102c39190613c63565b90505f6102e06102db670de0b6b3a764000084613c25565b61103d565b90505f8290505f6102f48860200151611128565b90505f6103048960400151611128565b9050601260ff83161161035f5761031c856002613c25565b610327836012613c7a565b61033290600a613d73565b60208801516103419088613c25565b61034b9190613c25565b6103559190613c50565b60808701526103a9565b61036a856002613c25565b610375601284613c7a565b61038090600a613d73565b602088015161038f9088613c25565b6103999190613c50565b6103a39190613c50565b60808701525b601260ff821611610407576103bf846002613c25565b6103ca826012613c7a565b6103d590600a613d73565b87516103e990670de0b6b3a7640000613c25565b6103f39190613c25565b6103fd9190613c50565b6060870152610456565b610412846002613c25565b61041d601283613c7a565b61042890600a613d73565b875161043c90670de0b6b3a7640000613c25565b6104469190613c50565b6104509190613c50565b60608701525b610469670de0b6b3a76400006004613c25565b8587608001516104799190613c25565b6104839190613c50565b6040878101919091528051600580825260c082019092525f91816020015b6104e26040805160a08101909152805f81526020015f6001600160a01b031681526020015f6001600160a01b031681526020015f8152602001606081525090565b8152602001906001900390816104a15750508a5160408c015189519293506105099261118f565b815f8151811061051b5761051b613d81565b602002602001018190525061053c8a5f01518b60200151896020015161118f565b8160018151811061054f5761054f613d81565b602090810291909101015289516101008b01516105789190600160200201518960600151611222565b8160028151811061058b5761058b613d81565b602090810291909101015289516101008b01516040015160808901516105b2929190611222565b816003815181106105c5576105c5613d81565b602090810291909101015289516101008b01515160408901516105e9929190611222565b816004815181106105fc576105fc613d81565b60209081029190910101529b959a509498505050505050505050565b6106206132d2565b61062d8686868686611276565b9695505050505050565b608081015160405163f2fde38b60e01b81523360048201526001600160a01b039091169063f2fde38b906024015f604051808303815f87803b15801561067b575f80fd5b505af115801561068d573d5f803e3d5ffd5b50505060a082015160405163f2fde38b60e01b81523360048201526001600160a01b03909116915063f2fde38b906024015f604051808303815f87803b1580156106d5575f80fd5b505af11580156106e7573d5f803e3d5ffd5b50505060c082015160405163f2fde38b60e01b81523360048201526001600160a01b03909116915063f2fde38b906024015f604051808303815f87803b15801561072f575f80fd5b505af1158015610741573d5f803e3d5ffd5b50505060e082015160405163f2fde38b60e01b81523360048201526001600160a01b03909116915063f2fde38b906024015f604051808303815f87803b158015610789575f80fd5b505af115801561079b573d5f803e3d5ffd5b5050505050565b6107aa6132f0565b6002546040517fb1283e77000000000000000000000000000000000000000000000000000000008152600481018490525f918291829182918291829182916001600160a01b03169063b1283e779060240161020060405180830381865afa158015610817573d5f803e3d5ffd5b505050506040513d601f19601f8201168201806040525081019061083b9190613dab565b985098509850505096509650965096505f8690505f816001600160a01b031663123430db6040518163ffffffff1660e01b8152600401602060405180830381865afa15801561088c573d5f803e3d5ffd5b505050506040513d601f19601f820116820180604052508101906108b09190613f25565b90505f826001600160a01b031663ae749a496040518163ffffffff1660e01b8152600401602060405180830381865afa1580156108ef573d5f803e3d5ffd5b505050506040513d601f19601f820116820180604052508101906109139190613f25565b90505f836001600160a01b031663af30b56c6040518163ffffffff1660e01b8152600401602060405180830381865afa158015610952573d5f803e3d5ffd5b505050506040513d601f19601f820116820180604052508101906109769190613f25565b604080516080810191829052630c7142eb60e01b9091525f60848201819052919250806001600160a01b038616630c7142eb60a48301602060405180830381865afa1580156109c7573d5f803e3d5ffd5b505050506040513d601f19601f820116820180604052508101906109eb9190613f25565b6001600160a01b039081168252604051630c7142eb60e01b81526706f05b59d3b20000600482015260209092019190871690630c7142eb90602401602060405180830381865afa158015610a41573d5f803e3d5ffd5b505050506040513d601f19601f82011682018060405250810190610a659190613f25565b6001600160a01b039081168252604051630c7142eb60e01b8152670de0b6b3a7640000600482015260209092019190871690630c7142eb90602401602060405180830381865afa158015610abb573d5f803e3d5ffd5b505050506040513d601f19601f82011682018060405250810190610adf9190613f25565b6001600160a01b039081168252604051630c7142eb60e01b8152671bc16d674ec80000600482015260209092019190871690630c7142eb90602401602060405180830381865afa158015610b35573d5f803e3d5ffd5b505050506040513d601f19601f82011682018060405250810190610b599190613f25565b6001600160a01b031690529050610b6e6132d2565b604051806101a001604052808e6001600160a01b03168152602001856001600160a01b03168152602001846001600160a01b031681526020018d6001600160a01b031681526020018c6001600160a01b031681526020018b6001600160a01b031681526020018a6001600160a01b03168152602001896001600160a01b03168152602001838152602001876001600160a01b0316637dc0d1d06040518163ffffffff1660e01b8152600401602060405180830381865afa158015610c34573d5f803e3d5ffd5b505050506040513d601f19601f82011682018060405250810190610c589190613f25565b6001600160a01b03168152602001876001600160a01b031663fbfa77cf6040518163ffffffff1660e01b8152600401602060405180830381865afa158015610ca2573d5f803e3d5ffd5b505050506040513d601f19601f82011682018060405250810190610cc69190613f25565b6001600160a01b03168152602081019890985260409097015250939c9b505050505050505050505050565b5f610cfb876107a2565b80519091506001600160a01b03163314610d41576040517f340f44d000000000000000000000000000000000000000000000000000000000815260040160405180910390fd5b606081015160208201516040517f23b872dd000000000000000000000000000000000000000000000000000000008152336004820152306024820152604481018990526001600160a01b03909116906323b872dd906064016020604051808303815f875af1158015610db5573d5f803e3d5ffd5b505050506040513d601f19601f82011682018060405250810190610dd99190613f40565b5060408083015190517f23b872dd000000000000000000000000000000000000000000000000000000008152336004820152306024820152604481018890526001600160a01b03909116906323b872dd906064016020604051808303815f875af1158015610e49573d5f803e3d5ffd5b505050506040513d601f19601f82011682018060405250810190610e6d9190613f40565b505f80610e7b89898661019c565b6040868101516101408801518351925163095ea7b360e01b81526001600160a01b039182166004820152602481019390935293955091935091169063095ea7b3906044016020604051808303815f875af1158015610edb573d5f803e3d5ffd5b505050506040513d601f19601f82011682018060405250810190610eff9190613f40565b506020808501516101408601519183015160405163095ea7b360e01b81526001600160a01b039384166004820152602481019190915291169063095ea7b3906044016020604051808303815f875af1158015610f5d573d5f803e3d5ffd5b505050506040513d601f19601f82011682018060405250810190610f819190613f40565b5083606001516001600160a01b031663ef5cd7a8838989896040518563ffffffff1660e01b8152600401610fb89493929190613fe5565b5f604051808303815f87803b158015610fcf575f80fd5b505af1158015610fe1573d5f803e3d5ffd5b50505050610fee846114af565b610ff784611859565b6110198460400151856020015186610100015187608001518860a00151611276565b61018085015261102884611b0f565b61103184610637565b50505050505050505050565b5f815f0361104c57505f919050565b5f600161105884611fc7565b901c6001901b9050600181848161107157611071613c3c565b048201901c9050600181848161108957611089613c3c565b048201901c905060018184816110a1576110a1613c3c565b048201901c905060018184816110b9576110b9613c3c565b048201901c905060018184816110d1576110d1613c3c565b048201901c905060018184816110e9576110e9613c3c565b048201901c9050600181848161110157611101613c3c565b048201901c90506111218182858161111b5761111b613c3c565b0461205a565b9392505050565b5f816001600160a01b031663313ce5676040518163ffffffff1660e01b8152600401602060405180830381865afa158015611165573d5f803e3d5ffd5b505050506040513d601f19601f8201168201806040525081019061118991906140be565b92915050565b6111d06040805160a08101909152805f81526020015f6001600160a01b031681526020015f6001600160a01b031681526020015f8152602001606081525090565b6040805160a08101909152805f5b8152602001856001600160a01b03168152602001846001600160a01b0316815260200183815260200160405180602001604052805f81525081525090509392505050565b6112636040805160a08101909152805f81526020015f6001600160a01b031681526020015f6001600160a01b031681526020015f8152602001606081525090565b6040805160a081019091528060046111de565b61127e6132d2565b6040805160808101918290525f548651630b4c774160e11b9093526001600160a01b03928316608483015288831660a4830152606460c48301529091829116631698ee8260e48301602060405180830381865afa1580156112e1573d5f803e3d5ffd5b505050506040513d601f19601f820116820180604052508101906113059190613f25565b6001600160a01b0390811682525f54604051630b4c774160e11b815287831660048201528a831660248201526101f46044820152602090930192911690631698ee8290606401602060405180830381865afa158015611366573d5f803e3d5ffd5b505050506040513d601f19601f8201168201806040525081019061138a9190613f25565b6001600160a01b0390811682525f546040808901519051630b4c774160e11b8152908316600482015289831660248201526064604482018190526020909401939190921691631698ee829101602060405180830381865afa1580156113f1573d5f803e3d5ffd5b505050506040513d601f19601f820116820180604052508101906114159190613f25565b6001600160a01b0390811682525f54604051630b4c774160e11b815286831660048201528a831660248201526101f46044820152602090930192911690631698ee8290606401602060405180830381865afa158015611476573d5f803e3d5ffd5b505050506040513d601f19601f8201168201806040525081019061149a9190613f25565b6001600160a01b031690529695505050505050565b61012081015160208201516040516341976e0960e01b81526001600160a01b0391821660048201525f9291909116906341976e0990602401602060405180830381865afa158015611502573d5f803e3d5ffd5b505050506040513d601f19601f820116820180604052508101906115269190613c63565b61012083015160208401516040516341976e0960e01b81526001600160a01b0391821660048201529293505f92670de0b6b3a76400009291909116906341976e0990602401602060405180830381865afa158015611586573d5f803e3d5ffd5b505050506040513d601f19601f820116820180604052508101906115aa9190613c63565b8461016001516040015160070b6115c19190613c25565b6115cb9190613c50565b90505f6ec097ce7bc90715b34b9f10000000006115e9600285613d73565b8561016001516060015160070b6116009190613c25565b61160a9190613c50565b6040805160028082526060820183529293505f92909160208301908036833701905050905081815f8151811061164257611642613d81565b602002602001018181525050828160018151811061166257611662613d81565b602090810291909101015261010085015160409081015190516370a0823160e01b81523060048201525f916001600160a01b0316906370a0823190602401602060405180830381865afa1580156116bb573d5f803e3d5ffd5b505050506040513d601f19601f820116820180604052508101906116df9190613c63565b61010087015160409081015160a0890151915163095ea7b360e01b81526001600160a01b03928316600482015260248101849052929350169063095ea7b3906044016020604051808303815f875af115801561173d573d5f803e3d5ffd5b505050506040513d601f19601f820116820180604052508101906117619190613f40565b505f611776670de0b6b3a76400006002613c25565b6117808684613c25565b61178a9190613c50565b905061179461339e565b6040805160028082526060820183525f926020830190803683370190505090508860a001516001600160a01b031663cbafa8dc858b61010001516002600481106117e0576117e0613d81565b6020020151868987876040518763ffffffff1660e01b815260040161180a96959493929190614173565b5f604051808303815f875af1158015611825573d5f803e3d5ffd5b505050506040513d5f823e601f3d908101601f1916820160405261184c919081019061430b565b5050505050505050505050565b61012081015160208201516040516341976e0960e01b81526001600160a01b0391821660048201525f9291909116906341976e0990602401602060405180830381865afa1580156118ac573d5f803e3d5ffd5b505050506040513d601f19601f820116820180604052508101906118d09190613c63565b90505f670de0b6b3a7640000828461016001516040015160070b6118f49190613c25565b6118fe9190613c50565b90505f670de0b6b3a76400006119176102db8286613c25565b8561016001516020015160070b61192e9190613c25565b6119389190613c50565b604080516003808252608082019092529192505f91906020820160608036833701905050905081815f8151811061197157611971613d81565b602002602001018181525050828160018151811061199157611991613d81565b60209081029190910181019190915261010086015101516040516370a0823160e01b81523060048201525f916001600160a01b0316906370a0823190602401602060405180830381865afa1580156119eb573d5f803e3d5ffd5b505050506040513d601f19601f82011682018060405250810190611a0f9190613c63565b61010087015160200151608088015160405163095ea7b360e01b81526001600160a01b03918216600482015260248101849052929350169063095ea7b3906044016020604051808303815f875af1158015611a6c573d5f803e3d5ffd5b505050506040513d601f19601f82011682018060405250810190611a909190613f40565b505f611aa5670de0b6b3a76400006002613c25565b611aaf8584613c25565b611ab99190613c50565b9050611ac361339e565b6040805160028082526060820183525f9260208301908036833701905050905088608001516001600160a01b031663cbafa8dc858b61010001516001600481106117e0576117e0613d81565b600180546101808301515f92611bac926001600160a01b0316913091602002015160808601516040516370a0823160e01b81523060048201526001600160a01b038216906370a0823190602401602060405180830381865afa158015611b77573d5f803e3d5ffd5b505050506040513d601f19601f82011682018060405250810190611b9b9190613c63565b603288610160015160a0015161206f565b6001546101808401519192505f91611c4e916001600160a01b03169030906003602002015160a08701516040516370a0823160e01b81523060048201526001600160a01b038216906370a0823190602401602060405180830381865afa158015611c18573d5f803e3d5ffd5b505050506040513d601f19601f82011682018060405250810190611c3c9190613c63565b6101f489610160015160e0015161206f565b60015461018085015151610100860151516040516370a0823160e01b815230600482018190529495505f94611cea946001600160a01b039081169491939192908216906370a0823190602401602060405180830381865afa158015611cb5573d5f803e3d5ffd5b505050506040513d601f19601f82011682018060405250810190611cd99190613c63565b60328a61016001516080015161206f565b60015461018086015160409081015161010088015182015191516370a0823160e01b815230600482018190529495505f94611d8b946001600160a01b0390811694919392908216906370a0823190602401602060405180830381865afa158015611d56573d5f803e3d5ffd5b505050506040513d601f19601f82011682018060405250810190611d7a9190613c63565b60328b610160015160c0015161206f565b6001805460c08801516040517fa22cb4650000000000000000000000000000000000000000000000000000000081526001600160a01b03918216600482015260248101939093529293509190911690819063a22cb465906044015f604051808303815f87803b158015611dfc575f80fd5b505af1158015611e0e573d5f803e3d5ffd5b5050505060c0860151604051632142170760e11b81523060048201526001600160a01b03918216602482015260448101879052908216906342842e0e906064015f604051808303815f87803b158015611e65575f80fd5b505af1158015611e77573d5f803e3d5ffd5b5050505060c0860151604051632142170760e11b81523060048201526001600160a01b03918216602482015260448101869052908216906342842e0e906064015f604051808303815f87803b158015611ece575f80fd5b505af1158015611ee0573d5f803e3d5ffd5b5050505060c0860151604051632142170760e11b81523060048201526001600160a01b03918216602482015260448101859052908216906342842e0e906064015f604051808303815f87803b158015611f37575f80fd5b505af1158015611f49573d5f803e3d5ffd5b5050505060e0860151604051632142170760e11b81523060048201526001600160a01b03918216602482015260448101849052908216906342842e0e906064015f604051808303815f87803b158015611fa0575f80fd5b505af1158015611fb2573d5f803e3d5ffd5b50505050611fbf866124e3565b505050505050565b5f80608083901c15611fdb57608092831c92015b604083901c15611fed57604092831c92015b602083901c15611fff57602092831c92015b601083901c1561201157601092831c92015b600883901c1561202357600892831c92015b600483901c1561203557600492831c92015b600283901c1561204757600292831c92015b600183901c156111895760010192915050565b5f8183106120685781611121565b5090919050565b5f80866001600160a01b031663d0c93a7c6040518163ffffffff1660e01b8152600401602060405180830381865afa1580156120ad573d5f803e3d5ffd5b505050506040513d601f19601f820116820180604052508101906120d191906143ca565b90505f6120dd84612a22565b90505f806120ed8a8a888b612d83565b915091505f8a6001600160a01b0316630dfe16816040518163ffffffff1660e01b8152600401602060405180830381865afa15801561212e573d5f803e3d5ffd5b505050506040513d601f19601f820116820180604052508101906121529190613f25565b60405163095ea7b360e01b81526001600160a01b038f8116600483015260248201869052919091169063095ea7b3906044016020604051808303815f875af11580156121a0573d5f803e3d5ffd5b505050506040513d601f19601f820116820180604052508101906121c49190613f40565b508a6001600160a01b031663d21220a76040518163ffffffff1660e01b8152600401602060405180830381865afa158015612201573d5f803e3d5ffd5b505050506040513d601f19601f820116820180604052508101906122259190613f25565b60405163095ea7b360e01b81526001600160a01b038f8116600483015260248201859052919091169063095ea7b3906044016020604051808303815f875af1158015612273573d5f803e3d5ffd5b505050506040513d601f19601f820116820180604052508101906122979190613f40565b508c6001600160a01b031663883164566040518061016001604052808e6001600160a01b0316630dfe16816040518163ffffffff1660e01b8152600401602060405180830381865afa1580156122ef573d5f803e3d5ffd5b505050506040513d601f19601f820116820180604052508101906123139190613f25565b6001600160a01b031681526020018e6001600160a01b031663d21220a76040518163ffffffff1660e01b8152600401602060405180830381865afa15801561235d573d5f803e3d5ffd5b505050506040513d601f19601f820116820180604052508101906123819190613f25565b6001600160a01b031681526020018e6001600160a01b031663ddca3f436040518163ffffffff1660e01b8152600401602060405180830381865afa1580156123cb573d5f803e3d5ffd5b505050506040513d601f19601f820116820180604052508101906123ef91906143ea565b62ffffff1681526020018b6124048a8a61440c565b61240e908a61442d565b612418919061442d565b60020b81526020018b61242b8a8a61440c565b612435908a61442d565b61243f9190614452565b60020b81526020018681526020018581526020015f81526020015f81526020018f6001600160a01b03168152602001428152506040518263ffffffff1660e01b815260040161248e9190614477565b6080604051808303815f875af11580156124aa573d5f803e3d5ffd5b505050506040513d601f19601f820116820180604052508101906124ce919061453b565b50919f9e505050505050505050505050505050565b6040805161014081018252828201516001600160a01b03908116825260208085015182168184015261010085018051518316848601528051909101518216606084015280519093015116608082015290515f919060a08201906003602090810291909101516001600160a01b03908116835260808087015182169284019290925260a08601518116604084015260c08601518116606084015260e08601511691015290505f805b600a81101561262e575f8382600a81106125a6576125a6613d81565b60200201516040516370a0823160e01b81523060048201526001600160a01b03909116906370a0823190602401602060405180830381865afa1580156125ee573d5f803e3d5ffd5b505050506040513d601f19601f820116820180604052508101906126129190613c63565b111561262657816126228161458a565b9250505b60010161258a565b505f8167ffffffffffffffff81111561264957612649613446565b6040519080825280602002602001820160405280156126bb57816020015b6126a86040805160a08101909152805f81526020015f6001600160a01b031681526020015f6001600160a01b031681526020015f8152602001606081525090565b8152602001906001900390816126675790505b5090505f805b600a8110156129bb575f8582600a81106126dd576126dd613d81565b60200201516040516370a0823160e01b81523060048201526001600160a01b03909116906370a0823190602401602060405180830381865afa158015612725573d5f803e3d5ffd5b505050506040513d601f19601f820116820180604052508101906127499190613c63565b90505f87606001516001600160a01b031663123430db6040518163ffffffff1660e01b8152600401602060405180830381865afa15801561278c573d5f803e3d5ffd5b505050506040513d601f19601f820116820180604052508101906127b09190613f25565b6001600160a01b0316630fa6066e8885600a81106127d0576127d0613d81565b60200201516040517fffffffff0000000000000000000000000000000000000000000000000000000060e084901b1681526001600160a01b039091166004820152602401602060405180830381865afa15801561282f573d5f803e3d5ffd5b505050506040513d601f19601f820116820180604052508101906128539190613f40565b90506128966040805160a08101909152805f81526020015f6001600160a01b031681526020015f6001600160a01b031681526020015f8152602001606081525090565b81156128c65788516128bf908986600a81106128b4576128b4613d81565b602002015185612e93565b90506128ec565b88516128e9908986600a81106128de576128de613d81565b60200201518561118f565b90505b821561291f578086868151811061290557612905613d81565b6020026020010181905250848061291b9061458a565b9550505b8784600a811061293157612931613d81565b60200201516101408a015160405163095ea7b360e01b81526001600160a01b0391821660048201525f19602482015291169063095ea7b3906044016020604051808303815f875af1158015612988573d5f803e3d5ffd5b505050506040513d601f19601f820116820180604052508101906129ac9190613f40565b505050508060010190506126c1565b505083606001516001600160a01b0316635dc1e4e6825f6040518363ffffffff1660e01b81526004016129ef9291906145a2565b5f604051808303815f87803b158015612a06575f80fd5b505af1158015612a18573d5f803e3d5ffd5b5050505050505050565b5f6401000276a36001600160a01b03831610801590612a5d575073fffd8963efd1fc6a506488495d951d5263988d266001600160a01b038316105b612a93576040517f4980e1be00000000000000000000000000000000000000000000000000000000815260040160405180910390fd5b77ffffffffffffffffffffffffffffffffffffffff00000000602083901b166fffffffffffffffffffffffffffffffff811160071b81811c67ffffffffffffffff811160061b90811c63ffffffff811160051b90811c61ffff811160041b90811c60ff8111600390811b91821c600f811160021b90811c918211600190811b92831c97908811961790941790921717909117171760808110612b3d57607f810383901c9150612b47565b80607f0383901b91505b908002607f81811c60ff83811c9190911c800280831c81831c1c800280841c81841c1c800280851c81851c1c800280861c81861c1c800280871c81871c1c800280881c81881c1c800280891c81891c1c8002808a1c818a1c1c8002808b1c818b1c1c8002808c1c818c1c1c8002808d1c818d1c1c8002808e1c9c81901c9c909c1c80029c8d901c9e9d7fffffffffffffffffffffffffffffffffffffffffffffffffffffffffffffff808f0160401b60c09190911c678000000000000000161760c19b909b1c674000000000000000169a909a1760c29990991c672000000000000000169890981760c39790971c671000000000000000169690961760c49590951c670800000000000000169490941760c59390931c670400000000000000169290921760c69190911c670200000000000000161760c79190911c670100000000000000161760c89190911c6680000000000000161760c99190911c6640000000000000161760ca9190911c6620000000000000161760cb9190911c6610000000000000161760cc9190911c6608000000000000161760cd9190911c66040000000000001617693627a301d71055774c8581027ffffffffffffffffffffffffffffffffffd709b7e5480fba5a50fed5e62ffc5568101608090811d906fdb2df09e81959a81455e260799a0632f8301901d600281810b9083900b14612d7457886001600160a01b0316612d5982612ee7565b6001600160a01b03161115612d6e5781612d76565b80612d76565b815b9998505050505050505050565b5f805f866001600160a01b0316630dfe16816040518163ffffffff1660e01b8152600401602060405180830381865afa158015612dc2573d5f803e3d5ffd5b505050506040513d601f19601f82011682018060405250810190612de69190613f25565b90505f816001600160a01b0316876001600160a01b031603612e4657612e3985612e1a60026001600160a01b038a16613d73565b7801000000000000000000000000000000000000000000000000613228565b8594509250612e8a915050565b612e7d857801000000000000000000000000000000000000000000000000612e7860026001600160a01b038b16613d73565b613228565b9350849250612e8a915050565b94509492505050565b612ed46040805160a08101909152805f81526020015f6001600160a01b031681526020015f6001600160a01b031681526020015f8152602001606081525090565b6040805160a081019091528060056111de565b5f805f8360020b12612efc578260020b612f03565b8260020b5f035b9050620d89e8811115612f42576040517f2bc80f3a00000000000000000000000000000000000000000000000000000000815260040160405180910390fd5b5f816001165f03612f6457700100000000000000000000000000000000612f76565b6ffffcb933bd6fad37aa2d162d1a5940015b70ffffffffffffffffffffffffffffffffff1690506002821615612faa576ffff97272373d413259a46990580e213a0260801c5b6004821615612fc9576ffff2e50f5f656932ef12357cf3c7fdcc0260801c5b6008821615612fe8576fffe5caca7e10e4e61c3624eaa0941cd00260801c5b6010821615613007576fffcb9843d60f6159c9db58835c9266440260801c5b6020821615613026576fff973b41fa98c081472e6896dfb254c00260801c5b6040821615613045576fff2ea16466c96a3843ec78b326b528610260801c5b6080821615613064576ffe5dee046a99a2a811c461f1969c30530260801c5b610100821615613084576ffcbe86c7900a88aedcffc83b479aa3a40260801c5b6102008216156130a4576ff987a7253ac413176f2b074cf7815e540260801c5b6104008216156130c4576ff3392b0822b70005940c7a398e4b70f30260801c5b6108008216156130e4576fe7159475a2c29b7443b29c7fa6e889d90260801c5b611000821615613104576fd097f3bdfd2022b8845ad8f792aa58250260801c5b612000821615613124576fa9f746462d870fdf8a65dc1f90e061e50260801c5b614000821615613144576f70d869a156d2a1b890bb3df62baf32f70260801c5b618000821615613164576f31be135f97d08fd981231505542fcfa60260801c5b62010000821615613185576f09aa508b5b7a84e1c677de54f3e99bc90260801c5b620200008216156131a5576e5d6af8dedb81196699c329225ee6040260801c5b620400008216156131c4576d2216e584f5fa1ea926041bedfe980260801c5b620800008216156131e1576b048a170391f7dc42444e8fa20260801c5b5f8460020b131561320057805f19816131fc576131fc613c3c565b0490505b640100000000810615613214576001613216565b5f5b60ff16602082901c0192505050919050565b5f80805f19858709858702925082811083820303915050805f0361325c575f8411613251575f80fd5b508290049050611121565b808411613267575f80fd5b5f848688095f868103871696879004966002600389028118808a02820302808a02820302808a02820302808a02820302808a02820302808a02909103029181900381900460010186841190950394909402919094039290920491909117919091029150509392505050565b60405180608001604052806004906020820280368337509192915050565b604080516101a0810182525f80825260208201819052918101829052606081018290526080810182905260a0810182905260c0810182905260e0810191909152610100810161333d6132d2565b81525f6020808301829052604080840183905280516101008101825283815291820183905281018290526060808201839052608080830184905260a0830184905260c0830184905260e0830193909352830152016133996132d2565b905290565b6040518061014001604052805f81526020015f81526020015f81526020015f81526020016133ca61340a565b81526020016133d761340a565b81526020016133e461340a565b81526020016133f161340a565b81526020016133fe613428565b81526020015f81525090565b60405180606001604052806003906020820280368337509192915050565b60405180604001604052806002906020820280368337509192915050565b634e487b7160e01b5f52604160045260245ffd5b604051610100810167ffffffffffffffff8111828210171561347e5761347e613446565b60405290565b6040516101a0810167ffffffffffffffff8111828210171561347e5761347e613446565b604051601f8201601f1916810167ffffffffffffffff811182821017156134d1576134d1613446565b604052919050565b6001600160a01b03811681146134ed575f80fd5b50565b80356134fb816134d9565b919050565b5f82601f83011261350f575f80fd5b6040516080810181811067ffffffffffffffff8211171561353257613532613446565b604052806080840185811115613546575f80fd5b845b8181101561356957803561355b816134d9565b835260209283019201613548565b509195945050505050565b8060070b81146134ed575f80fd5b80356134fb81613574565b5f610100828403121561359e575f80fd5b6135a661345a565b905081356135b381613574565b815260208201356135c381613574565b60208201526135d460408301613582565b60408201526135e560608301613582565b60608201526135f6608083016134f0565b608082015261360760a083016134f0565b60a082015261361860c083016134f0565b60c082015261362960e083016134f0565b60e082015292915050565b5f6103408284031215613645575f80fd5b61364d613484565b9050613658826134f0565b8152613666602083016134f0565b6020820152613677604083016134f0565b6040820152613688606083016134f0565b6060820152613699608083016134f0565b60808201526136aa60a083016134f0565b60a08201526136bb60c083016134f0565b60c08201526136cc60e083016134f0565b60e08201526101006136e084828501613500565b908201526101806136f28382016134f0565b6101208301526137056101a084016134f0565b610140830152613719846101c0850161358d565b61016083015261372d846102c08501613500565b9082015292915050565b5f805f610380848603121561374a575f80fd5b83359250602084013591506137628560408601613634565b90509250925092565b5f81518084525f5b8181101561378f57602081850181015186830182015201613773565b505f602082860101526020601f19601f83011685010191505092915050565b5f82825180855260208086019550808260051b8401018186015f5b8481101561385457601f19868403018952815160a08151600881106137fc57634e487b7160e01b5f52602160045260245ffd5b8552818601516001600160a01b039081168787015260408084015190911690860152606080830151908601526080918201519185018190526138408186018361376b565b9a86019a94505050908301906001016137c9565b5090979650505050505050565b60c081525f61387360c08301856137ae565b905082516020830152602083015160408301526040830151606083015260608301516080830152608083015160a08301529392505050565b5f805f805f61010086880312156138c0575f80fd5b85356138cb816134d9565b945060208601356138db816134d9565b93506138ea8760408801613500565b925060c08601356138fa816134d9565b915060e086013561390a816134d9565b809150509295509295909350565b805f5b60048110156139435781516001600160a01b031684526020938401939091019060010161391b565b50505050565b608081016111898284613918565b5f6103408284031215613968575f80fd5b6111218383613634565b5f60208284031215613982575f80fd5b5035919050565b805160070b8252602081015160070b6020830152604081015160070b6040830152606081015160070b606083015260808101516001600160a01b0380821660808501528060a08401511660a08501528060c08401511660c0850152505060e0810151613a0060e08401826001600160a01b03169052565b505050565b81516001600160a01b0316815261034081016020830151613a3160208401826001600160a01b03169052565b506040830151613a4c60408401826001600160a01b03169052565b506060830151613a6760608401826001600160a01b03169052565b506080830151613a8260808401826001600160a01b03169052565b5060a0830151613a9d60a08401826001600160a01b03169052565b5060c0830151613ab860c08401826001600160a01b03169052565b5060e0830151613ad360e08401826001600160a01b03169052565b5061010080840151613ae782850182613918565b5050610120830151610180613b06818501836001600160a01b03169052565b6101408501516001600160a01b03166101a08501526101608501519150613b316101c0850183613989565b8401519050613b446102c0840182613918565b5092915050565b5f805f805f808688036102e0811215613b62575f80fd5b8735965060208801359550604088013594506102607fffffffffffffffffffffffffffffffffffffffffffffffffffffffffffffffa082011215613ba4575f80fd5b506060870192506102c087013567ffffffffffffffff80821115613bc6575f80fd5b818901915089601f830112613bd9575f80fd5b813581811115613be7575f80fd5b8a60208260051b8501011115613bfb575f80fd5b6020830194508093505050509295509295509295565b634e487b7160e01b5f52601160045260245ffd5b808202811582820484141761118957611189613c11565b634e487b7160e01b5f52601260045260245ffd5b5f82613c5e57613c5e613c3c565b500490565b5f60208284031215613c73575f80fd5b5051919050565b60ff828116828216039081111561118957611189613c11565b600181815b80851115613ccd57815f1904821115613cb357613cb3613c11565b80851615613cc057918102915b93841c9390800290613c98565b509250929050565b5f82613ce357506001611189565b81613cef57505f611189565b8160018114613d055760028114613d0f57613d2b565b6001915050611189565b60ff841115613d2057613d20613c11565b50506001821b611189565b5060208310610133831016604e8410600b8410161715613d4e575081810a611189565b613d588383613c93565b805f1904821115613d6b57613d6b613c11565b029392505050565b5f61112160ff841683613cd5565b634e487b7160e01b5f52603260045260245ffd5b80516134fb81613574565b80516134fb816134d9565b5f805f805f805f805f898b03610200811215613dc5575f80fd5b8a51613dd0816134d9565b60208c0151909a50613de1816134d9565b60408c0151909950613df2816134d9565b60608c0151909850613e03816134d9565b60808c0151909750613e14816134d9565b60a08c0151909650613e25816134d9565b60c08c0151909550613e36816134d9565b60e08c0151909450613e47816134d9565b92506101007fffffffffffffffffffffffffffffffffffffffffffffffffffffffffffffff008201811315613e7a575f80fd5b613e8261345a565b908c0151909150613e9281613574565b81526101208b0151613ea381613574565b6020820152613eb56101408c01613d95565b6040820152613ec76101608c01613d95565b6060820152613ed96101808c01613da0565b6080820152613eeb6101a08c01613da0565b60a0820152613efd6101c08c01613da0565b60c0820152613f0f6101e08c01613da0565b60e0820152809150509295985092959850929598565b5f60208284031215613f35575f80fd5b8151611121816134d9565b5f60208284031215613f50575f80fd5b81518015158114611121575f80fd5b805f5b6003811015613943578135845260209384019390910190600101613f62565b8183525f60208085019450825f5b85811015613fda5781357fffffffffffffffffffffffffffffffff000000000000000000000000000000008116808214613fc7575f80fd5b8852509582019590820190600101613f8f565b509495945050505050565b5f6102a0808352613ff8818401886137ae565b905060208635602085015260208701356040850152604087013560608501526060870135608085015261403160a0850160808901613f5f565b614042610100850160e08901613f5f565b61405461016085016101408901613f5f565b6140666101c085016101a08901613f5f565b610220840161020088015f5b600281101561408f57813583529183019190830190600101614072565b505050506102408601356102608401528281036102808401526140b3818587613f81565b979650505050505050565b5f602082840312156140ce575f80fd5b815160ff81168114611121575f80fd5b805f5b60038110156139435781518452602093840193909101906001016140e1565b805f5b6002811015613943578151845260209384019390910190600101614103565b5f815180845260208085019450602084015f5b83811015613fda5781517fffffffffffffffffffffffffffffffff000000000000000000000000000000001687529582019590820190600101614135565b5f61030080830189845260206001600160a01b038a1660208601528860408601528260608601528192508751808352610320860193506020890192505f5b818110156141cd578351855293820193928201926001016141b1565b5050505084516080840152602085015160a0840152604085015160c0840152606085015160e0840152608085015161010061420a818601836140de565b60a0870151915061421f6101608601836140de565b60c087015191506142346101c08601836140de565b60e087015191506142496102208601836140de565b860151905061425c610280850182614100565b506101208501516102c08401528281036102e0840152612d768185614122565b5f67ffffffffffffffff82111561429557614295613446565b5060051b60200190565b5f82601f8301126142ae575f80fd5b815160206142c36142be8361427c565b6134a8565b8083825260208201915060208460051b8701019350868411156142e4575f80fd5b602086015b8481101561430057805183529183019183016142e9565b509695505050505050565b5f806040838503121561431c575f80fd5b825167ffffffffffffffff80821115614333575f80fd5b818501915085601f830112614346575f80fd5b815160206143566142be8361427c565b82815260059290921b84018101918181019089841115614374575f80fd5b948201945b8386101561439b57855161438c816134d9565b82529482019490820190614379565b918801519196509093505050808211156143b3575f80fd5b506143c08582860161429f565b9150509250929050565b5f602082840312156143da575f80fd5b81518060020b8114611121575f80fd5b5f602082840312156143fa575f80fd5b815162ffffff81168114611121575f80fd5b5f8260020b8061441e5761441e613c3c565b808360020b0791505092915050565b600282810b9082900b03627fffff198112627fffff8213171561118957611189613c11565b600281810b9083900b01627fffff8113627fffff198212171561118957611189613c11565b81516001600160a01b03168152610160810160208301516144a360208401826001600160a01b03169052565b5060408301516144ba604084018262ffffff169052565b5060608301516144cf606084018260020b9052565b5060808301516144e4608084018260020b9052565b5060a083015160a083015260c083015160c083015260e083015160e08301526101008084015181840152506101208084015161452a828501826001600160a01b03169052565b505061014092830151919092015290565b5f805f806080858703121561454e575f80fd5b8451935060208501516fffffffffffffffffffffffffffffffff81168114614574575f80fd5b6040860151606090960151949790965092505050565b5f5f19820361459b5761459b613c11565b5060010190565b604081525f6145b460408301856137ae565b9050826020830152939250505056fea264697066735822122010861a466e602fd3ab8a56ac98127f35f53e432c1435a6cecfafc3f569e0070264736f6c63430008180033",
    "linkReferences": {}
  },
  "methodIdentifiers": {
    "ADAPTER_DECIMALS()": "9c726fbe",
    "MAX_ORACLE_LAG()": "8b111e55",
    "_returnOwnerships((address,address,address,address,address,address,address,address,address[4],address,address,(int64,int64,int64,int64,uint160,uint160,uint160,uint160),address[4]))": "7757e180",
    "calculateActionsAndAmounts(uint256,uint256,(address,address,address,address,address,address,address,address,address[4],address,address,(int64,int64,int64,int64,uint160,uint160,uint160,uint160),address[4]))": "1a78014e",
    "fractionOfAssetToVault()": "e2fbbf31",
    "fractionOfNumeraireToVault()": "d20ab771",
    "getLiquidityPools(address,address,address[4],address,address)": "6298a9b5",
    "packFeederParams(uint256)": "aa6f40bb",
    "seedPools(uint256,uint256,uint256,(int256,int256,int256,int256,int256[3],int256[3],int256[3],int256[3],int256[2],uint256),bytes16[])": "dbc0e063"
  },
  "id": 105
}