{
  "abi": [
    {
      "type": "function",
      "name": "__Redemption_init",
      "inputs": [
        {
          "name": "_controller",
          "type": "address",
          "internalType": "address"
        },
        {
          "name": "_spanMargin",
          "type": "address",
          "internalType": "address"
        },
        {
          "name": "_oracle",
          "type": "address",
          "internalType": "address"
        },
        {
          "name": "_protocolUnderlyingAsset",
          "type": "address",
          "internalType": "address"
        },
        {
          "name": "_vault",
          "type": "address",
          "internalType": "address"
        },
        {
          "name": "_powerPerpFactory",
          "type": "address",
          "internalType": "address"
        }
      ],
      "outputs": [],
      "stateMutability": "nonpayable"
    },
    {
      "type": "function",
      "name": "controller",
      "inputs": [],
      "outputs": [
        {
          "name": "",
          "type": "address",
          "internalType": "address"
        }
      ],
      "stateMutability": "view"
    },
    {
      "type": "function",
      "name": "getRedemptionPayout",
      "inputs": [
        {
          "name": "_payoutAsset",
          "type": "address",
          "internalType": "address"
        },
        {
          "name": "_perpToRedeem",
          "type": "address",
          "internalType": "address"
        },
        {
          "name": "_perpAmount",
          "type": "uint256",
          "internalType": "uint256"
        }
      ],
      "outputs": [
        {
          "name": "",
          "type": "uint256",
          "internalType": "uint256"
        }
      ],
      "stateMutability": "view"
    },
    {
      "type": "function",
      "name": "isHighRiskVault",
      "inputs": [
        {
          "name": "_owner",
          "type": "address",
          "internalType": "address"
        },
        {
          "name": "_insolvencyPrice",
          "type": "uint256",
          "internalType": "uint256"
        }
      ],
      "outputs": [
        {
          "name": "",
          "type": "bool",
          "internalType": "bool"
        }
      ],
      "stateMutability": "view"
    },
    {
      "type": "function",
      "name": "oracle",
      "inputs": [],
      "outputs": [
        {
          "name": "",
          "type": "address",
          "internalType": "address"
        }
      ],
      "stateMutability": "view"
    },
    {
      "type": "function",
      "name": "powerPerpFactory",
      "inputs": [],
      "outputs": [
        {
          "name": "",
          "type": "address",
          "internalType": "address"
        }
      ],
      "stateMutability": "view"
    },
    {
      "type": "function",
      "name": "protocolUnderlyingAsset",
      "inputs": [],
      "outputs": [
        {
          "name": "",
          "type": "address",
          "internalType": "address"
        }
      ],
      "stateMutability": "view"
    },
    {
      "type": "function",
      "name": "redeem",
      "inputs": [
        {
          "name": "_owner",
          "type": "address",
          "internalType": "address"
        },
        {
          "name": "_perpToRedeem",
          "type": "address",
          "internalType": "address"
        },
        {
          "name": "_amountToRedeem",
          "type": "uint256",
          "internalType": "uint256"
        },
        {
          "name": "_payoutAsset",
          "type": "address",
          "internalType": "address"
        },
        {
          "name": "_insolvencyPrice",
          "type": "uint256",
          "internalType": "uint256"
        },
        {
          "name": "_preRedemptionSqrtRoots",
          "type": "bytes16[]",
          "internalType": "bytes16[]"
        },
        {
          "name": "_postRedemptionSqrtRoots",
          "type": "bytes16[]",
          "internalType": "bytes16[]"
        }
      ],
      "outputs": [],
      "stateMutability": "nonpayable"
    },
    {
      "type": "function",
      "name": "spanMargin",
      "inputs": [],
      "outputs": [
        {
          "name": "",
          "type": "address",
          "internalType": "address"
        }
      ],
      "stateMutability": "view"
    },
    {
      "type": "function",
      "name": "vault",
      "inputs": [],
      "outputs": [
        {
          "name": "",
          "type": "address",
          "internalType": "address"
        }
      ],
      "stateMutability": "view"
    },
    {
      "type": "event",
      "name": "Initialized",
      "inputs": [
        {
          "name": "version",
          "type": "uint64",
          "indexed": false,
          "internalType": "uint64"
        }
      ],
      "anonymous": false
    },
    {
      "type": "error",
      "name": "InvalidAddress",
      "inputs": []
    },
    {
      "type": "error",
      "name": "InvalidAmount",
      "inputs": []
    },
    {
      "type": "error",
      "name": "InvalidBurnShortPerp",
      "inputs": []
    },
    {
      "type": "error",
      "name": "InvalidCollateralAmount",
      "inputs": []
    },
    {
      "type": "error",
      "name": "InvalidInitialization",
      "inputs": []
    },
    {
      "type": "error",
      "name": "InvalidLiquidateShort",
      "inputs": []
    },
    {
      "type": "error",
      "name": "InvalidWithdrawLongPerp",
      "inputs": []
    },
    {
      "type": "error",
      "name": "NoAvailableSlot",
      "inputs": []
    },
    {
      "type": "error",
      "name": "NotHighRiskVault",
      "inputs": []
    },
    {
      "type": "error",
      "name": "NotInitializing",
      "inputs": []
    },
    {
      "type": "error",
      "name": "SafeCastOverflowedIntToUint",
      "inputs": [
        {
          "name": "value",
          "type": "int256",
          "internalType": "int256"
        }
      ]
    },
    {
      "type": "error",
      "name": "SafeCastOverflowedUintToInt",
      "inputs": [
        {
          "name": "value",
          "type": "uint256",
          "internalType": "uint256"
        }
      ]
    },
    {
      "type": "error",
      "name": "UnsupportedAsset",
      "inputs": []
    },
    {
      "type": "error",
      "name": "VaultNotInsolventAtAllegedPrice",
      "inputs": []
    },
    {
      "type": "error",
      "name": "VaultPortfolioValuesWorse",
      "inputs": []
    }
  ],
  "bytecode": {
    "object": "0x608060405234801561000f575f80fd5b506127ac8061001d5f395ff3fe608060405234801561000f575f80fd5b50600436106100b9575f3560e01c8063b01a8ce111610072578063f77c479111610058578063f77c47911461017f578063f82a207b14610191578063fbfa77cf146101a4575f80fd5b8063b01a8ce114610149578063bec381f01461016a575f80fd5b8063523d83ce116100a2578063523d83ce146101005780637dc0d1d014610123578063ae749a4914610136575f80fd5b8063123430db146100bd5780632d01edcd146100ed575b5f80fd5b6005546100d0906001600160a01b031681565b6040516001600160a01b0390911681526020015b60405180910390f35b6001546100d0906001600160a01b031681565b61011361010e366004611e1c565b6101b7565b60405190151581526020016100e4565b6002546100d0906001600160a01b031681565b6003546100d0906001600160a01b031681565b61015c610157366004611e46565b6102f4565b6040519081526020016100e4565b61017d610178366004611e84565b610397565b005b5f546100d0906001600160a01b031681565b61017d61019f366004611f4a565b61055e565b6004546100d0906001600160a01b031681565b600480546040517f64972b4d0000000000000000000000000000000000000000000000000000000081526001600160a01b0385811693820193909352602481018490525f92909116906364972b4d90604401602060405180830381865afa158015610224573d5f803e3d5ffd5b505050506040513d601f19601f820116820180604052508101906102489190611fff565b61025357505f6102ee565b6002546003546040517f41976e090000000000000000000000000000000000000000000000000000000081526001600160a01b0391821660048201525f9291909116906341976e0990602401602060405180830381865afa1580156102ba573d5f803e3d5ffd5b505050506040513d601f19601f820116820180604052508101906102de919061201e565b90506102ea8184610992565b9150505b92915050565b600480546040517f3e327a560000000000000000000000000000000000000000000000000000000081526001600160a01b03858116938201939093525f9283921690633e327a5690602401602060405180830381865afa15801561035a573d5f803e3d5ffd5b505050506040513d601f19601f8201168201806040525081019061037e919061201e565b905061038c85858584610b47565b9150505b9392505050565b7ff0c57e16840df040f15088dc2f81fe391c3923bec73e23a9662efc9c229c6a00805468010000000000000000810460ff16159067ffffffffffffffff165f811580156103e15750825b90505f8267ffffffffffffffff1660011480156103fd5750303b155b90508115801561040b575080155b15610442576040517ff92ee8a900000000000000000000000000000000000000000000000000000000815260040160405180910390fd5b84547fffffffffffffffffffffffffffffffffffffffffffffffff0000000000000000166001178555831561048d57845468ff00000000000000001916680100000000000000001785555b5f80547fffffffffffffffffffffffff00000000000000000000000000000000000000009081166001600160a01b038e8116919091179092556001805482168d84161790556002805482168c84161790556003805482168b84161790556004805482168a841617905560058054909116918816919091179055831561055157845468ff000000000000000019168555604051600181527fc7f505b2f371ae2175ee4913f4499e1f2633a7b5936321eed1cdaeb6115181d29060200160405180910390a15b5050505050505050505050565b6005546040516307d3033760e11b81526001600160a01b038a8116600483015290911690630fa6066e90602401602060405180830381865afa1580156105a6573d5f803e3d5ffd5b505050506040513d601f19601f820116820180604052508101906105ca9190611fff565b610600576040517f24a0114400000000000000000000000000000000000000000000000000000000815260040160405180910390fd5b600480546040517f64972b4d0000000000000000000000000000000000000000000000000000000081526001600160a01b038c811693820193909352602481018890529116906364972b4d90604401602060405180830381865afa15801561066a573d5f803e3d5ffd5b505050506040513d601f19601f8201168201806040525081019061068e9190611fff565b6106c4576040517f658474f400000000000000000000000000000000000000000000000000000000815260040160405180910390fd5b600480546040517f0eb9af380000000000000000000000000000000000000000000000000000000081526001600160a01b038c8116938201939093525f9290911690630eb9af389060240161060060405180830381865afa15801561072b573d5f803e3d5ffd5b505050506040513d601f19601f8201168201806040525081019061074f91906121a5565b905061075a81611097565b6001546040517f2fc9ec220000000000000000000000000000000000000000000000000000000081525f9182916001600160a01b0390911690632fc9ec22906107ac908a908a906006906004016122c5565b6040805180830381865afa1580156107c6573d5f803e3d5ffd5b505050506040513d601f19601f820116820180604052508101906107ea91906123b7565b925090506107f88189610992565b61082e576040517ff9cf2dc800000000000000000000000000000000000000000000000000000000815260040160405180910390fd5b5061083c8289338d8d6111bd565b61084582611097565b6001546040517f2fc9ec220000000000000000000000000000000000000000000000000000000081525f916001600160a01b031690632fc9ec229061089390889088906006906004016122c5565b6040805180830381865afa1580156108ad573d5f803e3d5ffd5b505050506040513d601f19601f820116820180604052508101906108d191906123b7565b91505080821261090d576040517f7b770b2200000000000000000000000000000000000000000000000000000000815260040160405180910390fd5b50600480546040517fa8eea6780000000000000000000000000000000000000000000000000000000081526001600160a01b039091169163a8eea67891610958918f9187910161249e565b5f604051808303815f87803b15801561096f575f80fd5b505af1158015610981573d5f803e3d5ffd5b505050505050505050505050505050565b5f80670de0b6b3a764000060015f9054906101000a90046001600160a01b03166001600160a01b031663e36ac5ac6040518163ffffffff1660e01b8152600401602060405180830381865afa1580156109ed573d5f803e3d5ffd5b505050506040513d601f19601f82011682018060405250810190610a11919061201e565b610a1a86611499565b610a2491906124d0565b610a2e919061252f565b90505f670de0b6b3a764000060015f9054906101000a90046001600160a01b03166001600160a01b03166314db6e9b6040518163ffffffff1660e01b8152600401602060405180830381865afa158015610a8a573d5f803e3d5ffd5b505050506040513d601f19601f82011682018060405250810190610aae919061201e565b610ab787611499565b610ac191906124d0565b610acb919061252f565b90505f610ad785611499565b905067016345785d8a0000610b3c610b1d610b18670de0b6b3a764000085610aff82896124d0565b610b09919061252f565b610b139190612577565b611500565b611499565b610b37610b18670de0b6b3a764000086610aff828b6124d0565b61150f565b129695505050505050565b600480546040517fb263e0100000000000000000000000000000000000000000000000000000000081526001600160a01b03868116938201939093525f928392839291169063b263e01090602401602060405180830381865afa158015610bb0573d5f803e3d5ffd5b505050506040513d601f19601f82011682018060405250810190610bd4919061201e565b9050610be8670de0b6b3a76400008061259d565b6001546040517f14a804880000000000000000000000000000000000000000000000000000000081526001600160a01b038981166004830152610c759216906314a80488906024015b602060405180830381865afa158015610c4c573d5f803e3d5ffd5b505050506040513d601f19601f82011682018060405250810190610c70919061201e565b611524565b610c7f868461259d565b610c89919061259d565b610c9391906125b4565b6005546040516307d3033760e11b81526001600160a01b038a811660048301529294505f9350839290911690630fa6066e90602401602060405180830381865afa158015610ce3573d5f803e3d5ffd5b505050506040513d601f19601f82011682018060405250810190610d079190611fff565b90508015610ead57600480546040517f3e327a560000000000000000000000000000000000000000000000000000000081526001600160a01b038b8116938201939093525f9290911690633e327a5690602401602060405180830381865afa158015610d75573d5f803e3d5ffd5b505050506040513d601f19601f82011682018060405250810190610d99919061201e565b600480546040517fb263e0100000000000000000000000000000000000000000000000000000000081526001600160a01b038d8116938201939093529293505f9291169063b263e01090602401602060405180830381865afa158015610e01573d5f803e3d5ffd5b505050506040513d601f19601f82011682018060405250810190610e25919061201e565b9050610e39670de0b6b3a76400008061259d565b6001546040517fae7bac8c0000000000000000000000000000000000000000000000000000000081526001600160a01b038d81166004830152610e8692169063ae7bac8c90602401610c31565b610e90848461259d565b610e9a919061259d565b610ea491906125b4565b93505050610fd7565b5f8054906101000a90046001600160a01b03166001600160a01b031663af30b56c6040518163ffffffff1660e01b8152600401602060405180830381865afa158015610efb573d5f803e3d5ffd5b505050506040513d601f19601f82011682018060405250810190610f1f91906125c7565b6001600160a01b0316886001600160a01b031603610f4757670de0b6b3a76400009150610fd7565b6002546040517f66d7505b0000000000000000000000000000000000000000000000000000000081526001600160a01b038a811660048301526102d06024830152909116906366d7505b90604401602060405180830381865afa158015610fb0573d5f803e3d5ffd5b505050506040513d601f19601f82011682018060405250810190610fd4919061201e565b91505b5f82610fe3858961259d565b610fed91906125b4565b6040517f5ad0c72a000000000000000000000000000000000000000000000000000000008152600481018290526001600160a01b038b16602482015290915073__$faf868423ddbcc634cdce9c386a9da8ad1$__90635ad0c72a90604401602060405180830381865af4158015611066573d5f803e3d5ffd5b505050506040513d601f19601f8201168201806040525081019061108a919061201e565b9998505050505050505050565b6001546040517f811afa3b0000000000000000000000000000000000000000000000000000000081526001600160a01b039091169063811afa3b906110e09084906004016125e2565b61026060405180830381865afa1580156110fc573d5f803e3d5ffd5b505050506040513d601f19601f820116820180604052508101906111209190612666565b80516006908155602082015160075560408201516008556060820151600955608082015161115290600a906003611d8a565b5060a08201516111689060078301906003611d8a565b5060c082015161117e90600a8301906003611d8a565b5060e082015161119490600d8301906003611d8a565b506101008201516111ab9060108301906002611dc4565b50610120820151816012015590505050565b600480546040517f4b78a9d20000000000000000000000000000000000000000000000000000000081526001600160a01b03858116938201939093525f9290911690634b78a9d2906024016020604051808303815f875af1158015611224573d5f803e3d5ffd5b505050506040513d601f19601f82011682018060405250810190611248919061201e565b6005546040516307d3033760e11b81526001600160a01b0388811660048301529293505f9290911690630fa6066e90602401602060405180830381865afa158015611295573d5f803e3d5ffd5b505050506040513d601f19601f820116820180604052508101906112b99190611fff565b9050801561134b57600480546040517f4b78a9d20000000000000000000000000000000000000000000000000000000081526001600160a01b0389811693820193909352911690634b78a9d2906024016020604051808303815f875af1158015611325573d5f803e3d5ffd5b505050506040513d601f19601f82011682018060405250810190611349919061201e565b505b5f61135887868686610b47565b905081156113705761136b888883611562565b61137b565b61137b888883611645565b6113878886865f6116e9565b600480546040517fabdf25690000000000000000000000000000000000000000000000000000000081526001600160a01b038881169382019390935288831660248201526044810187905291169063abdf2569906064015f604051808303815f87803b1580156113f5575f80fd5b505af1158015611407573d5f803e3d5ffd5b5050600480546040517f453cf4bd0000000000000000000000000000000000000000000000000000000081526001600160a01b038c8116938201939093528a83166024820152604481018690529116925063453cf4bd91506064015f604051808303815f87803b158015611479575f80fd5b505af115801561148b573d5f803e3d5ffd5b505050505050505050505050565b5f7f7fffffffffffffffffffffffffffffffffffffffffffffffffffffffffffffff8211156114fc576040517f24775e06000000000000000000000000000000000000000000000000000000008152600481018390526024015b60405180910390fd5b5090565b5f808212156114fc57505f0390565b5f81831261151d5781610390565b5090919050565b5f808212156114fc576040517fa8ce4432000000000000000000000000000000000000000000000000000000008152600481018390526024016114f3565b6001600160a01b0382166115895760405163e6c4247b60e01b815260040160405180910390fd5b805f036115c2576040517f2c5211c600000000000000000000000000000000000000000000000000000000815260040160405180910390fd5b5f6115cd8484611815565b90506115d882611499565b816020018181516115e99190612577565b90525060208101515f131561162a576040517f2eb3107700000000000000000000000000000000000000000000000000000000815260040160405180910390fd5b80602001515f0361163f5761163f848261194b565b50505050565b6001600160a01b03821661166c5760405163e6c4247b60e01b815260040160405180910390fd5b5f6116778484611ada565b905061168282611499565b816020018181516116939190612577565b90525060208101515f13156116d4576040517ffbd85bc300000000000000000000000000000000000000000000000000000000815260040160405180910390fd5b80602001515f0361163f5761163f8482611c13565b6001600160a01b0383166117105760405163e6c4247b60e01b815260040160405180910390fd5b815f03611749576040517f2c5211c600000000000000000000000000000000000000000000000000000000815260040160405180910390fd5b5f6117548585611815565b905061175f83611499565b816020018181516117709190612713565b90525081156117bb575f8160200151126117b6576040517fad5cd32500000000000000000000000000000000000000000000000000000000815260040160405180910390fd5b61180e565b5f816020015113156117f9576040517fb4d491b100000000000000000000000000000000000000000000000000000000815260040160405180910390fd5b80602001515f0361180e5761180e858261194b565b5050505050565b604080518082019091525f8082526020820152825151516001600160a01b0316158061184f5750825151516001600160a01b038381169116145b156118645782515f5b602002015190506102ee565b604080518082019091525f808252602082015260015b60048110156119095784516001600160a01b0385169082600481106118a1576118a161273a565b6020020151516001600160a01b031614806118dd575084515f9082600481106118cc576118cc61273a565b6020020151516001600160a01b0316145b1561190157845181600481106118f5576118f561273a565b60200201519150611909565b60010161187a565b60048103611943576040517f227fc94000000000000000000000000000000000000000000000000000000000815260040160405180910390fd5b509392505050565b5f6119586001600461274e565b90505f5b600481101561163f57825184516001600160a01b039091169082600481106119865761198661273a565b6020020151516001600160a01b031603611ad257818114611a2b5783515f9083600481106119b6576119b661273a565b602002015180519091506001600160a01b0316611a29575f6119d960018561274e565b90505b82811115611a275785515f9082600481106119f9576119f961273a565b6020020151516001600160a01b031614611a1557809350611a27565b80611a1f81612761565b9150506119dc565b505b505b83518160048110611a3e57611a3e61273a565b602002015184518360048110611a5657611a5661273a565b602002015185518460048110611a6e57611a6e61273a565b60200201865f01518460048110611a8757611a8761273a565b60200201919091525283518260048110611aa357611aa361273a565b60200201611acb60405180604001604052805f6001600160a01b031681526020015f81525090565b905261163f565b60010161195c565b604080518082019091525f80825260208083019190915283015151516001600160a01b03161580611b1c5750602083015151516001600160a01b038381169116145b15611b2c5760208301515f611858565b604080518082019091525f808252602082015260015b600a811015611bd957836001600160a01b0316856020015182600a8110611b6b57611b6b61273a565b6020020151516001600160a01b03161480611baa575060208501515f9082600a8110611b9957611b9961273a565b6020020151516001600160a01b0316145b15611bd157846020015181600a8110611bc557611bc561273a565b60200201519150611bd9565b600101611b42565b600a8103611943576040517f227fc94000000000000000000000000000000000000000000000000000000000815260040160405180910390fd5b5f611c206001600a61274e565b90505f5b600a81101561163f57825f01516001600160a01b0316846020015182600a8110611c5057611c5061273a565b6020020151516001600160a01b031603611d8257818114611cfa575f846020015183600a8110611c8257611c8261273a565b602002015180519091506001600160a01b0316611cf8575f611ca560018561274e565b90505b82811115611cf65760208601515f9082600a8110611cc857611cc861273a565b6020020151516001600160a01b031614611ce457809350611cf6565b80611cee81612761565b915050611ca8565b505b505b836020015181600a8110611d1057611d1061273a565b6020020151846020015183600a8110611d2b57611d2b61273a565b6020020151856020015184600a8110611d4657611d4661273a565b60200201866020015184600a8110611d6057611d6061273a565b602002018290528290525050836020015182600a8110611aa357611aa361273a565b600101611c24565b8260038101928215611db8579160200282015b82811115611db8578251825591602001919060010190611d9d565b506114fc929150611df1565b8260028101928215611db85791602002820182811115611db8578251825591602001919060010190611d9d565b5b808211156114fc575f8155600101611df2565b6001600160a01b0381168114611e19575f80fd5b50565b5f8060408385031215611e2d575f80fd5b8235611e3881611e05565b946020939093013593505050565b5f805f60608486031215611e58575f80fd5b8335611e6381611e05565b92506020840135611e7381611e05565b929592945050506040919091013590565b5f805f805f8060c08789031215611e99575f80fd5b8635611ea481611e05565b95506020870135611eb481611e05565b94506040870135611ec481611e05565b93506060870135611ed481611e05565b92506080870135611ee481611e05565b915060a0870135611ef481611e05565b809150509295509295509295565b5f8083601f840112611f12575f80fd5b50813567ffffffffffffffff811115611f29575f80fd5b6020830191508360208260051b8501011115611f43575f80fd5b9250929050565b5f805f805f805f805f60e08a8c031215611f62575f80fd5b8935611f6d81611e05565b985060208a0135611f7d81611e05565b975060408a0135965060608a0135611f9481611e05565b955060808a0135945060a08a013567ffffffffffffffff80821115611fb7575f80fd5b611fc38d838e01611f02565b909650945060c08c0135915080821115611fdb575f80fd5b50611fe88c828d01611f02565b915080935050809150509295985092959850929598565b5f6020828403121561200f575f80fd5b81518015158114610390575f80fd5b5f6020828403121561202e575f80fd5b5051919050565b634e487b7160e01b5f52604160045260245ffd5b6040805190810167ffffffffffffffff8111828210171561206c5761206c612035565b60405290565b6040516060810167ffffffffffffffff8111828210171561206c5761206c612035565b604051610140810167ffffffffffffffff8111828210171561206c5761206c612035565b5f604082840312156120c9575f80fd5b6120d1612049565b905081516120de81611e05565b808252506020820151602082015292915050565b5f604080516080810181811067ffffffffffffffff8211171561211757612117612035565b60405291508161010084018581111561212e575f80fd5b845b818110156121515761214287826120b9565b83526020909201918301612130565b5050505092915050565b5f612164612095565b905080610280830184811115612178575f80fd5b835b8181101561219c5761218c86826120b9565b835260209092019160400161217a565b50505092915050565b5f6106008083850312156121b7575f80fd5b6121bf612072565b84601f8501126121cd575f80fd5b6121d785856120f2565b81528461011f8501126121e8575f80fd5b6121f685610100860161215b565b60208160208401528661039f87011261220d575f80fd5b612215612095565b9386019391508187851115612228575f80fd5b61038087015b85811015612270576040818a031215612245575f80fd5b61224d612049565b815161225881611e05565b8152818401518482015284529282019260400161222e565b506040840152509095945050505050565b805f5b600381101561163f578154845260209093019260019182019101612284565b805f5b600281101561163f5781548452602090930192600191820191016122a6565b61028080825281018390525f6102a0820185825b868110156123275781357fffffffffffffffffffffffffffffffff000000000000000000000000000000008116808214612311575f80fd5b84525060209283019291909101906001016122d9565b505083546020840152600184015460408401526002840154606084015260038401546080840152905061236060a0830160048501612281565b612371610100830160078501612281565b6123826101608301600a8501612281565b6123936101c08301600d8501612281565b6123a46102208301601085016122a3565b6012830154610260830152949350505050565b5f80604083850312156123c8575f80fd5b505080516020909101519092909150565b8051825f5b600481101561241257825180516001600160a01b0316835260209081015181840152909201916040909101906001016123de565b50505060208082015161010084015f5b600a81101561245657825180516001600160a01b031683526020908101519083015260408201928401929150600101612422565b50505060408083015161038085015f5b600a81101561249557825180516001600160a01b03168352850151858301529184019190830190600101612466565b50505050505050565b6001600160a01b0383168152610620810161039060208301846123d9565b634e487b7160e01b5f52601160045260245ffd5b8082025f82127f800000000000000000000000000000000000000000000000000000000000000084141615612507576125076124bc565b81810583148215176102ee576102ee6124bc565b634e487b7160e01b5f52601260045260245ffd5b5f8261253d5761253d61251b565b5f1983147f800000000000000000000000000000000000000000000000000000000000000083141615612572576125726124bc565b500590565b8181035f831280158383131683831282161715612596576125966124bc565b5092915050565b80820281158282048414176102ee576102ee6124bc565b5f826125c2576125c261251b565b500490565b5f602082840312156125d7575f80fd5b815161039081611e05565b61060081016102ee82846123d9565b5f82601f830112612600575f80fd5b612608612072565b806060840185811115612619575f80fd5b845b8181101561263357805184526020938401930161261b565b509095945050505050565b5f82601f83011261264d575f80fd5b612655612049565b806040840185811115612619575f80fd5b5f6102608284031215612677575f80fd5b61267f612095565b825181526020830151602082015260408301516040820152606083015160608201526126ae84608085016125f1565b60808201526126c08460e085016125f1565b60a08201526126d38461014085016125f1565b60c08201526126e6846101a085016125f1565b60e08201526126f984610200850161263e565b610100820152610240929092015161012083015250919050565b8082018281125f831280158216821582161715612732576127326124bc565b505092915050565b634e487b7160e01b5f52603260045260245ffd5b818103818111156102ee576102ee6124bc565b5f8161276f5761276f6124bc565b505f19019056fea26469706673582212209c44306c576462eba52873cc2a3116eb6dd6655d735acf3d486f12954ab9eb0564736f6c63430008180033",
    "linkReferences": {
      "src/core/lib/LiquidationLib.sol": {
        "LiquidationLib": [
          {
            "start": 4171,
            "length": 20
          }
        ]
      }
    }
  },
  "methodIdentifiers": {
    "__Redemption_init(address,address,address,address,address,address)": "bec381f0",
    "controller()": "f77c4791",
    "getRedemptionPayout(address,address,uint256)": "b01a8ce1",
    "isHighRiskVault(address,uint256)": "523d83ce",
    "oracle()": "7dc0d1d0",
    "powerPerpFactory()": "123430db",
    "protocolUnderlyingAsset()": "ae749a49",
    "redeem(address,address,uint256,address,uint256,bytes16[],bytes16[])": "f82a207b",
    "spanMargin()": "2d01edcd",
    "vault()": "fbfa77cf"
  },
  "id": 109
}