{
  "abi": [
    {
      "type": "function",
      "name": "__Shutdown_init",
      "inputs": [
        {
          "name": "_controller",
          "type": "address",
          "internalType": "address"
        },
        {
          "name": "_spanMargin",
          "type": "address",
          "internalType": "address"
        },
        {
          "name": "_oracle",
          "type": "address",
          "internalType": "address"
        },
        {
          "name": "_protocolUnderlyingAsset",
          "type": "address",
          "internalType": "address"
        },
        {
          "name": "_vault",
          "type": "address",
          "internalType": "address"
        },
        {
          "name": "_powerPerpFactory",
          "type": "address",
          "internalType": "address"
        }
      ],
      "outputs": [],
      "stateMutability": "nonpayable"
    },
    {
      "type": "function",
      "name": "controller",
      "inputs": [],
      "outputs": [
        {
          "name": "",
          "type": "address",
          "internalType": "address"
        }
      ],
      "stateMutability": "view"
    },
    {
      "type": "function",
      "name": "decomposeNftShutdown",
      "inputs": [
        {
          "name": "_vaultOwner",
          "type": "address",
          "internalType": "address"
        },
        {
          "name": "_nonFungibleAsset",
          "type": "address",
          "internalType": "address"
        },
        {
          "name": "_tokenId",
          "type": "uint256",
          "internalType": "uint256"
        }
      ],
      "outputs": [],
      "stateMutability": "nonpayable"
    },
    {
      "type": "function",
      "name": "finalizeShutdown",
      "inputs": [],
      "outputs": [],
      "stateMutability": "nonpayable"
    },
    {
      "type": "function",
      "name": "getNetVaultValue",
      "inputs": [
        {
          "name": "_userVault",
          "type": "address",
          "internalType": "address"
        }
      ],
      "outputs": [
        {
          "name": "",
          "type": "int256",
          "internalType": "int256"
        }
      ],
      "stateMutability": "view"
    },
    {
      "type": "function",
      "name": "hasRedeemedVault",
      "inputs": [
        {
          "name": "",
          "type": "address",
          "internalType": "address"
        }
      ],
      "outputs": [
        {
          "name": "",
          "type": "bool",
          "internalType": "bool"
        }
      ],
      "stateMutability": "view"
    },
    {
      "type": "function",
      "name": "hasShutdownFinalized",
      "inputs": [],
      "outputs": [
        {
          "name": "",
          "type": "bool",
          "internalType": "bool"
        }
      ],
      "stateMutability": "view"
    },
    {
      "type": "function",
      "name": "hasShutdownStarted",
      "inputs": [],
      "outputs": [
        {
          "name": "",
          "type": "bool",
          "internalType": "bool"
        }
      ],
      "stateMutability": "view"
    },
    {
      "type": "function",
      "name": "indexForSettlement",
      "inputs": [],
      "outputs": [
        {
          "name": "",
          "type": "uint256",
          "internalType": "uint256"
        }
      ],
      "stateMutability": "view"
    },
    {
      "type": "function",
      "name": "oracle",
      "inputs": [],
      "outputs": [
        {
          "name": "",
          "type": "address",
          "internalType": "address"
        }
      ],
      "stateMutability": "view"
    },
    {
      "type": "function",
      "name": "owner",
      "inputs": [],
      "outputs": [
        {
          "name": "",
          "type": "address",
          "internalType": "address"
        }
      ],
      "stateMutability": "view"
    },
    {
      "type": "function",
      "name": "powerPerpFactory",
      "inputs": [],
      "outputs": [
        {
          "name": "",
          "type": "address",
          "internalType": "address"
        }
      ],
      "stateMutability": "view"
    },
    {
      "type": "function",
      "name": "protocolUnderlyingAsset",
      "inputs": [],
      "outputs": [
        {
          "name": "",
          "type": "address",
          "internalType": "address"
        }
      ],
      "stateMutability": "view"
    },
    {
      "type": "function",
      "name": "redeemLongShutdown",
      "inputs": [
        {
          "name": "_powerPerp",
          "type": "address",
          "internalType": "address"
        },
        {
          "name": "_amount",
          "type": "uint256",
          "internalType": "uint256"
        }
      ],
      "outputs": [],
      "stateMutability": "nonpayable"
    },
    {
      "type": "function",
      "name": "redeemShortShutdown",
      "inputs": [],
      "outputs": [],
      "stateMutability": "nonpayable"
    },
    {
      "type": "function",
      "name": "renounceOwnership",
      "inputs": [],
      "outputs": [],
      "stateMutability": "nonpayable"
    },
    {
      "type": "function",
      "name": "shutdownBadDebt",
      "inputs": [],
      "outputs": [
        {
          "name": "",
          "type": "uint256",
          "internalType": "uint256"
        }
      ],
      "stateMutability": "view"
    },
    {
      "type": "function",
      "name": "shutdownTotalCollateralValue",
      "inputs": [],
      "outputs": [
        {
          "name": "",
          "type": "uint256",
          "internalType": "uint256"
        }
      ],
      "stateMutability": "view"
    },
    {
      "type": "function",
      "name": "spanMargin",
      "inputs": [],
      "outputs": [
        {
          "name": "",
          "type": "address",
          "internalType": "address"
        }
      ],
      "stateMutability": "view"
    },
    {
      "type": "function",
      "name": "startShutdown",
      "inputs": [],
      "outputs": [],
      "stateMutability": "nonpayable"
    },
    {
      "type": "function",
      "name": "startShutdownTimestamp",
      "inputs": [],
      "outputs": [
        {
          "name": "",
          "type": "uint256",
          "internalType": "uint256"
        }
      ],
      "stateMutability": "view"
    },
    {
      "type": "function",
      "name": "transferOwnership",
      "inputs": [
        {
          "name": "newOwner",
          "type": "address",
          "internalType": "address"
        }
      ],
      "outputs": [],
      "stateMutability": "nonpayable"
    },
    {
      "type": "function",
      "name": "vault",
      "inputs": [],
      "outputs": [
        {
          "name": "",
          "type": "address",
          "internalType": "address"
        }
      ],
      "stateMutability": "view"
    },
    {
      "type": "event",
      "name": "FinalizeShutdown",
      "inputs": [
        {
          "name": "shutdownTotalCollateralValue",
          "type": "uint256",
          "indexed": false,
          "internalType": "uint256"
        }
      ],
      "anonymous": false
    },
    {
      "type": "event",
      "name": "Initialized",
      "inputs": [
        {
          "name": "version",
          "type": "uint64",
          "indexed": false,
          "internalType": "uint64"
        }
      ],
      "anonymous": false
    },
    {
      "type": "event",
      "name": "OwnershipTransferred",
      "inputs": [
        {
          "name": "previousOwner",
          "type": "address",
          "indexed": true,
          "internalType": "address"
        },
        {
          "name": "newOwner",
          "type": "address",
          "indexed": true,
          "internalType": "address"
        }
      ],
      "anonymous": false
    },
    {
      "type": "event",
      "name": "StartShutdown",
      "inputs": [
        {
          "name": "indexForSettlement",
          "type": "uint256",
          "indexed": false,
          "internalType": "uint256"
        }
      ],
      "anonymous": false
    },
    {
      "type": "error",
      "name": "AlreadyRedeemed",
      "inputs": []
    },
    {
      "type": "error",
      "name": "InvalidInitialization",
      "inputs": []
    },
    {
      "type": "error",
      "name": "NFTsNotAllLiquidated",
      "inputs": []
    },
    {
      "type": "error",
      "name": "NotInitializing",
      "inputs": []
    },
    {
      "type": "error",
      "name": "OwnableInvalidOwner",
      "inputs": [
        {
          "name": "owner",
          "type": "address",
          "internalType": "address"
        }
      ]
    },
    {
      "type": "error",
      "name": "OwnableUnauthorizedAccount",
      "inputs": [
        {
          "name": "account",
          "type": "address",
          "internalType": "address"
        }
      ]
    },
    {
      "type": "error",
      "name": "SafeCastOverflowedIntToUint",
      "inputs": [
        {
          "name": "value",
          "type": "int256",
          "internalType": "int256"
        }
      ]
    },
    {
      "type": "error",
      "name": "SafeCastOverflowedUintToInt",
      "inputs": [
        {
          "name": "value",
          "type": "uint256",
          "internalType": "uint256"
        }
      ]
    },
    {
      "type": "error",
      "name": "ShutdownAlreadyFinalized",
      "inputs": []
    },
    {
      "type": "error",
      "name": "ShutdownBufferTimeNotPassed",
      "inputs": []
    },
    {
      "type": "error",
      "name": "ShutdownNotFinalized",
      "inputs": []
    },
    {
      "type": "error",
      "name": "ShutdownNotStarted",
      "inputs": []
    },
    {
      "type": "error",
      "name": "UnsupportedAsset",
      "inputs": []
    },
    {
      "type": "error",
      "name": "VaultInsolventOrEmpty",
      "inputs": []
    }
  ],
  "bytecode": {
    "object": "0x608060405234801561000f575f80fd5b506121a48061001d5f395ff3fe608060405234801561000f575f80fd5b5060043610610184575f3560e01c806387e2e7ef116100dd578063c185cf1011610088578063f2fde38b11610063578063f2fde38b1461031b578063f77c47911461032e578063fbfa77cf14610340575f80fd5b8063c185cf10146102ec578063de4a427a146102ff578063f232cea114610308575f80fd5b8063a562d8e4116100b8578063a562d8e4146102bc578063a675f84e146102d0578063ae749a49146102d9575f80fd5b806387e2e7ef146102715780638da5cb5b14610284578063a319b29f146102b4575f80fd5b8063676258d41161013d57806375c3822e1161011857806375c3822e146102345780637dc0d1d01461023c578063809e1c851461024f575f80fd5b8063676258d41461021b5780636debcf3614610224578063715018a61461022c575f80fd5b806353c4dbba1161016d57806353c4dbba146101cb5780635656f8a9146101ef57806358c7e4b114610206575f80fd5b8063123430db146101885780632d01edcd146101b8575b5f80fd5b60055461019b906001600160a01b031681565b6040516001600160a01b0390911681526020015b60405180910390f35b60015461019b906001600160a01b031681565b6005546101df90600160a81b900460ff1681565b60405190151581526020016101af565b6101f8600a5481565b6040519081526020016101af565b610219610214366004611ca2565b610353565b005b6101f8600c5481565b610219610523565b61021961085a565b61021961086d565b60025461019b906001600160a01b031681565b6101df61025d366004611d20565b60066020525f908152604090205460ff1681565b6101f861027f366004611d20565b6109dc565b7f9016d09d72d40fdae2fd8ceac6b6234c7706214fd39c1cd1e609a0528c199300546001600160a01b031661019b565b610219610d86565b6005546101df90600160a01b900460ff1681565b6101f8600b5481565b60035461019b906001600160a01b031681565b6102196102fa366004611d42565b610edc565b6101f860075481565b610219610316366004611d80565b611030565b610219610329366004611d20565b611335565b5f5461019b906001600160a01b031681565b60045461019b906001600160a01b031681565b7ff0c57e16840df040f15088dc2f81fe391c3923bec73e23a9662efc9c229c6a00805468010000000000000000810460ff16159067ffffffffffffffff165f8115801561039d5750825b90505f8267ffffffffffffffff1660011480156103b95750303b155b9050811580156103c7575080155b156103fe576040517ff92ee8a900000000000000000000000000000000000000000000000000000000815260040160405180910390fd5b84547fffffffffffffffffffffffffffffffffffffffffffffffff0000000000000000166001178555831561044957845468ff00000000000000001916680100000000000000001785555b6104523361138d565b5f80547fffffffffffffffffffffffff00000000000000000000000000000000000000009081166001600160a01b038e8116919091179092556001805482168d84161790556002805482168c84161790556003805482168b84161790556004805482168a841617905560058054909116918816919091179055831561051657845468ff000000000000000019168555604051600181527fc7f505b2f371ae2175ee4913f4499e1f2633a7b5936321eed1cdaeb6115181d29060200160405180910390a15b5050505050505050505050565b600554600160a01b900460ff16610566576040517f7bc571ad00000000000000000000000000000000000000000000000000000000815260040160405180910390fd5b600554600160a81b900460ff16156105aa576040517f6f685b3300000000000000000000000000000000000000000000000000000000815260040160405180910390fd5b617080600b546105ba9190611dbe565b4210156105f3576040517f94f8901000000000000000000000000000000000000000000000000000000000815260040160405180910390fd5b600580547fffffffffffffffffffff00ffffffffffffffffffffffffffffffffffffffffff16600160a81b1790555f5b600481101561076f57600480546040517f58332f200000000000000000000000000000000000000000000000000000000081529182018390525f916001600160a01b03909116906358332f20906024016020604051808303815f875af115801561068f573d5f803e3d5ffd5b505050506040513d601f19601f820116820180604052508101906106b39190611dd1565b90506001600160a01b0381161561076057806001600160a01b03166306661abd6040518163ffffffff1660e01b8152600401602060405180830381865afa158015610700573d5f803e3d5ffd5b505050506040513d601f19601f820116820180604052508101906107249190611dec565b1561075b576040517fb2abb6f000000000000000000000000000000000000000000000000000000000815260040160405180910390fd5b610766565b5061076f565b50600101610623565b5061077861139e565b5f8054604080517f913e2c7900000000000000000000000000000000000000000000000000000000815290516107fe926001600160a01b03169163913e2c799160048083019260209291908290030181865afa1580156107da573d5f803e3d5ffd5b505050506040513d601f19601f8201168201806040525081019061027f9190611dd1565b90505f811261080d575f61081e565b61081e61081982611e03565b611721565b600c55600a546040519081527f72f070b7492ff447a9bad72e3ec481b11267e1cf1e459419ac35bb323eeb6c2f9060200160405180910390a150565b610862611763565b61086b5f6117d7565b565b610875611763565b6002546003546040517f41976e090000000000000000000000000000000000000000000000000000000081526001600160a01b0391821660048201529116906341976e0990602401602060405180830381865afa1580156108d8573d5f803e3d5ffd5b505050506040513d601f19601f820116820180604052508101906108fc9190611dec565b600755600580547fffffffffffffffffffffff00ffffffffffffffffffffffffffffffffffffffff16600160a01b17905542600b555f8054604080517f79acb1dc00000000000000000000000000000000000000000000000000000000815290516001600160a01b03909216926379acb1dc9260048084019382900301818387803b158015610989575f80fd5b505af115801561099b573d5f803e3d5ffd5b505050507fe5a8b95cedc5668d58448a129d4c5ec22a76c523055c9f53e0674b77c724397b6007546040516109d291815260200190565b60405180910390a1565b600480546040517f67a44ca30000000000000000000000000000000000000000000000000000000081526001600160a01b03848116938201939093525f92839283928392839216906367a44ca3906024016104c060405180830381865afa158015610a49573d5f803e3d5ffd5b505050506040513d601f19601f82011682018060405250810190610a6d9190611f7c565b9450945050935093505f805f5b600a811015610c4c575f8482600a8110610a9657610a9661203c565b60200201511315610c3f5773__$80a24387a9df8c25b90b6e38aca8185990$__631aa40a108583600a8110610acd57610acd61203c565b60200201518884600a8110610ae457610ae461203c565b60200201516001600160a01b031663313ce5676040518163ffffffff1660e01b8152600401602060405180830381865afa158015610b24573d5f803e3d5ffd5b505050506040513d601f19601f82011682018060405250810190610b489190612050565b6040517fffffffff0000000000000000000000000000000000000000000000000000000060e085901b168152600481019290925260ff16602482015260126044820152606401602060405180830381865af4158015610ba9573d5f803e3d5ffd5b505050506040513d601f19601f82011682018060405250810190610bcd9190611dec565b9150670de0b6b3a7640000610c1a60095f8985600a8110610bf057610bf061203c565b60200201516001600160a01b03166001600160a01b031681526020019081526020015f205461185f565b610c249084612070565b610c2e91906120b3565b610c3890846120fe565b9250610c44565b610c4c565b600101610a7a565b505f5b6004811015610d7957848160048110610c6a57610c6a61203c565b602002015115610d71576002545f906001600160a01b031663ff02e7b9898460048110610c9957610c9961203c565b60200201516007546040517fffffffff0000000000000000000000000000000000000000000000000000000060e085901b1681526001600160a01b0390921660048301526024820152604401602060405180830381865afa158015610d00573d5f803e3d5ffd5b505050506040513d601f19601f82011682018060405250810190610d249190611dec565b9050670de0b6b3a7640000610d388261185f565b878460048110610d4a57610d4a61203c565b6020020151610d599190612070565b610d6391906120b3565b610d6d90856120fe565b9350505b600101610c4f565b5090979650505050505050565b600554600160a81b900460ff1615155f03610dcd576040517f827a86c100000000000000000000000000000000000000000000000000000000815260040160405180910390fd5b335f9081526006602052604090205460ff1615610e16576040517f1b4e0c3c00000000000000000000000000000000000000000000000000000000815260040160405180910390fd5b335f81815260066020526040812080547fffffffffffffffffffffffffffffffffffffffffffffffffffffffffffffff0016600117905590610e57906109dc565b90505f811315610ea7575f600c54600a54610e729190611dbe565b610e7b83611721565b610e8d90670de0b6b3a7640000612125565b610e97919061213c565b9050610ea381336118bd565b5050565b6040517fbe49854800000000000000000000000000000000000000000000000000000000815260040160405180910390fd5b50565b600554600160a01b900460ff16610f1f576040517f7bc571ad00000000000000000000000000000000000000000000000000000000815260040160405180910390fd5b600480546040517f77372d440000000000000000000000000000000000000000000000000000000081526001600160a01b03858116938201939093525f92909116906377372d4490602401602060405180830381865afa158015610f85573d5f803e3d5ffd5b505050506040513d601f19601f82011682018060405250810190610fa99190611dd1565b6040517f8f84d48e0000000000000000000000000000000000000000000000000000000081526001600160a01b038681166004830181905260248301526044820185905291925090821690638f84d48e906064015f604051808303815f87803b158015611014575f80fd5b505af1158015611026573d5f803e3d5ffd5b5050505050505050565b6005546040517f0fa6066e0000000000000000000000000000000000000000000000000000000081526001600160a01b03848116600483015290911690630fa6066e90602401602060405180830381865afa158015611091573d5f803e3d5ffd5b505050506040513d601f19601f820116820180604052508101906110b5919061214f565b6110eb576040517f24a0114400000000000000000000000000000000000000000000000000000000815260040160405180910390fd5b600554600160a81b900460ff1615155f03611132576040517f827a86c100000000000000000000000000000000000000000000000000000000815260040160405180910390fd5b6040517f23b872dd000000000000000000000000000000000000000000000000000000008152336004820152306024820152604481018290526001600160a01b038316906323b872dd906064016020604051808303815f875af115801561119b573d5f803e3d5ffd5b505050506040513d601f19601f820116820180604052508101906111bf919061214f565b50600480546040517fabdf25690000000000000000000000000000000000000000000000000000000081526001600160a01b03858116938201939093523060248201526044810184905291169063abdf2569906064015f604051808303815f87803b15801561122c575f80fd5b505af115801561123e573d5f803e3d5ffd5b50506002546007546040517fff02e7b90000000000000000000000000000000000000000000000000000000081526001600160a01b03878116600483015260248201929092525f94509116915063ff02e7b990604401602060405180830381865afa1580156112af573d5f803e3d5ffd5b505050506040513d601f19601f820116820180604052508101906112d39190611dec565b90505f670de0b6b3a76400006112e98385612125565b6112f3919061213c565b90505f600c54600a546113069190611dbe565b61131883670de0b6b3a7640000612125565b611322919061213c565b905061132e81336118bd565b5050505050565b61133d611763565b6001600160a01b038116611384576040517f1e4fbdf70000000000000000000000000000000000000000000000000000000081525f60048201526024015b60405180910390fd5b610ed9816117d7565b611395611afa565b610ed981611b61565b5f805f805b6113af6004600a611dbe565b811015611719576001546040517f09dc0609000000000000000000000000000000000000000000000000000000008152600481018390526001600160a01b03909116906309dc060990602401602060405180830381865afa158015611416573d5f803e3d5ffd5b505050506040513d601f19601f8201168201806040525081019061143a9190611dd1565b93506001600160a01b03841615801590611458575061145884611b69565b1561171157600480546040517f70a082310000000000000000000000000000000000000000000000000000000081526001600160a01b03918216928101929092528516906370a0823190602401602060405180830381865afa1580156114c0573d5f803e3d5ffd5b505050506040513d601f19601f820116820180604052508101906114e49190611dec565b6001600160a01b038581165f81815260086020526040908190209390935560025460075493517fff02e7b90000000000000000000000000000000000000000000000000000000081526004810192909252602482019390935291169063ff02e7b990604401602060405180830381865afa158015611564573d5f803e3d5ffd5b505050506040513d601f19601f820116820180604052508101906115889190611dec565b6001600160a01b0385165f9081526009602090815260408083209390935560089052205473__$80a24387a9df8c25b90b6e38aca8185990$__90631aa40a10906115d19061185f565b866001600160a01b031663313ce5676040518163ffffffff1660e01b8152600401602060405180830381865afa15801561160d573d5f803e3d5ffd5b505050506040513d601f19601f820116820180604052508101906116319190612050565b6040517fffffffff0000000000000000000000000000000000000000000000000000000060e085901b168152600481019290925260ff16602482015260126044820152606401602060405180830381865af4158015611692573d5f803e3d5ffd5b505050506040513d601f19601f820116820180604052508101906116b69190611dec565b92506116c184611c03565b611711576001600160a01b0384165f90815260096020526040902054670de0b6b3a7640000906116f085611721565b6116fa9190612125565b611704919061213c565b61170e9083611dbe565b91505b6001016113a3565b50600a555050565b5f8082121561175f576040517fa8ce44320000000000000000000000000000000000000000000000000000000081526004810183905260240161137b565b5090565b336117957f9016d09d72d40fdae2fd8ceac6b6234c7706214fd39c1cd1e609a0528c199300546001600160a01b031690565b6001600160a01b03161461086b576040517f118cdaa700000000000000000000000000000000000000000000000000000000815233600482015260240161137b565b7f9016d09d72d40fdae2fd8ceac6b6234c7706214fd39c1cd1e609a0528c19930080547fffffffffffffffffffffffff000000000000000000000000000000000000000081166001600160a01b03848116918217845560405192169182907f8be0079c531659141344cd1fd0a4f28419497f9722a3daafe3b4186f6b6457e0905f90a3505050565b5f7f7fffffffffffffffffffffffffffffffffffffffffffffffffffffffffffffff82111561175f576040517f24775e060000000000000000000000000000000000000000000000000000000081526004810183905260240161137b565b5f805b6118cc6004600a611dbe565b811015611af4576001546040517f09dc0609000000000000000000000000000000000000000000000000000000008152600481018390526001600160a01b03909116906309dc060990602401602060405180830381865afa158015611933573d5f803e3d5ffd5b505050506040513d601f19601f820116820180604052508101906119579190611dd1565b91506001600160a01b03821615801590611975575061197582611b69565b8015611987575061198582611c03565b155b15611aec57600480546040517f70a082310000000000000000000000000000000000000000000000000000000081526001600160a01b03918216928101929092525f91908416906370a0823190602401602060405180830381865afa1580156119f2573d5f803e3d5ffd5b505050506040513d601f19601f82011682018060405250810190611a169190611dec565b6001600160a01b0384165f9081526008602052604081205491925090670de0b6b3a764000090611a469088612125565b611a50919061213c565b90505f818310611a605781611a62565b825b600480546040517f453cf4bd0000000000000000000000000000000000000000000000000000000081526001600160a01b0389811693820193909352898316602482015260448101849052929350169063453cf4bd906064015f604051808303815f87803b158015611ad2575f80fd5b505af1158015611ae4573d5f803e3d5ffd5b505050505050505b6001016118c0565b50505050565b7ff0c57e16840df040f15088dc2f81fe391c3923bec73e23a9662efc9c229c6a005468010000000000000000900460ff1661086b576040517fd7e6bcf800000000000000000000000000000000000000000000000000000000815260040160405180910390fd5b61133d611afa565b600480546040517f77372d440000000000000000000000000000000000000000000000000000000081526001600160a01b03848116938201939093525f92839216906377372d4490602401602060405180830381865afa158015611bcf573d5f803e3d5ffd5b505050506040513d601f19601f82011682018060405250810190611bf39190611dd1565b6001600160a01b03161492915050565b6001546040517f62b232a40000000000000000000000000000000000000000000000000000000081526001600160a01b0383811660048301525f9216906362b232a490602401602060405180830381865afa158015611c64573d5f803e3d5ffd5b505050506040513d601f19601f82011682018060405250810190611c88919061214f565b92915050565b6001600160a01b0381168114610ed9575f80fd5b5f805f805f8060c08789031215611cb7575f80fd5b8635611cc281611c8e565b95506020870135611cd281611c8e565b94506040870135611ce281611c8e565b93506060870135611cf281611c8e565b92506080870135611d0281611c8e565b915060a0870135611d1281611c8e565b809150509295509295509295565b5f60208284031215611d30575f80fd5b8135611d3b81611c8e565b9392505050565b5f805f60608486031215611d54575f80fd5b8335611d5f81611c8e565b92506020840135611d6f81611c8e565b929592945050506040919091013590565b5f8060408385031215611d91575f80fd5b8235611d9c81611c8e565b946020939093013593505050565b634e487b7160e01b5f52601160045260245ffd5b80820180821115611c8857611c88611daa565b5f60208284031215611de1575f80fd5b8151611d3b81611c8e565b5f60208284031215611dfc575f80fd5b5051919050565b5f600160ff1b8203611e1757611e17611daa565b505f0390565b634e487b7160e01b5f52604160045260245ffd5b6040516080810167ffffffffffffffff81118282101715611e5457611e54611e1d565b60405290565b604051610140810167ffffffffffffffff81118282101715611e5457611e54611e1d565b5f611e87611e31565b9050806080830184811115611e9a575f80fd5b835b81811015611ebd578051611eaf81611c8e565b835260209283019201611e9c565b50505092915050565b5f611ecf611e5a565b905080610140830184811115611ee3575f80fd5b835b81811015611ebd578051611ef881611c8e565b835260209283019201611ee5565b5f82601f830112611f15575f80fd5b611f1d611e31565b806080840185811115611f2e575f80fd5b845b81811015611f48578051845260209384019301611f30565b509095945050505050565b5f82601f830112611f62575f80fd5b611f6a611e5a565b80610140840185811115611f2e575f80fd5b5f805f805f6104c08688031215611f91575f80fd5b86601f870112611f9f575f80fd5b611fa98787611e7e565b945086609f870112611fb9575f80fd5b611fc68760808801611ec6565b9350866101df870112611fd7575f80fd5b611fdf611e5a565b80610300880189811115611ff1575f80fd5b6101c089015b8181101561200f578051845260209384019301611ff7565b5081955061201d8a82611f06565b9450505050612030876103808801611f53565b90509295509295909350565b634e487b7160e01b5f52603260045260245ffd5b5f60208284031215612060575f80fd5b815160ff81168114611d3b575f80fd5b8082025f8212600160ff1b8414161561208b5761208b611daa565b8181058314821517611c8857611c88611daa565b634e487b7160e01b5f52601260045260245ffd5b5f826120c1576120c161209f565b7fffffffffffffffffffffffffffffffffffffffffffffffffffffffffffffffff8314600160ff1b831416156120f9576120f9611daa565b500590565b8082018281125f83128015821682158216171561211d5761211d611daa565b505092915050565b8082028115828204841417611c8857611c88611daa565b5f8261214a5761214a61209f565b500490565b5f6020828403121561215f575f80fd5b81518015158114611d3b575f80fdfea2646970667358221220c74c892bab146b660470cfd4cd5ce38d4e56210aa38b8ef74f6f7f1d4f24cb1864736f6c63430008180033",
    "linkReferences": {
      "src/core/lib/TokenLib.sol": {
        "TokenLib": [
          {
            "start": 2752,
            "length": 20
          },
          {
            "start": 5579,
            "length": 20
          }
        ]
      }
    }
  },
  "methodIdentifiers": {
    "__Shutdown_init(address,address,address,address,address,address)": "58c7e4b1",
    "controller()": "f77c4791",
    "decomposeNftShutdown(address,address,uint256)": "c185cf10",
    "finalizeShutdown()": "6debcf36",
    "getNetVaultValue(address)": "87e2e7ef",
    "hasRedeemedVault(address)": "809e1c85",
    "hasShutdownFinalized()": "53c4dbba",
    "hasShutdownStarted()": "a562d8e4",
    "indexForSettlement()": "de4a427a",
    "oracle()": "7dc0d1d0",
    "owner()": "8da5cb5b",
    "powerPerpFactory()": "123430db",
    "protocolUnderlyingAsset()": "ae749a49",
    "redeemLongShutdown(address,uint256)": "f232cea1",
    "redeemShortShutdown()": "a319b29f",
    "renounceOwnership()": "715018a6",
    "shutdownBadDebt()": "676258d4",
    "shutdownTotalCollateralValue()": "5656f8a9",
    "spanMargin()": "2d01edcd",
    "startShutdown()": "75c3822e",
    "startShutdownTimestamp()": "a675f84e",
    "transferOwnership(address)": "f2fde38b",
    "vault()": "fbfa77cf"
  },
  "id": 110
}